:020000040000fa
:10000000f80f00203d100000611800006718000084
:1000100000000000000000000000000000000000e0
:10002000000000000000000000000000cb110000f4
:100030000000000000000000cb110000cb11000008
:10004000cb110000cb110000cb110000cb11000040
:10005000cb110000cb110000cb110000cb11000030
:10006000cb110000cb110000cb110000cb11000020
:10007000cb110000cb110000cb110000cb11000010
:10008000cb110000cb110000cb110000cb11000000
:10009000cb110000cb11000093060000cb11000033
:1000a000cb110000cb110000cb11000015030000a4
:1000b000cb110000cb110000000000000000000088
:1000c000000000000000000035180000cb11000007
:1000d000cb110000cb110000cb110000cb110000b0
:1000e000cb110000cb110000cb110000cb110000a0
:0400f000cb11000030
:020000040000fa
:1000f400f8b5c046f8bc08bc9e46704781120000a3
:10010400f8b5c046f8bc08bc9e4670475d120000b6
:020000040000fa
:10011400580500201c000000000000008805002095
:100124000400000000000000ba05002001000000e7
:1001340000000000ac0500200200000000000000e8
:10014400080400200001000000000000ae050020ab
:1001540004000000000000008c05002004000000e2
:1001640000000000bb0500200200000000000000a9
:10017400900500200c00000000000000b2050020e3
:100184000800000000000000bd050020020000007f
:10019400000000009c050020040000000000000096
:1001a400080500205000000000000000c0050020e9
:1001b4006c00000001000000cc050020c8050020f0
:1001c400cc050020000000002500000008000020ed
:1001d4000004000000000000000000000000000017
:1001e400000000000000000000000000000000000b
:1001f400000000007718000000000000000000006c
:1002040000000000000000006d0e0000000000006f
:1002140000000000000000000000000000000000da
:10022400000000000000002008040000000000009e
:100234008c060020200000000100000001000000e6
:1002440003000000000000000000000000000000a7
:100254000000000000000000800500208005002050
:100264000800000000000000a005002004000000b9
:10027400000000002c0600206000000001000000c7
:100284000100000003000000000000000000000066
:10029400000000000000000000000000e30f000068
:1002a4000000000000000000000000004d180000e5
:1002b4008f17000000000000000000000000000094
:1002c400000000000000000000000000000000002a
:1002d400000000000000000000000000000000001a
:1002e400ac06002004000000010000000100000032
:1002f400a405002008000000000000007405002090
:100304000c000000000000000000000000000000dd
:020000040000fa
:1003140080b582b000af40f2bd53c2f200031b7837
:10032400fbb140f60003c4f200231b8d9ab2fb1dff
:100334001a7040f2be53c2f200031b782bb1fb1dae
:100344001b78180001f05bf9afe0fb1d1b783a2b1a
:1003540000d0aae040f2be53c2f2000301221a7098
:10036400a3e040f60003c4f200231b7edbb21a00b4
:1003740004231340002b46d040f2b853c2f20003ca
:100384001b889ab240f2b453c2f200031b889a420b
:100394000cd140f60003c4f2002304221a7540f283
:1003a400b853c2f2000300221a802ce0c04640f683
:1003b4000003c4f200231b7edbb21a0001231340a6
:1003c400002bf4d040f60003c4f200231b8d99b235
:1003d40040f29453c2f200031a6840f2b853c2f2d6
:1003e40000031b889bb2d318cab21a7040f2b853e8
:1003f400c2f200031b889bb201339ab240f2b85395
:10040400c2f200031a8040f60003c4f200231b7eec
:10041400dbb21a0002231340002b47d040f2b6533c
:10042400c2f200031b889ab240f2b253c2f2000334
:100434001b889a420cd140f60003c4f20023022226
:100444001a7540f2b653c2f2000300221a802de05e
:10045400c04640f60003c4f200231b7edbb21a0040
:1004640001231340002bf4d040f29853c2f200034e
:100474001a6840f2b653c2f200031b889bb2d31829
:100484001a7840f60003c4f2002392b21a8540f2af
:10049400b653c2f200031b889bb201339ab240f2f6
:1004a400b653c2f200031a8000e0c046bd4602b053
:0204b40080bd09
:020000040000fa
:1004b60090b583b000af02003960fb1d1a70fb1dba
:1004c6001b787f2b2fd84ef20013cef20003fa1db5
:1004d600127852b29208c0329200d358fa1d12789e
:1004e600110003220a40d200ff2191400a00d243a4
:1004f6001a4010003b689b01ff221a40fb1d1b7827
:10050600190003230b40db009a4011004ef2001342
:10051600cef20003fa1d127852b292080143c0329d
:100526009200d15037e04ef60053cef20003fa1d8a
:10053600127811000f220a40083a920806329200f9
:100546009b1804331b68fa1d1278110003220a4017
:10055600d200ff2191400a00d2431a4010003b68a6
:100566009b01ff221a40fb1d1b78190003230b4039
:10057600db009a404ef60053cef20003f91d0978cf
:100586000c000f21214008398908024306318900f1
:0e0596005b1804331a60c046bd4603b090bd2a
:020000040000fa
:1005a40090b583b000af02003960fb1d1a70fb1dcb
:1005b4001b787f2b2fd84ef20013cef20003fa1dc6
:1005c400127852b29208c0329200d358fa1d1278af
:1005d400110003220a40d200ff2191400a00d243b5
:1005e4001a4010003b689b01ff221a40fb1d1b7838
:1005f400190003230b40db009a4011004ef2001354
:10060400cef20003fa1d127852b292080143c032ae
:100614009200d15037e04ef60053cef20003fa1d9b
:10062400127811000f220a40083a9208063292000a
:100634009b1804331b68fa1d1278110003220a4028
:10064400d200ff2191400a00d2431a4010003b68b7
:100654009b01ff221a40fb1d1b78190003230b404a
:10066400db009a404ef60053cef20003f91d0978e0
:100674000c000f2121400839890802430631890002
:0e0684005b1804331a60c046bd4603b090bd3b
:020000040000fa
:1006920080b500af40f20043c4f200231b7edbb200
:1006a2001a0001231340002b44d040f2bb53c2f284
:1006b20000031b78dbb2d3b940f2bc53c2f2000391
:1006c2001b78dbb29bb140f28c53c2f200031a6872
:1006d20040f2b053c2f200031b889bb2d3181b78be
:1006e200dab240f20043c4f200239a6215e040f20b
:1006f200bb53c2f200031b78dbb213b101f065f801
:100702000be040f28c53c2f200031b681b78dab292
:1007120040f20043c4f200239a6240f2b053c2f2a4
:1007220000031b889bb201339ab240f2b053c2f26b
:1007320000031a8040f2b053c2f200031b889ab23f
:1007420040f2ae53c2f200031b889bb29a4213d10d
:10075200c04640f20043c4f200231b7edbb21a0003
:1007620001231340002bf4d040f29053c2f2000355
:0e0772001b68180000f007fcc046bd4680bda5
:020000040000fa
:1007800080b500af002000f0f8fd41f60043c4f250
:10079000000342f205121a6200f0cbfc0021012096
:1007a00000f09afd002140f2001000f095fd0121bb
:1007b00040f2001000f0abfd0121022000f08cfda2
:1007c00040f2ac53c2f2000305221a8040f2084303
:1007d000c2f2000301221a7040f20843c2f2000381
:1007e000ff225a7040f20843c2f20003f0229a70ce
:1007f00040f20843c2f200030f22da70082000f032
:10080000cbf900f032ff00f06cfc00f0e8ff0021b3
:10081000002000f0f9fa00f074fe00f015ffc04669
:1008200040f2ba53c2f200031b78dbb2002bf7d1bf
:10083000012140f2001000f06afdc04640f2ba53b8
:10084000c2f200031b78dbb2002bf7d0002140f28c
:08085000001000f05cfde2e77e
:020000040000fa
:1008580080b500af052000f01dfd012144f2000025
:1008680000f051fd0a2000f015fd002144f20000bf
:1008780000f049fd0a2000f00dfd012144f20000be
:1008880000f041fd142000f005fdc0460e2148f29d
:10089800000000f01bfe0300002bf7d180235b0251
:1008a8000021180000f02ffd042000f07cfd12202c
:1008b80000f0eafbc0460e2148f2000000f006fef8
:1008c8000300002bf7d1042000f05afb80235b02c1
:1008d8000121180000f017fd042000f064fd1a2023
:1008e80000f02cfd3c2000f0cffb042000f048fb7a
:1008f800042000f058fd222000f020fdd72000f051
:0e090800c3fb042000f03cfbc046bd4680bd92
:020000040000fa
:1009160080b582b000af042000f046fd242000f030
:100926000efdbb1d00221a8007e0ff2000f0adfb84
:10093600bb1d1a88bb1d01321a80bb1d1b8841f2e4
:1009460087329342f1d9042000f01bfb042000f00b
:100956002bfd262000f0f3fc3b1d00221a8007e049
:10096600002000f092fb3b1d1a883b1d01321a80c5
:100976003b1d1b8841f287329342f1d9042000f0d7
:1009860000fbc0460e2148f2000000f0a0fd030067
:10099600002bf7d1042000f007fd202000f0cffc4b
:1009a600042000f0eefac0460e2148f2000000f0e6
:1009b6008efd0300002bf7d1c046bd4602b080bdb8
:020000040000fa
:1009c60080b500af41f60043c4f200038022412106
:1009d6009950c04641f60043c4f2000380229b585a
:1009e60040221340402bf5d141f20003c4f200032c
:1009f60020225a6341f20003c4f200033f221a6325
:100a0600c04641f20003c4f200033c229b5cdbb209
:100a16001a0004231340042bf3d041f20003c4f25e
:100a260000032c2202219954c04641f20003c4f26d
:100a360000033c229b5cdbb21a0002231340022b0c
:100a4600f3d0c04641f20003c4f2000340229b5c8f
:100a5600dbb21a0003231340032bf3d1c046bd4675
:020a660080bd51
:020000040000fa
:100a680090b585b000af0200fb1d1a70bb1d0a1cb3
:100a78001a700e23fb18fa1d127852081a700d20ee
:100a88003b18fa1d127801210a401a700f217b18b1
:100a9800ba1d12781a703b181b7823b17b187a1884
:100aa800127812011a7043f20003c4f20003fa1d0f
:100ab800127840219b185b1803221a7043f2000336
:100ac800c4f200030e243a19127830219b185b18df
:100ad8001b78d8b243f20003c4f200033a19127823
:100ae8000f21791809780143c8b230219b185b1887
:0c0af800021c1a70c046bd4605b090bd3f
:020000040000fa
:100b040080b500af41f20003c4f200239b7adbb24c
:100b14001a0001231340d3b340f28853c2f20003f6
:100b24001b685a1c40f28853c2f200031a6040f258
:100b34008853c2f200031b6840f6c412934212d1d8
:100b440040f2ba53c2f200031b78dbb2db43dab2e1
:100b540040f2ba53c2f200031a7040f28853c2f250
:100b6400000300221a6041f20003c4f200230022b1
:100b74001a7541f20003c4f200239b7adab241f2ff
:100b84000003c4f2002301210a43d2b29a72c04680
:040b9400bd4680bd1d
:020000040000fa
:100b980080b582b000af0200fb1d1a700021102042
:100ba80000f096fb0021102000f0adfb0021202072
:100bb80000f08efb0021202000f0a5fb032104207b
:100bc800fff74eff03210520fff74aff41f60043d8
:100bd800c4f20003ac224021995040f20043c4f211
:100be8000023fa1d12781a7340f20043c4f200235e
:100bf80042f200025a6040f20043c4f200238c2201
:100c0800c1f220021a6003211620fff7c7fcc04674
:060c1800bd4602b080bde4
:020000040000fa
:100c1e00f0b51600050002278369426987b002937a
:100c2e00d31a03939b1904910596019302ac3a00d3
:100c3e002100286800f0cafc019b984208d1ab68dd
:100c4e00ea68ab619a18aa626b61300007b0f0bd1a
:100c5e0000280cda102200236968ab620a43ab61ec
:100c6e006b616a60022f12d06368f61aede7019b82
:100c7e001b1a01936368984202d9c01a0834013fc7
:100c8e0023681b1823606368181a6060cfe71e0084
:020c9e00dbe792
:020000040000fa
:100ca000f7b51e4c256801942b0065b10022290080
:100cb000160013000f68bc460f6984450ad132b193
:100cc00017610b0010331800febd3900f2e7019bdd
:100cd0001f60f6e7844503d9d3b11c68a44517d338
:100ce0000a00002ff1d1002bedd01f001a681969fe
:100cf000121a1037102a05d918603818016101003e
:100d0000103a02609d4206d1019b19603b00dae770
:100d100016000b00e4e73161f8e7c046a4050020a7
:020000040000fa
:100d2000f8b5846a05000f00160054b1ab6a6a6911
:100d30009b1ab3420cd2320039002800fff76fff34
:100d400005e000f0f7fc03002000002beed0f8bd1a
:100d5000002ef0d02b0034331b785bb2002b1bdb52
:100d60003400dbb2621eb95c994212d12200390014
:100d70002800fff754ffa042e9d33f19341b22009b
:100d80003900686900f00efd6b6930001c196c6158
:0c0d9000dde71400002ae5d13400f0e794
:020000040000fa
:100d9c0080b500af40f20043c4f2000300221a8178
:100dac0040f20043c4f200039b79dab240f20043f4
:100dbc00c4f2000301210a43d2b29a7140f20043fb
:100dcc00c4f200039b78dbb21a0003231340022bfe
:100ddc0011d040f20043c4f2000302229a70c046c4
:100dec0040f20043c4f200039b79dbb21a000123ea
:0c0dfc001340002bf4d0c046bd4680bd63
:020000040000fa
:100e080080b582b000af0200fb1d1a70bb1d0a1c22
:100e18001a7041f60043c4f20003b8229a5841f60a
:100e28000043c4f2000340210a43b8215a5041f25a
:100e38000003c4f2002301221a7141f20003c4f234
:100e480000231a6841f20003c4f2002340f204119f
:100e58000a431a6003212220fff729fbc046bd463a
:040e680002b080bd97
:020000040000fa
:100e6c007fb51600c2680d0013000091591e8b410e
:100e7c00f31a019383680400039269460222006806
:100e8c00029300f090fb002808dc18220823024093
:100e9c00534062681343636006000fe0019b83427a
:100eac00fad2a268c01ae3681018e26320642bb16e
:100ebc00531ce3631378ad19013d2b70300004b063
:020ecc0070bdf7
:020000040000fa
:020ece0070476b
:020000040000fa
:100ed00000230e4a10b513600d4a0e4c13600e4ae3
:100ee00013600e4a13600e4a13600e4a5362136178
:100ef0000133936000f096fc00f0aff90a4b9c427e
:100f000000d310bd08cc9847f8e7c046a0050020e4
:100f10001405002000010000100500200805002035
:0c0f20000c050020180500200401000052
:020000040000fa
:100f2c0037b5144d04002b6873b100f0a9fb019088
:100f3c0001a800f01bfc0f230f309843019900f01f
:100f4c00cdfb58b100232b6004b901340f230f34af
:100f5c009c4324b90c222000074b1a603ebd042c84
:100f6c0000d204242000fff795fe0028f6d0031fc2
:0c0f7c001c60f3e7ac060020a805002074
:020000040000fa
:100f880080b582b000af786000f0cdfa40f290539f
:100f9800c2f2000300221a607b680121180000f0e9
:100fa800b2f940f2bb53c2f2000300221a7040f2b9
:100fb800bc53c2f2000300221a7040f2b053c2f2ce
:100fc800000300221a8040f2ae53c2f2000300224e
:0a0fd8001a80c046bd4602b080bd7d
:020000040000fa
:100fe20070b504000d0008b9002070bd43689b066f
:100ff20007d543698269934215d80023a362a3618e
:101002006361e16b236c994204d2c91a0122206800
:1010120000f032fc00232364e363002de4d0206857
:1010220000f023fce1e70022c36a110098476369dc
:0a103200002be2d101204042d7e775
:020000040000fa
:10103c0010b540f6cf63c0f20003984740f6cf637b
:10104c00c0f20003984700f00ffa40f20003c0f220
:10105c0000037f2293434ef60052cef200029360bf
:10106c0040f6d163c0f20003984740f6cf63c0f25c
:10107c000003984740f6cf63c0f200039847fff790
:04108c0079fbfee707
:020000040000fa
:1010900080b582b000af0200fb1d1a70c04640f25e
:1010a0000043c4f200231b7edbb21a00012313406d
:1010b000002bf4d040f20043c4f20023fa1d127852
:1010c0009a62c04640f20043c4f200231b7edbb2aa
:1010d0001a0001231340002bf4d0c046bd4602b0d5
:0210e00080bdd1
:020000040000fa
:1010e20080b500af80235b020021180000f0f3f806
:1010f200002144f2000000f0eef80021042000f08c
:10110200eaf8012148f2000000f0e5f8012104208c
:1011120000f0fcf880235b020121180000f0f6f8d1
:10112200002144f2000000f0f1f8c046bd4680bd47
:020000040000fa
:1011320080b582b000affb1d00221a700fe043f2af
:101142000003c4f20003fa1d127840219b185b18b9
:1011520002221a70fb1d1a78fb1d01321a70fb1d48
:101162001b781f2bebd943f20003c4f200030122c8
:0c11720052421a60c046bd4602b080bd6b
:020000040000fa
:10117e0080b582b000af0200fb1d1a70fb1d1b78fc
:10118e007f2b17d8fb1d1b781a001f231a40110046
:10119e004ef20013cef20003fa1d127852b252092b
:1011ae0001208840010020329200d150bff34f8fb2
:0c11be00bff36f8fc046bd4602b080bd7d
:020000040000fa
:0211ca00fee73e
:020000040000fa
:1011cc0070b5040016001d00022a1ad043689b0655
:1011dc0017d439b90db940f2004528000830fff793
:1011ec009ffe010020236268a1601343636023000b
:1011fc00e5603433ff22012e00d10a221a70024b13
:0c120c00e362002070bdc046210d000010
:020000040000fa
:1012180080b582b000af0200fb1d1a70fb1d1b7861
:101228007f2b12d8fb1d1b781a001f231a401100b0
:101238004ef20013cef20003fa1d127852b2520990
:101248000120884001009200d150c046bd4602b03e
:0212580080bd57
:020000040000fa
:02125a007047db
:020000040000fa
:10125c0010b5054c227832b9044b13b1044800e0a8
:10126c0000bf0123237010bd5805002000000000b2
:10127c0000000000034b10b51bb10349034800e00c
:10128c0000bf10bd000000005c0500200000000045
:020000040000fa
:10129c0080b584b000af78600023fb600ee00023c3
:1012ac00bb6003e0c046bb680133bb60bb6840f267
:1012bc0098729342f6d9fb680133fb60fa687b683d
:0c12cc009a42ecd3c046bd4604b080bd81
:020000040000fa
:1012d80080b582b000af78600a00fb1c1a70fb1c56
:1012e8001b7833b143f20003c4f200037a685a60f2
:1012f80005e043f20003c4f200037a689a60c0462e
:06130800bd4602b080bded
:020000040000fa
:10130e0080b582b000af78600a00fb1c1a70fb1c1f
:10131e001b7833b143f20003c4f200037a689a617a
:10132e0005e043f20003c4f200037a685a61c04636
:06133e00bd4602b080bdb7
:020000040000fa
:1013440080b582b000af0200fb1d1a7080235b02df
:1013540000211800fff7d9fffb1d1b781800fff7c9
:1013640095fe80235b0201211800fff7ceffc046e3
:06137400bd4602b080bd81
:020000040000fa
:10137a0080b582b000af786044f20003c4f2001373
:10138a0004225a60fff705fd00f026f800f089f9fb
:10139a0000f044f900f050fa00f037fac046bd46b2
:0413aa0002b080bd50
:020000040000fa
:1013ae0080b582b000af0200fb1d1a70fb1d1b78ca
:1013be00dbb21a0040f29053c2f200031a60fb1d1a
:1013ce001b78dbb200211800fff79affc046bd461e
:0413de0002b080bd1c
:020000040000fa
:1013e20080b500af40f2c453c2f200031b681b6811
:1013f2000021180000f0fbf940f2a863c2f20003da
:101402001b681b680021180000f0f1f9c046bd46b8
:0214120080bd9b
:020000040000fa
:1014140080b500af41f60043c4f2000340f2071266
:10142400c0f202021a62c04641f60043c4f200034d
:101434005b6804221340042bf6d0c046bd4680bd31
:020000040000fa
:1014440080b500af41f60043c4f2000340f2051238
:10145400c0f204025a62c04641f60043c4f20003db
:101464005b6808221340082bf6d0c046bd4680bdf9
:020000040000fa
:1014740010b50948016811b9436803b910bd0400e7
:101484008368064a9bb20c349b009b584268200038
:10149400984780002018ede7140100009017000021
:020000040000fa
:1014a400064b1a680ab9064a1a60064a116809b94d
:1014b400054911601a68054b1a6070477c050020c5
:1014c400b806002078050020b80800207405002024
:020000040000fa
:1014d40080b582b000af78600a00fb1c1a7043f23a
:1014e4000003c4f200031b6a7a681a40fb1c1b78d1
:0e14f400da401300dbb21800bd4602b080bd26
:020000040000fa
:1015020080b500af41f20003c4f200235b7adab285
:1015120041f20003c4f2002301210a43d2b25a72fb
:0c1522002220fff778fec046bd4680bdc9
:020000040000fa
:10152e0080b500af40f20043c4f200231b7ddab257
:10153e0040f20043c4f2002301210a43d2b21a75cd
:0c154e001620fff715fec046bd4680bd0c
:020000040000fa
:02155a007047d8
:020000040000fa
:10155c0070b5084c050023680bb9fff79dff064ad0
:10156c00206812684519aa4201d3256070bd01207c
:0c157c004042fbe77405002078050020c9
:020000040000fa
:10158800020000234832d356591e0b43137004231c
:10159800426813402bb1102313434360012040429b
:0a15a80070470364c3631800fae7fc
:020000040000fa
:1015b200f7b5002507000c002e000192019b9e4208
:1015c20001db2800febd62682168380000f099f84e
:0815d20001362d180834f1e781
:020000040000fa
:1015da00f7b5002507000c002e000192019b9e42e0
:1015ea0001db2800febd62682168380000f091f82e
:0815fa0001362d180834f1e759
:020000040000fa
:1016020080b582b000af0200fb1d1a70bb1d0a1c20
:101612001a70fb1d1b781800fff739fdc046bd4646
:0416220002b080bdd5
:020000040000fa
:1016260080b500af44f20003c4f2001302225a60f0
:1016360044f20003c4f2001301221a72c046bd46ea
:0216460080bd65
:020000040000fa
:1016480080b500af41f20003c4f200231a6841f2ea
:101658000003c4f2002302210a431a60c046bd46b3
:0216680080bd43
:020000040000fa
:10166a0080b500af40f20043c4f200231a6840f28a
:10167a000043c4f2002302210a431a60c046bd4651
:02168a0080bd21
:020000040000fa
:10168c0010b5054c22680ab9fff706ff034b186822
:10169c002368c01a10bdc0467405002078050020d0
:020000040000fa
:1016ac0080b500af00f04cf800f055f8fff7c4fe21
:0e16bc00fff783f9fff7a8fec046bd4680bdcc
:020000040000fa
:1016ca00002310b5934206d103201840421e9041d0
:0e16da009b08c01810bdc45ccc540133f2e76d
:020000040000fa
:1016e800054a10b5146800231cb910600361016035
:0c16f8000133180010bdc046a4050020fe
:020000040000fa
:1017040080b584b000aff860b9607a6001235b42b1
:081714001800bd4604b080bdc1
:020000040000fa
:10171c0080b584b000aff860b9607a6001235b4299
:08172c001800bd4604b080bda9
:020000040000fa
:1017340010b50400fff726ff28b9a368e268a36187
:0817440063619b18a36210bd54
:020000040000fa
:10174c0080b500af41f20003c4f2000302221a7606
:06175c00c046bd4680bd41
:020000040000fa
:1017620080b500af41f20043c4f2000300221a74b4
:06177200c046bd4680bd2b
:020000040000fa
:10177800006810b5002801da002010bdfff7eafe66
:06178800431cfad1f8e752
:020000040000fa
:02178e007047a2
:020000040000fa
:1017900003180000cb160000731800007318000037
:0417a00073180000ba
:020000040000fa
:1017a40010b52ab10023cc5cc45401339342fad15e
:0417b40010bdc0465e
:020000040000fa
:1017b80010b500f04df8024b1860586010bdc046d7
:0417c8008005002078
:020000040000fa
:1017cc0080b500af40f2ac53c2f200031b88bd469b
:0217dc0080bdce
:020000040000fa
:1017de0080b500affff739f8fff796f8c046bd4663
:0217ee0080bdbc
:020000040000fa
:1017f0004a424a4110b5520040f20043fff7e6fc6e
:0218000010bd19
:020000040000fa
:101802008a18914201d10020704700230b700131e8
:02181200f7e7f6
:020000040000fa
:1018140080b500afbff35f8f62b6c046bd4680bde2
:020000040000fa
:1018240010b5fff7c7fffff796fefff794fe10bd54
:020000040000fa
:0e18340080b500affff764f9c046bd4680bd29
:020000040000fa
:0a18420080b500afc046bd4680bd72
:020000040000fa
:0a184c0010b50068fff764ff10bd3f
:020000040000fa
:08185800004870472c06002037
:020000040000fa
:0618600080b500affee7b9
:020000040000fa
:0618660080b500affee7b3
:020000040000fa
:06186c000120404270471c
:020000040000fa
:04187200002070479b
:020000040000fa
:041876000020704797
:020000040000fa
:04187a000020704793
:020000040000fa
:0200000400807a
:044000007f438fb0bb
:020000040000fa
:0200000400807a
:04400400bbfcffff03
:020000040000fa
:0200000400807a
:04c0040000ffffff3b
:020000040000fa
:0200000400807a
:04c04000ffffffff00
:020000040000fa
:0200000400807a
:04c04400fffffffffc
:020000040000fa
:0200000400807a
:04c04800fffffffff8
:020000040000fa
:0200000400807a
:04c04c00fffffffff4
:00000001FF
