:020000040000fa
:10000000f00f002011150000451e00004b1e0000df
:1000100000000000000000000000000000000000e0
:10002000000000000000000000000000b717000002
:100030000000000000000000b7170000b717000024
:10004000b7170000b7170000b7170000b717000078
:10005000b7170000b7170000b7170000b717000068
:10006000b7170000b7170000b7170000b717000058
:10007000b7170000b7170000b7170000b717000048
:10008000b7170000b7170000b7170000b717000038
:10009000b7170000b71700005b060000b717000095
:1000a000b7170000b7170000b717000015090000c8
:1000b000dd090000b717000000000000000000008c
:1000c00000000000000000001b1e0000b717000029
:1000d000b7170000b7170000b7170000b7170000e8
:1000e000b7170000b7170000b7170000b7170000d8
:0400f000b71700003e
:020000040000fa
:1000f400f8b5c046f8bc08bc9e467047dd17000042
:10010400f8b5c046f8bc08bc9e467047b917000055
:020000040000fa
:10011400780400201c00000000000000a804002057
:100124000400000000000000dc04002001000000c6
:10013400000000007604002002000000000000001f
:10014400cc0400200400000000000000ac040020e7
:100154000400000000000000dd0400200200000094
:1001640000000000b00400200c00000000000000ab
:10017400d00400200800000000000000df0400207c
:100184000100000000000000e20400200200000062
:100194000100000088130000d804002002000000c1
:1001a40000000000d005002008000000010000004d
:1001b400b405b405b4056c02da04002002000000a2
:1001c40000000000e0040020020000000000000025
:1001d400580400201e00000000000000bc040020a1
:1001e400040000000000000008040020500000008b
:1001f40000000000e40400206c0000000100000086
:10020400f0040020ec040020f004002000000000b2
:100214002500000008000020000400000000000089
:1002240000000000000000000000000000000000ca
:100234000000000000000000000000005b1e000041
:1002440000000000000000000000000000000000aa
:10025400e7120000000000000000000000000000a1
:10026400000000000000000000000000000000206a
:100274000804000000000000b00500202000000079
:100284000100000001000000030000000000000065
:10029400000000000000000000000000000000005a
:1002a400a0040020a00400200800000000000000ba
:1002b400c0040020040000000000000050050020dd
:1002c40060000000010000000100000003000000c5
:1002d400000000000000000000000000000000001a
:1002e40000000000b714000000000000000000003f
:1002f40000000000331e0000631e00000000000028
:1003040000000000000000000000000000000000e9
:1003140000000000000000000000000000000000d9
:100324000000000000000000d805002004000000c8
:100334000100000001000000c404002008000000c7
:1003440000000000940400200c00000000000000e5
:100354000000000000000000666666666666666669
:020000040000fa
:1003640080b582b000af0200fb1d1a7040f2e0437a
:10037400c2f200031b785bb9fb1d1b783a2b00d03b
:1003840075e040f2e043c2f2000301221a706ee00d
:1003940040f20043c4f20023fa1d12789a6240f23c
:1003a400da43c2f200031b8801339ab240f2da4303
:1003b400c2f200031a8040f2e143c2f200031b7848
:1003c4001a0040f2d053c2f200035200d25a40f253
:1003d400da43c2f200031b889a4217d140f2e14388
:1003e400c2f200031b780133dab240f2e143c2f2f5
:1003f40000031a7040f2da43c2f2000300221a80aa
:1004040040f2e043c2f2000300221a7040f2d843e3
:10041400c2f200031b8801339ab240f2d843c2f2fd
:1004240000031a8040f2d843c2f200031a8840f253
:10043400e243c2f200031b889a421ad140f6000339
:10044400c4f2002304221a7580235b02180001f011
:1004540003f840f2e143c2f2000300221a7040f2b2
:10046400d843c2f2000300221a80c04601e0c0460d
:0a04740000e0c046bd4602b080bda6
:020000040000fa
:10047e0090b583b000af02003960fb1d1a70fb1df2
:10048e001b787f2b2fd84ef20013cef20003fa1ded
:10049e00127852b29208c0329200d358fa1d1278d6
:1004ae00110003220a40d200ff2191400a00d243dc
:1004be001a4010003b689b01ff221a40fb1d1b785f
:1004ce00190003230b40db009a4011004ef200137b
:1004de00cef20003fa1d127852b292080143c032d6
:1004ee009200d15037e04ef60053cef20003fa1dc3
:1004fe00127811000f220a40083a92080632920032
:10050e009b1804331b68fa1d1278110003220a404f
:10051e00d200ff2191400a00d2431a4010003b68de
:10052e009b01ff221a40fb1d1b78190003230b4071
:10053e00db009a404ef60053cef20003f91d097807
:10054e000c000f2121400839890802430631890029
:0e055e005b1804331a60c046bd4603b090bd62
:020000040000fa
:10056c0090b583b000af02003960fb1d1a70fb1d03
:10057c001b787f2b2fd84ef20013cef20003fa1dfe
:10058c00127852b29208c0329200d358fa1d1278e7
:10059c00110003220a40d200ff2191400a00d243ed
:1005ac001a4010003b689b01ff221a40fb1d1b7870
:1005bc00190003230b40db009a4011004ef200138c
:1005cc00cef20003fa1d127852b292080143c032e7
:1005dc009200d15037e04ef60053cef20003fa1dd4
:1005ec00127811000f220a40083a92080632920043
:1005fc009b1804331b68fa1d1278110003220a4061
:10060c00d200ff2191400a00d2431a4010003b68ef
:10061c009b01ff221a40fb1d1b78190003230b4082
:10062c00db009a404ef60053cef20003f91d097818
:10063c000c000f212140083989080243063189003a
:0e064c005b1804331a60c046bd4603b090bd73
:020000040000fa
:10065a0080b500af40f20043c4f200231b7edbb238
:10066a001a0001231340002b44d040f2dd43c2f2aa
:10067a0000031b78dbb2d3b940f2de43c2f20003b7
:10068a001b78dbb29bb140f2ac43c2f200031a689a
:10069a0040f2ce43c2f200031b889bb2d3181b78e8
:1006aa00dab240f20043c4f200239a6215e040f243
:1006ba00dd43c2f200031b78dbb213b101f07dfb0c
:1006ca000be040f2ac43c2f200031b681b78dab2bb
:1006da0040f20043c4f200239a6240f2ce43c2f2cf
:1006ea0000031b889bb201339ab240f2ce43c2f296
:1006fa0000031a8040f2ce43c2f200031b889ab26a
:10070a0040f2cc43c2f200031b889bb29a4213d137
:10071a00c04640f20043c4f200231b7edbb21a003b
:10072a0001231340002bf4d040f2b043c2f200037d
:0e073a001b68180000f08dfec046bd4680bd55
:020000040000fa
:1007480090b583b000af02003960fb1d1a70fb1d25
:100758001b787f2b2fd84ef20013cef20003fa1d20
:10076800127852b29208c0329200d358fa1d127809
:10077800110003220a40d200ff2191400a00d2430f
:100788001a4010003b689b01ff221a40fb1d1b7892
:10079800190003230b40db009a4011004ef20013ae
:1007a800cef20003fa1d127852b292080143c03209
:1007b8009200d15037e04ef60053cef20003fa1df6
:1007c800127811000f220a40083a92080632920065
:1007d8009b1804331b68fa1d1278110003220a4083
:1007e800d200ff2191400a00d2431a4010003b6812
:1007f8009b01ff221a40fb1d1b78190003230b40a5
:10080800db009a404ef60053cef20003f91d09783a
:100818000c000f212140083989080243063189005c
:0e0828005b1804331a60c046bd4603b090bd95
:020000040000fa
:10083600b0b584b000afb96011007b600e243b19df
:10084600021c1a800c203b180a1c1a8040f2df4357
:10085600c2f20003182108257a19521812781a7064
:1008660040f2b843c2f20003ba681a6040f2b443d9
:10087600c2f200037a681a6040f2d043c2f2000363
:100886003a1912881a8040f2d243c2f200033a188b
:1008960012881a807b195b181b782bb940f6000367
:1008a600c4f2002304221a750e23fb181b8833b1e9
:1008b600182340f2080cbc4463441b782bb140f665
:1008c6000003c4f2002302221a75bb681a7840f6a8
:1008d6000003c4f2002392b21a85182340f2080cd2
:1008e600bc4463441b7863b940f2d443c2f20003ac
:1008f6001b889bb201339ab240f2d443c2f2000382
:0e0906001a8001f09af9c046bd4604b0b0bd9b
:020000040000fa
:1009140080b500af40f60003c4f200231b7edbb2b7
:100924001a0002231340002b53d0c04640f60003a4
:10093400c4f200231b7edbb21a0001231340002bf8
:10094400f4d040f2b843c2f200031a6840f2d44330
:10095400c2f200031b889bb2d3181a7840f6000336
:10096400c4f2002392b21a8540f2d443c2f20003c7
:100974001b889bb201339ab240f2d443c2f2000303
:100984001a8040f2d443c2f200031b889ab240f2a8
:10099400d043c2f200031b889a421ad140f60003e6
:1009a400c4f2002302221a7540f2d443c2f20003b7
:1009b40000221a8040f2d243c2f200031b8833b1f2
:1009c40040f60003c4f2002304229a7501e001f00a
:0809d40046f9c046bd4680bd96
:020000040000fa
:1009dc0080b582b000af40f2df43c2f200031b7857
:1009ec006bb140f60003c4f200231b8d9ab2fb1dc1
:1009fc001a70fb1d1b781800fff7aefc49e0c046cf
:100a0c0040f60003c4f200231b7edbb21a00012364
:100a1c001340002bf4d040f60003c4f200231b8dce
:100a2c0099b240f2b443c2f200031a6840f2d643c2
:100a3c00c2f200031b889bb2d318cab21a7040f2e0
:100a4c00d643c2f200031b889bb201339ab240f228
:100a5c00d643c2f200031a8040f2d643c2f200031e
:100a6c001b889bb21a0040f2d243c2f200031b88cf
:100a7c00013b9a420dd140f60003c4f2002304223c
:100a8c001a7540f2d643c2f2000300221a8001f01c
:080a9c00e2f8bd4602b080bd86
:020000040000fa
:100aa40080b500af052000f0a5fe002140f2001043
:100ab40000f0dafe012140f2001000f0f0fe0a20fe
:100ac40000f098fe002140f2001000f0e8fe0a2039
:100ad40000f090fe012140f2001000f0e0fe14202e
:100ae40000f088fec0460e2144f2000000f0b8ff7a
:100af4000300002bf7d1002148f2000000f0cffee4
:100b040080235b02180001f042f8122000f028fd57
:100b1400012148f2000000f0c2fe80235b021800ad
:100b240000f09afcc0460e2144f2000000f098ff49
:100b34000300002bf7d180235b02180001f027f893
:100b44001a2000f014ff142000f00afd222000f007
:100b54000effd72000f004fd80235b02180000f094
:080b64007bfcc046bd4680bdcc
:020000040000fa
:100b6c0080b582b002af00f0cbfec04600f012fba5
:100b7c000300002bfad140f25843c2f2000341f2b9
:100b8c006031c0f200010022009210221d20fff7fc
:100b9c004cfec04600f048fe0300002bfad140f298
:100bac005843c2f2000341f28031c0f2000100222e
:100bbc00009207220e20fff738fec04600f034feec
:100bcc000300002bfad140f25843c2f2000341f269
:100bdc009031c0f200010122009201220120fff7a6
:100bec0024fec04600f020fe0300002bfad140f298
:100bfc005843c2f2000341f29431c0f200010022ca
:100c0c00009207220d20fff710fec04600f00cfeec
:0c0c1c000300002bfad1c046bd4680bd8d
:020000040000fa
:100c280080b582b000affff739ff80235b02180060
:100c380000f0abff242000f098fefff793ff80231d
:100c48005b02180000f006fc80235b02180000f02d
:100c58009cff262000f089febb1d00221a8007e0b9
:100c6800002000f07bfcbb1d1a88bb1d01321a80d6
:100c7800bb1d1b8841f287329342f1d980235b0266
:100c8800180000f0e7fbc0460e2144f2000000f017
:100c9800e5fe0300002bf7d180235b02180000f06b
:100ca80074ff202000f061fe80235b02180000f032
:100cb800d1fbc0460e2144f2000000f0cffe030035
:0c0cc800002bf7d1c046bd4602b080bd35
:020000040000fa
:100cd40080b500af41f60043c4f2000380224121f5
:100ce4009950c04641f60043c4f2000380229b5849
:100cf40040221340402bf5d141f20003c4f200031b
:100d040020225a6341f20003c4f200033f221a6313
:100d1400c04641f20003c4f200033c229b5cdbb2f8
:100d24001a0004231340042bf3d041f20003c4f24d
:100d340000032c2202219954c04641f20003c4f25c
:100d440000033c229b5cdbb21a0002231340022bfb
:100d5400f3d0c04641f20003c4f2000340229b5c7e
:100d6400dbb21a0003231340032bf3d1c046bd4664
:020d740080bd40
:020000040000fa
:100d760090b585b000af0200fb1d1a70bb1d0a1ca2
:100d86001a700e23fb18fa1d127852081a700d20dd
:100d96003b18fa1d127801210a401a700f217b18a0
:100da600ba1d12781a703b181b7823b17b187a1873
:100db600127812011a7043f20003c4f20003fa1dfe
:100dc600127840219b185b1801221a7043f2000327
:100dd600c4f200030e243a19127830219b185b18ce
:100de6001b78d8b243f20003c4f200033a19127812
:100df6000f21791809780143c8b230219b185b1876
:0c0e0600021c1a70c046bd4605b090bd2d
:020000040000fa
:100e120080b500af41f20003c4f200239b7adbb23b
:100e22001a0001231340d3b340f2a843c2f20003d5
:100e32001b685a1c40f2a843c2f200031a6040f237
:100e4200a843c2f200031b6840f6c412934212d1b7
:100e520040f2dc43c2f200031b78dbb2db43dab2be
:100e620040f2dc43c2f200031a7040f2a843c2f21d
:100e7200000300221a6041f20003c4f200230022a0
:100e82001a7541f20003c4f200239b7adab241f2ee
:100e92000003c4f2002301210a43d2b29a72c0466f
:040ea200bd4680bd0c
:020000040000fa
:100ea60080b582b000af0200fb1d1a700021102031
:100eb60000f0d9fc0021102000f0f0fc00212020d9
:100ec60000f0d1fc0021202000f0e8fc03210420e2
:100ed600fff74eff03210520fff74aff41f60043c7
:100ee600c4f20003ac224021995040f20043c4f200
:100ef6000023fa1d12781a7340f20043c4f200234d
:100f060000225a6040f20043c4f200238c22c1f250
:100f160030021a6003211620fff725fbc046bd46a6
:040f260002b080bdd8
:020000040000fa
:100f2a00f0b51600050002278369426987b002936b
:100f3a00d31a03939b1904910596019302ac3a00c4
:100f4a002100286800f00cfe019b984208d1ab688a
:100f5a00ea68ab619a18aa626b61300007b0f0bd0b
:100f6a0000280cda102200236968ab620a43ab61dd
:100f7a006b616a60022f12d06368f61aede7019b73
:100f8a001b1a01936368984202d9c01a0834013fb8
:100f9a0023681b1823606368181a6060cfe71e0075
:020faa00dbe783
:020000040000fa
:100fac0080b500af002000f091fc41f60043c4f284
:100fbc00000342f205121a6200f0f7fa0021012038
:100fcc0000f04efc00f0aaf800f023fe0220fff720
:100fdc0064ff00f00dfe00f081fbfff71ffec04622
:100fec0000f022fc0300002bfad10021002000f0bd
:100ffc0042f900f048fd00f0eafdc04640f2dc4347
:10100c00c2f200031b78dbb2002bf7d1c04640f2d2
:10101c00dc43c2f200031b78dbb2002bf7d0ece709
:020000040000fa
:10102c00f7b51e4c256801942b0065b100222900f0
:10103c00160013000f68bc460f6984450ad132b103
:10104c0017610b0010331800febd3900f2e7019b4d
:10105c001f60f6e7844503d9d3b11c68a44517d3a8
:10106c000a00002ff1d1002bedd01f001a6819696e
:10107c00121a1037102a05d91860381801610100ae
:10108c00103a02609d4206d1019b19603b00dae7e1
:10109c0016000b00e4e73161f8e7c046c4040020f9
:020000040000fa
:1010ac00f8b5846a05000f00160054b1ab6a6a6982
:1010bc009b1ab3420cd2320039002800fff72fffe5
:1010cc0005e000f02dfe03002000002beed0f8bd53
:1010dc00002ef0d02b0034331b785bb2002b1bdbc3
:1010ec003400dbb2621eb95c994212d12200390085
:1010fc002800fff714ffa042e9d33f19341b22004c
:10110c003900686900f044fe6b6930001c196c6191
:0c111c00dde71400002ae5d13400f0e704
:020000040000fa
:1011280080b500af41f60043c4f20003b02240216d
:1011380099500121022000f095fb0021012000f0c8
:1011480091fb03210020fff712fe03210120fff786
:101158000efe40f60003c4f200230e4a9a8140f6c0
:101168000003c4f200238422c4f210021a6040f67d
:101178000003c4f20023c02292025a6002211b20fd
:10118800fff7defa01211c20fff7dafac046bd4658
:0811980080bdc0462bf6ffffed
:020000040000fa
:1011a00080b584b002af40f25843c2f2000341f26e
:1011b0004831c0f200010022009207220420fff70c
:1011c0003afbc04600f036fb0300002bfad1fb1db2
:1011d00000221a7016e0fb1d1a7840f25843c2f242
:1011e00000039a5cfb1d197841f25033c0f20003f2
:1011f0005b5c9a4201d0012309e0fb1d1a78fb1dbc
:1012000001321a70fb1d1b78052be4d9002318004e
:06121000bd4602b080bde6
:020000040000fa
:1012160080b500af40f20043c4f2000300221a81f9
:1012260040f20043c4f200039b79dab240f2004375
:10123600c4f2000301210a43d2b29a7140f200437c
:10124600c4f200039b78dbb21a0003231340022b7f
:1012560011d040f20043c4f2000302229a70c04645
:1012660040f20043c4f200039b79dbb21a0001236b
:0c1276001340002bf4d0c046bd4680bde4
:020000040000fa
:1012820080b582b000af0200fb1d1a70bb1d0a1ca4
:101292001a7041f60043c4f20003b8229a5841f68c
:1012a2000043c4f2000340210a43b8215a5041f2dc
:1012b2000003c4f2002301221a7141f20003c4f2b6
:1012c20000231a6841f20003c4f2002340f2041121
:1012d2000a431a6003212220fff7d0f8c046bd4618
:0412e20002b080bd19
:020000040000fa
:1012e6007fb51600c2680d0013000091591e8b4190
:1012f600f31a019383680400039269460222006888
:10130600029300f01bfc002808dc18220823024088
:10131600534062681343636006000fe0019b8342fb
:10132600fad2a268c01ae3681018e26320642bb1ef
:10133600531ce3631378ad19013d2b70300004b0e4
:0213460070bd78
:020000040000fa
:1013480041540d0a0000c0460d0a4f4b0d0a00001b
:10135800415445300d0a000041542b434950535421
:101368004152543d22544350222c224950222c37ba
:101378003737370d0a00c04641542b43495053456f
:101388004e443d310d0a00006100c04641542b43d4
:0c1398004950434c4f53450d0a00c0461d
:020000040000fa
:1013a40000230e4a10b513600d4a0e4c13600e4a0a
:1013b40013600e4a13600e4a13600e4a536213619f
:1013c4000133936000f01ffd00f08dfb0a4b9c423b
:1013d40000d310bd08cc9847f8e7c046c0040020ed
:1013e4001404002000010000100400200804002060
:0c13f4000c04002018040020040100007c
:020000040000fa
:1014000037b5144d04002b6873b100f03bfc01901c
:1014100001a800f0adfc0f230f309843019900f0b4
:101420005ffc58b100232b6004b901340f230f3443
:101430009c4324b90c222000074b1a603ebd042cab
:1014400000d204242000fff7f1fd0028f6d0031f8e
:0c1450001c60f3e7d8050020c804002051
:020000040000fa
:10145c0080b582b000af78607b680121180000f085
:10146c001afa00f026fb40f2b043c2f2000300224d
:10147c001a6040f2dd43c2f2000300221a7040f2ff
:10148c00de43c2f2000300221a7040f2ce43c2f2d5
:10149c00000300221a8040f2cc43c2f20003002267
:0a14ac001a80c046bd4602b080bda4
:020000040000fa
:1014b60070b504000d0008b9002070bd43689b0696
:1014c60007d543698269934215d80023a362a361b5
:1014d6006361e16b236c994204d2c91a0122206828
:1014e60000f0bafc00232364e363002de4d02068f7
:1014f60000f0abfce1e70022c36a1100984763697c
:0a150600002be2d101204042d7e79c
:020000040000fa
:1015100010b541f29b63c0f20003984741f29b6310
:10152000c0f20003984700f06dfa40f20003c0f2e9
:1015300000037f2293434ef60052cef200029360e6
:1015400041f2a533c0f20003984741f29b63c0f219
:101550000003984741f29b63c0f200039847fff7ee
:0415600025fdfee780
:020000040000fa
:1015640080b582b000af0200fb1d1a70c04640f285
:101574000043c4f200231b7edbb21a000123134094
:10158400002bf4d040f20043c4f20023fa1d127879
:101594009a62c04640f20043c4f200231b7edbb2d1
:1015a4001a0001231340002bf4d0c046bd4602b0fc
:0215b40080bdf8
:020000040000fa
:1015b60080b582b000affb1d00221a700fe043f227
:1015c6000003c4f20003fa1d127840219b185b1831
:1015d60002221a70fb1d1a78fb1d01321a70fb1dc0
:1015e6001b781f2bebd943f20003c4f20003012240
:0c15f60052421a60c046bd4602b080bde3
:020000040000fa
:1016020080b582b000af0200fb1d1a70fb1d1b7873
:101612007f2b17d8fb1d1b781a001f231a401100bd
:101622004ef20013cef20003fa1d127852b25209a2
:1016320001208840010020329200d150bff34f8f29
:0c164200bff36f8fc046bd4602b080bdf4
:020000040000fa
:10164e0080b582b000af0200fb1d1a70fb1d1b7827
:10165e007f2b17d8fb1d1b781a001f231a40110071
:10166e004ef20013cef20003fa1d127852b2520956
:10167e0001208840010020329200d150bff34f8fdd
:0c168e00bff36f8fc046bd4602b080bda8
:020000040000fa
:02169a00704797
:020000040000fa
:10169c0070b5040016001d00022a1ad043689b0680
:1016ac0017d439b90db940f2004528000830fff7be
:1016bc00a1fe010020236268a16013436360230034
:1016cc00e5603433ff22012e00d10a221a70024b3e
:0c16dc00e362002070bdc046ad100000ad
:020000040000fa
:1016e80080b500af002148f2000000f0bbf80121ee
:1016f80040f2001000f0b6f880235b0200211800c9
:1017080000f0b0f8012144f2000000f0abf88023ab
:101718005b020121180000f0c0f8012148f2000026
:0a17280000f0bbf8c046bd4680bdce
:020000040000fa
:1017320080b582b000af0200fb1d1a70fb1d1b7842
:101742007f2b12d8fb1d1b781a001f231a40110091
:101752004ef20013cef20003fa1d127852b2520971
:101762000120884001009200d150c046bd4602b01f
:0217720080bd38
:020000040000fa
:1017740080b582b000af0200fb1d1a70fb1d1b7800
:101784007f2b12d8fb1d1b781a001f231a4011004f
:101794004ef20013cef20003fa1d127852b252092f
:1017a4000120884001009200d150c046bd4602b0dd
:0217b40080bdf6
:020000040000fa
:0217b600fee74c
:020000040000fa
:1017b80010b5054c227832b9044b13b1044800e047
:1017c80000bf0123237010bd780400200000000032
:1017d80000000000034b10b51bb10349034800e0ab
:1017e80000bf10bd000000007c04002000000000c5
:020000040000fa
:1017f80080b584b000af78600023fb600ee0002362
:10180800bb6003e0c046bb680133bb60bb6840f205
:1018180098729342f6d9fb680133fb60fa687b68db
:0c1828009a42ecd3c046bd4604b080bd1f
:020000040000fa
:1018340080b500af40f60003c4f200239b7ddbb209
:101844001a00042313404bb940f60003c4f20023ea
:101854009b7ddbb21a00022313400bb1012300e08d
:0818640000231800bd4680bd01
:020000040000fa
:10186c0080b582b000af78600a00fb1c1a70fb1cbc
:10187c001b7833b143f20003c4f200037a685a6058
:10188c0005e043f20003c4f200037a689a60c04694
:06189c00bd4602b080bd54
:020000040000fa
:1018a20080b582b000af78600a00fb1c1a70fb1c86
:1018b2001b7833b143f20003c4f200037a689a61e1
:1018c20005e043f20003c4f200037a685a61c0469d
:0618d200bd4602b080bd1e
:020000040000fa
:1018d80080b582b000af786044f20003c4f2001310
:1018e80004225a60fff793fc00f026f800f0d6f9be
:1018f80000f05ef900f094fa00f07bfac046bd46ad
:0419080002b080bdec
:020000040000fa
:10190c0080b582b002af40f25843c2f2000341f2fc
:10191c005831c0f200010022009207220620fef787
:10192c0084ffc046fff780ff0300002bfad1c046ae
:04193c00bd4680bd67
:020000040000fa
:1019400080b500af40f2e843c2f200031b681b6899
:101950000021180000f03ffa40f2cc53c2f200031d
:101960001b681b680021180000f035fac046bd4610
:0219700080bd38
:020000040000fa
:1019720080b582b000af0200fb1d1a70002148f250
:101982000000fff78dfffb1d1b781800fff7e9fd34
:10199200012148f20000fff783ffc046bd4602b0b6
:0219a20080bd06
:020000040000fa
:1019a40080b500af41f60043c4f2000340f20712d1
:1019b400c0f202021a62c04641f60043c4f20003b8
:1019c4005b6804221340042bf6d0c046bd4680bd9c
:020000040000fa
:1019d40080b500af41f60043c4f2000340f20512a3
:1019e400c0f204025a62c04641f60043c4f2000346
:1019f4005b6808221340082bf6d0c046bd4680bd64
:020000040000fa
:101a040010b50948016811b9436803b910bd040051
:101a14008368064a9bb20c349b009b5842682000a2
:101a2400984780002018ede714010000881d00008d
:020000040000fa
:101a3400064b1a680ab9064a1a60064a116809b9b7
:101a4400054911601a68054b1a6070479c04002010
:101a5400e005002098040020e00700209404002002
:020000040000fa
:101a640080b582b000af78600a00fb1c1a7043f2a4
:101a74000003c4f200031b6a7a681a40fb1c1b783b
:0e1a8400da401300dbb21800bd4602b080bd90
:020000040000fa
:101a920080b500af41f20003c4f200235b7adab2f0
:101aa20041f20003c4f2002301210a43d2b25a7266
:0c1ab2002220fff73dfec046bd4680bd6f
:020000040000fa
:101abe0080b500af40f20043c4f200231b7ddab2c2
:101ace0040f20043c4f2002301210a43d2b21a7538
:0c1ade001620fff78ffdc046bd4680bdfe
:020000040000fa
:021aea00704743
:020000040000fa
:101aec0070b5084c050023680bb9fff79dff064a3b
:101afc00206812684519aa4201d3256070bd0120e7
:0c1b0c004042fbe79404002098040020f5
:020000040000fa
:101b1800020000234832d356591e0b431370042386
:101b2800426813402bb11023134343600120404205
:0a1b380070470364c3631800fae766
:020000040000fa
:101b4200f7b5002507000c002e000192019b9e4272
:101b520001db2800febd62682168380000f0cdf884
:081b620001362d180834f1e7eb
:020000040000fa
:101b6a00f7b5002507000c002e000192019b9e424a
:101b7a0001db2800febd62682168380000f0c5f864
:081b8a0001362d180834f1e7c3
:020000040000fa
:101b920080b582b000af78607a6840f2b043c2f29a
:101ba20000031a607b6800211800fff779fec04627
:061bb200bd4602b080bd3b
:020000040000fa
:101bb80080b500af44f20003c4f2001302225a6059
:101bc80044f20003c4f2001301221a72c046bd4653
:021bd80080bdce
:020000040000fa
:101bda0080b500af41f20003c4f200231a6841f253
:101bea000003c4f2002302210a431a60c046bd461c
:021bfa0080bdac
:020000040000fa
:101bfc0080b500af40f20043c4f200231a6840f2f3
:101c0c000043c4f2002302210a431a60c046bd46b9
:021c1c0080bd89
:020000040000fa
:101c1e0080b500af40f60003c4f200231a6840f608
:101c2e000003c4f2002302210a431a60c046bd46d7
:021c3e0080bd67
:020000040000fa
:101c400080b500af40f60003c4f2002306229a7567
:101c50001b20fff78ffd1c20fff78cfdc046bd4603
:021c600080bd45
:020000040000fa
:101c620080b500af40f60003c4f2002306221a75c5
:101c72001b20fff7ebfc1c20fff7e8fcc046bd462b
:021c820080bd23
:020000040000fa
:101c840010b5054c22680ab9fff7d2fe034b186859
:101c94002368c01a10bdc046940400209804002094
:020000040000fa
:101ca40080b500af00f04cf800f055f8fff790fe57
:0e1cb400fff70ef8fff774fec046bd4680bd78
:020000040000fa
:101cc200002310b5934206d103201840421e9041d2
:0e1cd2009b08c01810bdc45ccc540133f2e76f
:020000040000fa
:101ce000054a10b5146800231cb910600361016037
:0c1cf0000133180010bdc046c4040020e1
:020000040000fa
:101cfc0080b584b000aff860b9607a6001235b42b4
:081d0c001800bd4604b080bdc3
:020000040000fa
:101d140080b584b000aff860b9607a6001235b429b
:081d24001800bd4604b080bdab
:020000040000fa
:101d2c0010b50400fff7f2fe28b9a368e268a361be
:081d3c0063619b18a36210bd56
:020000040000fa
:101d440080b500af41f20003c4f2000302221a7608
:061d5400c046bd4680bd43
:020000040000fa
:101d5a0080b500af41f20043c4f2000300221a74b6
:061d6a00c046bd4680bd2d
:020000040000fa
:101d7000006810b5002801da002010bdfff7b6fe9c
:061d8000431cfad1f8e754
:020000040000fa
:021d86007047a4
:020000040000fa
:101d8800e91d0000c31c0000571e0000571e00007c
:041d9800571e0000d2
:020000040000fa
:101d9c0010b52ab10023cc5cc45401339342fad160
:041dac0010bdc04660
:020000040000fa
:101db00010b500f043f8024b1860586010bdc046e3
:041dc000a00400205b
:020000040000fa
:101dc40080b500af40f27643c2f200031b88bd46e3
:021dd40080bdd0
:020000040000fa
:101dd6004a424a4110b5520040f20043fff75bfc0d
:021de60010bd2e
:020000040000fa
:101de8008a18914201d10020704700230b700131fd
:021df800f7e70b
:020000040000fa
:101dfa0080b500afbff35f8f62b6c046bd4680bdf7
:020000040000fa
:101e0a0010b5fff7d0fffff7b9fffff7b7ff10bd17
:020000040000fa
:0e1e1a0080b500affef7f8ffc046bd4680bda4
:020000040000fa
:0a1e280080b500afc046bd4680bd86
:020000040000fa
:0a1e320010b50068fff76dff10bd4a
:020000040000fa
:081e3c0000487047500500202a
:020000040000fa
:061e440080b500affee7cf
:020000040000fa
:061e4a0080b500affee7c9
:020000040000fa
:061e500001204042704732
:020000040000fa
:041e560000207047b1
:020000040000fa
:041e5a0000207047ad
:020000040000fa
:041e5e0000207047a9
:020000040000fa
:021e62007047c7
:020000040000fa
:0200000400807a
:044000007f438fb0bb
:020000040000fa
:0200000400807a
:04400400bbfcffff03
:020000040000fa
:0200000400807a
:04c0040000ffffff3b
:020000040000fa
:0200000400807a
:04c04000ffffffff00
:020000040000fa
:0200000400807a
:04c04400fffffffffc
:020000040000fa
:0200000400807a
:04c04800fffffffff8
:020000040000fa
:0200000400807a
:04c04c00fffffffff4
:00000001FF
