:020000040000fa
:10000000f00f0020f9130000851c00008b1c00007d
:1000100000000000000000000000000000000000e0
:100020000000000000000000000000002b12000093
:1000300000000000000000002b1200002b12000046
:100040002b1200002b1200002b1200002b120000bc
:100050002b1200002b1200002b1200002b120000ac
:100060002b1200002b1200002b1200002b1200009c
:100070002b1200002b1200002b1200002b1200008c
:100080002b1200002b1200002b1200002b1200007c
:100090002b1200002b120000bf0700002b120000e3
:1000a0002b1200002b1200002b1200006503000031
:1000b0002b1200002b1200000000000000000000c6
:1000c00000000000000000005b1c00002b1200007c
:1000d0002b1200002b1200002b1200002b1200002c
:1000e0002b1200002b1200002b1200002b1200001c
:0400f0002b120000cf
:020000040000fa
:1000f400f8b5c046f8bc08bc9e46704779160000a7
:10010400f8b5c046f8bc08bc9e46704755160000ba
:020000040000fa
:10011400bc0400201c00000000000000ec040020cf
:10012400040000000000000022050020010000007f
:100134000000000010050020020000000000000084
:10014400120500200400000000000000f00400205c
:10015400040000000000000023050020020000004d
:1001640000000000f40400200c0000000000000067
:1001740016050020080000000000000025050020ee
:100184000100000000000000200600200200000022
:1001940001000000881300001e050020020000007a
:1001a4000000000014060020080000000100000008
:1001b400b405b405b4056c0220050020020000005b
:1001c40000000000260500200200000000000000de
:1001d4000804002064000000000000000005002066
:1001e40004000000000000006c0400205000000027
:1001f40000000000280500206c0000000100000041
:1002040034050020300500203405002000000000e3
:100214002500000008000020000400000000000089
:1002240000000000000000000000000000000000ca
:100234000000000000000000000000009b1c000003
:1002440000000000000000000000000000000000aa
:10025400c9110000000000000000000000000000c0
:10026400000000000000000000000000000000206a
:100274000804000000000000f40500202000000035
:100284000100000001000000030000000000000065
:10029400000000000000000000000000000000005a
:1002a400e4040020e4040020080000000000000032
:1002b4000405002004000000000000009405002054
:1002c40060000000010000000100000003000000c5
:1002d400000000000000000000000000000000001a
:1002e400000000009f130000000000000000000058
:1002f40000000000731c00005319000000000000ff
:1003040000000000000000000000000000000000e9
:1003140000000000000000000000000000000000d9
:1003240000000000000000001c0600200400000083
:100334000100000001000000080500200800000082
:1003440000000000d80400200c00000000000000a1
:100354000000000000000000666666666666666669
:020000040000fa
:1003640080b582b000af40f22553c2f200031b787f
:100374006bb140f60003c4f200231b8d9ab2fb1d3f
:100384001a70fb1d1b78180000f0a7f8a2e040f6d5
:100394000003c4f200231b7edbb21a0004231340c3
:1003a400002b46d040f21c53c2f200031b889ab2c1
:1003b40040f21853c2f200031b889a420cd140f653
:1003c4000003c4f2002304221a7540f21c53c2f243
:1003d400000300221a802ce0c04640f60003c4f259
:1003e40000231b7edbb21a0001231340002bf4d040
:1003f40040f60003c4f200231b8d99b240f2f84387
:10040400c2f200031a6840f21c53c2f200031b88b4
:100414009bb2d318cab21a7040f21c53c2f2000342
:100424001b889bb201339ab240f21c53c2f2000300
:100434001a8040f60003c4f200231b7edbb21a00cc
:1004440002231340002b45d040f21a53c2f200039a
:100454001b889ab240f21653c2f200031b889a42d8
:100464000cd140f60003c4f2002302221a7540f2b4
:100474001a53c2f2000300221a802be0c04640f651
:100484000003c4f200231b7edbb21a0001231340d5
:10049400002bf4d040f2fc43c2f200031a6840f28d
:1004a4001a53c2f200031b889bb2d3181a7840f681
:1004b4000003c4f2002392b21a8540f21a53c2f226
:1004c40000031b889bb201339ab240f21a53c2f262
:0a04d40000031a80bd4602b080bd8f
:020000040000fa
:1004de0080b582b000af0200fb1d1a7040f22653a9
:1004ee00c2f200031b78002b5fd0fb1d1b78180097
:1004fe0000f0a5ff40f22053c2f200031b88013327
:10050e009ab240f22053c2f200031a8040f22753ef
:10051e00c2f200031b781a0040f21463c2f2000309
:10052e005200d25a40f22053c2f200031b889a4264
:10053e0011d140f22053c2f2000300221a8040f281
:10054e002753c2f200031b780133dab240f227536d
:10055e00c2f200031a7040f21e53c2f200031b884f
:10056e0001339ab240f21e53c2f200031a8040f2d7
:10057e001e53c2f200031a8840f22063c2f2000337
:10058e001b889a4222d140f60003c4f200230422b3
:10059e001a7580235b02180000f0cdfe40f227533f
:1005ae00c2f2000300221a7010e040f22653c2f28b
:1005be0000031b785bb9fb1d1b783a2b07d140f269
:1005ce002653c2f2000301221a7000e0c046bd4657
:0405de0002b080bd2a
:020000040000fa
:1005e20090b583b000af02003960fb1d1a70fb1d8d
:1005f2001b787f2b2fd84ef20013cef20003fa1d88
:10060200127852b29208c0329200d358fa1d127870
:10061200110003220a40d200ff2191400a00d24376
:100622001a4010003b689b01ff221a40fb1d1b78f9
:10063200190003230b40db009a4011004ef2001315
:10064200cef20003fa1d127852b292080143c03270
:100652009200d15037e04ef60053cef20003fa1d5d
:10066200127811000f220a40083a920806329200cc
:100672009b1804331b68fa1d1278110003220a40ea
:10068200d200ff2191400a00d2431a4010003b6879
:100692009b01ff221a40fb1d1b78190003230b400c
:1006a200db009a404ef60053cef20003f91d0978a2
:1006b2000c000f21214008398908024306318900c4
:0e06c2005b1804331a60c046bd4603b090bdfd
:020000040000fa
:1006d00090b583b000af02003960fb1d1a70fb1d9e
:1006e0001b787f2b2fd84ef20013cef20003fa1d99
:1006f000127852b29208c0329200d358fa1d127882
:10070000110003220a40d200ff2191400a00d24387
:100710001a4010003b689b01ff221a40fb1d1b780a
:10072000190003230b40db009a4011004ef2001326
:10073000cef20003fa1d127852b292080143c03281
:100740009200d15037e04ef60053cef20003fa1d6e
:10075000127811000f220a40083a920806329200dd
:100760009b1804331b68fa1d1278110003220a40fb
:10077000d200ff2191400a00d2431a4010003b688a
:100780009b01ff221a40fb1d1b78190003230b401d
:10079000db009a404ef60053cef20003f91d0978b3
:1007a0000c000f21214008398908024306318900d5
:0e07b0005b1804331a60c046bd4603b090bd0e
:020000040000fa
:1007be0080b500af40f20043c4f200231b7edbb2d3
:1007ce001a0001231340002b44d040f22353c2f2ef
:1007de0000031b78dbb2d3b940f22453c2f20003fc
:1007ee001b78dbb29bb140f2f043c2f200031a68f1
:1007fe0040f21453c2f200031b889bb2d3181b782d
:10080e00dab240f20043c4f200239a6215e040f2dd
:10081e002353c2f200031b78dbb213b101f0ebf9e4
:10082e000be040f2f043c2f200031b681b78dab211
:10083e0040f20043c4f200239a6240f21453c2f213
:10084e0000031b889bb201339ab240f21453c2f2da
:10085e0000031a8040f21453c2f200031b889ab2ae
:10086e0040f21253c2f200031b889bb29a4213d17c
:10087e00c04640f20043c4f200231b7edbb21a00d6
:10088e0001231340002bf4d040f2f443c2f20003d4
:0e089e001b68180000f04ffdc046bd4680bd2f
:020000040000fa
:1008ac0090b583b000af02003960fb1d1a70fb1dc0
:1008bc001b787f2b2fd84ef20013cef20003fa1dbb
:1008cc00127852b29208c0329200d358fa1d1278a4
:1008dc00110003220a40d200ff2191400a00d243aa
:1008ec001a4010003b689b01ff221a40fb1d1b782d
:1008fc00190003230b40db009a4011004ef2001349
:10090c00cef20003fa1d127852b292080143c032a3
:10091c009200d15037e04ef60053cef20003fa1d90
:10092c00127811000f220a40083a920806329200ff
:10093c009b1804331b68fa1d1278110003220a401d
:10094c00d200ff2191400a00d2431a4010003b68ac
:10095c009b01ff221a40fb1d1b78190003230b403f
:10096c00db009a404ef60053cef20003f91d0978d5
:10097c000c000f21214008398908024306318900f7
:0e098c005b1804331a60c046bd4603b090bd30
:020000040000fa
:10099a0080b500af052000f078fe002140f200107b
:1009aa0000f0adfe012140f2001000f0c3fe0a2063
:1009ba0000f06bfe002140f2001000f0bbfe0a209e
:1009ca0000f063fe012140f2001000f0b3fe142093
:1009da0000f05bfec0460e2144f2000000f071fff9
:1009ea000300002bf7d1002148f2000000f0a2fe1c
:1009fa0080235b02180000f0fbff122000f021fdab
:100a0a00012148f2000000f095fe80235b021800e5
:100a1a0000f093fcc0460e2144f2000000f051ffa2
:100a2a000300002bf7d180235b02180000f0e0ffdf
:100a3a001a2000f0cdfe142000f003fd222000f061
:100a4a00c7fed72000f0fdfc80235b02180000f0ef
:080a5a0074fcc046bd4680bdde
:020000040000fa
:100a620090b585b000afb96011007b600e243b19d0
:100a7200021c1a800c203b180a1c1a8040f22553d3
:100a8200c2f20003182240f2080cbc4462441278fd
:100a92001a7040f2fc43c2f20003ba681a6040f2d4
:100aa200f843c2f200037a681a6040f21653c2f2a7
:100ab20000033a1912881a8040f21853c2f2000356
:100ac20004003a1812881a8001f01bf83b191b889f
:100ad2002bb940f60003c4f2002304221a750e2338
:100ae200fb181b882bb940f60003c4f20023022234
:100af2001a75bb681a7840f60003c4f2002392b25a
:100b02001a8540f21a53c2f200031b889bb20133ca
:100b12009ab240f21a53c2f200031a80c046bd468e
:040b220005b090bdcd
:020000040000fa
:100b260080b500af41f60043c4f2000380224121a4
:100b36009950c04641f60043c4f2000380229b58f8
:100b460040221340402bf5d141f20003c4f20003ca
:100b560020225a6341f20003c4f200033f221a63c3
:100b6600c04641f20003c4f200033c229b5cdbb2a8
:100b76001a0004231340042bf3d041f20003c4f2fd
:100b860000032c2202219954c04641f20003c4f20c
:100b960000033c229b5cdbb21a0002231340022bab
:100ba600f3d0c04641f20003c4f2000340229b5c2e
:100bb600dbb21a0003231340032bf3d1c046bd4614
:020bc60080bdf0
:020000040000fa
:100bc80090b585b000af0200fb1d1a70bb1d0a1c52
:100bd8001a700e23fb18fa1d127852081a700d208d
:100be8003b18fa1d127801210a401a700f217b1850
:100bf800ba1d12781a703b181b7823b17b187a1823
:100c0800127812011a7043f20003c4f20003fa1dad
:100c1800127840219b185b1801221a7043f20003d6
:100c2800c4f200030e243a19127830219b185b187d
:100c38001b78d8b243f20003c4f200033a191278c1
:100c48000f21791809780143c8b230219b185b1825
:0c0c5800021c1a70c046bd4605b090bddd
:020000040000fa
:100c640080b500af41f20003c4f200239b7adbb2eb
:100c74001a0001231340d3b340f2ec43c2f2000341
:100c84001b685a1c40f2ec43c2f200031a6040f2a3
:100c9400ec43c2f200031b6840f6c412934212d123
:100ca40040f22253c2f200031b78dbb2db43dab218
:100cb40040f22253c2f200031a7040f2ec43c2f233
:100cc400000300221a6041f20003c4f20023002250
:100cd4001a7541f20003c4f200239b7adab241f29e
:100ce4000003c4f2002301210a43d2b29a72c0461f
:040cf400bd4680bdbc
:020000040000fa
:100cf80080b582b000affff74cfe00f047f98023c3
:100d08005b02180000f075fe262000f062fdbb1d96
:100d180000221a8007e0002000f094fbbb1d1a880f
:100d2800bb1d01321a80bb1d1b8841f287329342da
:100d3800f1d980235b02180000f000fbc0460e21a9
:100d480044f2000000f0befd0300002bf7d1802321
:100d58005b02180000f04dfe202000f03afd8023d1
:100d68005b02180000f0eafac0460e2144f20000c7
:100d780000f0a8fd0300002bf7d1c046bd4602b025
:020d880080bd2c
:020000040000fa
:100d8a0080b500af002000f0f0fc41f60043c4f249
:100d9a00000342f205121a6200f07cfb00210120d6
:100daa0000f0adfc00f03dfa00f068fe022000f011
:100dba0029f800f052fe00f0e0fbfff798ff00214f
:100dca00002000f0caf900f093fd00f035fec0469d
:100dda0040f22253c2f200031b78dbb2002bf7d198
:100dea000121012000f0a6fcc04640f22253c2f2c3
:100dfa0000031b78dbb2002bf7d00021012000f0a2
:040e0a0099fce4e784
:020000040000fa
:100e0e0080b582b000af0200fb1d1a7000211020c9
:100e1e0000f073fc0021102000f08afc002120203d
:100e2e0000f06bfc0021202000f082fc0321042046
:100e3e00fff7c3fe03210520fff7bffe41f6004377
:100e4e00c4f20003ac224021995040f20043c4f298
:100e5e000023fa1d12781a7340f20043c4f20023e5
:100e6e0000225a6040f20043c4f200238c22c1f2e9
:100e7e0030021a6003211620fff723fcc046bd4640
:040e8e0002b080bd71
:020000040000fa
:100e9200f0b51600050002278369426987b0029304
:100ea200d31a03939b1904910596019302ac3a005d
:100eb2002100286800f08cfd019b984208d1ab68a4
:100ec200ea68ab619a18aa626b61300007b0f0bda4
:100ed20000280cda102200236968ab620a43ab6176
:100ee2006b616a60022f12d06368f61aede7019b0c
:100ef2001b1a01936368984202d9c01a0834013f51
:100f020023681b1823606368181a6060cfe71e000d
:020f1200dbe71b
:020000040000fa
:100f1400f7b51e4c256801942b0065b10022290009
:100f2400160013000f68bc460f6984450ad132b11c
:100f340017610b0010331800febd3900f2e7019b66
:100f44001f60f6e7844503d9d3b11c68a44517d3c1
:100f54000a00002ff1d1002bedd01f001a68196987
:100f6400121a1037102a05d91860381801610100c7
:100f7400103a02609d4206d1019b19603b00dae7fa
:100f840016000b00e4e73161f8e7c04608050020cd
:020000040000fa
:100f940080b582b002af40f20843c2f2000341f2ce
:100fa4002c11c0f200010022009206222720fff734
:100fb40056fdc04600f08afb0300002bfad140f234
:100fc4000843c2f2000341f25411c0f200010022ae
:100fd400009201220e20fff742fdc04600f076fb8e
:100fe4000300002bfad140f20843c2f200030122ad
:100ff4000092012200210120fff731fdc04600f0dc
:0e10040065fb0300002bfad1c046bd4680bd3f
:020000040000fa
:10101200f8b5846a05000f00160054b1ab6a6a691c
:101022009b1ab3420cd2320039002800fff730ff7e
:1010320005e000f09afd03002000002beed0f8bd81
:10104200002ef0d02b0034331b785bb2002b1bdb5d
:101052003400dbb2621eb95c994212d1220039001f
:101062002800fff715ffa042e9d33f19341b2200e5
:101072003900686900f0b1fd6b6930001c196c61c0
:0c108200dde71400002ae5d13400f0e79f
:020000040000fa
:10108e0080b500af40f20043c4f2000300221a8183
:10109e0040f20043c4f200039b79dab240f20043ff
:1010ae00c4f2000301210a43d2b29a7140f2004306
:1010be00c4f200039b78dbb21a0003231340022b09
:1010ce0011d040f20043c4f2000302229a70c046cf
:1010de0040f20043c4f200039b79dbb21a000123f5
:0c10ee001340002bf4d0c046bd4680bd6e
:020000040000fa
:0210fa0070473d
:020000040000fa
:1010fc0041540d0a0000c046415445300d0a000011
:10110c0041542b47534c503d313030300d0a0000c8
:10111c0041542b4349505354415455530d0a00002c
:10112c0041542b43495053544152543d2254435043
:10113c00222c2231302e302e302e3832222c504f91
:10114c0052544e554d0d0a0041542b4349505345b2
:08115c004e443d310d0a000074
:020000040000fa
:1011640080b582b000af0200fb1d1a70bb1d0a1cc3
:101174001a7041f60043c4f20003b8229a5841f6ab
:101184000043c4f2000340210a43b8215a5041f2fb
:101194000003c4f2002301221a7141f20003c4f2d5
:1011a40000231a6841f20003c4f2002340f2041140
:1011b4000a431a6003212220fff711fac046bd46f4
:0411c40002b080bd38
:020000040000fa
:1011c8007fb51600c2680d0013000091591e8b41af
:1011d800f31a0193836804000392694602220068a7
:1011e800029300f0defb002808dc182208230240e6
:1011f800534062681343636006000fe0019b83421b
:10120800fad2a268c01ae3681018e26320642bb10e
:10121800531ce3631378ad19013d2b70300004b003
:0212280070bd97
:020000040000fa
:02122a00fee7dd
:020000040000fa
:10122c0080b500af41f60043c4f20003b022402168
:10123c00995003210020fff7c1fc03210120fff787
:10124c00bdfc40f60003c4f200230c4a9a8140f620
:10125c000003c4f200238422c4f210021a6040f688
:10126c000003c4f20023c02292025a6002211b2008
:10127c00fff716fbc046bd4680bdc046098affff7e
:020000040000fa
:10128c0000230e4a10b513600d4a0e4c13600e4a23
:10129c0013600e4a13600e4a13600e4a53621361b8
:1012ac000133936000f0cbfc00f03ff90a4b9c42f9
:1012bc0000d310bd08cc9847f8e7c04604050020c1
:1012cc007804002000010000740400206c0400204d
:0c12dc00700400207c04002004010000cd
:020000040000fa
:1012e80037b5144d04002b6873b100f0d9fb019099
:1012f80001a800f059fc0f230f309843019900f022
:101308000bfc58b100232b6004b901340f230f34b0
:101318009c4324b90c222000074b1a603ebd042cc4
:1013280000d204242000fff7f1fd0028f6d0031fa7
:0c1338001c60f3e71c0600200c050020e0
:020000040000fa
:1013440080b582b000af78607b680121180000f09e
:10135400f4f900f0e6fa40f2f443c2f2000300228a
:101364001a6040f22353c2f2000300221a7040f2c2
:101374002453c2f2000300221a7040f21453c2f242
:10138400000300221a8040f21253c2f2000300222a
:0a1394001a80c046bd4602b080bdbd
:020000040000fa
:10139e0070b504000d0008b9002070bd43689b06af
:1013ae0007d543698269934215d80023a362a361ce
:1013be006361e16b236c994204d2c91a0122206841
:1013ce0000f066fc00232364e363002de4d0206864
:1013de0000f057fce1e70022c36a110098476369e9
:0a13ee00002be2d101204042d7e7b6
:020000040000fa
:1013f80010b541f2fb03c0f20003984741f2fb032a
:10140800c0f20003984700f02dfa40f20003c0f242
:1014180000037f2293434ef60052cef200029360ff
:1014280041f28d23c0f20003984741f2fb03c0f25a
:101438000003984741f2fb03c0f200039847fff707
:04144800a0fcfee71f
:020000040000fa
:10144c0080b582b000af0200fb1d1a70c04640f29e
:10145c000043c4f200231b7edbb21a0001231340ad
:10146c00002bf4d040f20043c4f20023fa1d127892
:10147c009a62c04640f20043c4f200231b7edbb2ea
:10148c001a0001231340002bf4d0c046bd4602b015
:02149c0080bd11
:020000040000fa
:10149e0080b582b000affb1d00221a700fe043f240
:1014ae000003c4f20003fa1d127840219b185b184a
:1014be0002221a70fb1d1a78fb1d01321a70fb1dd9
:1014ce001b781f2bebd943f20003c4f20003012259
:0c14de0052421a60c046bd4602b080bdfc
:020000040000fa
:1014ea0080b582b000af0200fb1d1a70fb1d1b788d
:1014fa007f2b17d8fb1d1b781a001f231a401100d7
:10150a004ef20013cef20003fa1d127852b25209bb
:10151a0001208840010020329200d150bff34f8f42
:0c152a00bff36f8fc046bd4602b080bd0d
:020000040000fa
:021536007047fc
:020000040000fa
:1015380070b5040016001d00022a1ad043689b06e5
:1015480017d439b90db940f2004528000830fff723
:10155800c7fe010020236268a16013436360230073
:10156800e5603433ff22012e00d10a221a70024ba3
:0c157800e362002070bdc04613100000ac
:020000040000fa
:1015840080b500af002148f2000000f0bbf8012153
:1015940040f2001000f0b6f880235b02002118002e
:1015a40000f0b0f8012144f2000000f0abf8802311
:1015b4005b020121180000f0c0f8012148f200008c
:0a15c40000f0bbf8c046bd4680bd34
:020000040000fa
:1015ce0080b582b000af0200fb1d1a70fb1d1b78a8
:1015de007f2b12d8fb1d1b781a001f231a401100f7
:1015ee004ef20013cef20003fa1d127852b25209d7
:1015fe000120884001009200d150c046bd4602b085
:02160e0080bd9d
:020000040000fa
:1016100080b582b000af0200fb1d1a70fb1d1b7865
:101620007f2b12d8fb1d1b781a001f231a401100b4
:101630004ef20013cef20003fa1d127852b2520994
:101640000120884001009200d150c046bd4602b042
:0216500080bd5b
:020000040000fa
:021652007047df
:020000040000fa
:1016540010b5054c227832b9044b13b1044800e0ac
:1016640000bf0123237010bdbc0400200000000053
:1016740000000000034b10b51bb10349034800e010
:1016840000bf10bd00000000c004002000000000e6
:020000040000fa
:1016940080b584b000af78600023fb600ee00023c7
:1016a400bb6003e0c046bb680133bb60bb6840f26b
:1016b40098729342f6d9fb680133fb60fa687b6841
:0c16c4009a42ecd3c046bd4604b080bd85
:020000040000fa
:1016d00080b500af40f60003c4f200239b7ddbb26f
:1016e0001a00042313404bb940f60003c4f2002350
:1016f0009b7ddbb21a00022313400bb1012300e0f3
:0817000000231800bd4680bd66
:020000040000fa
:1017080080b582b000af78600a00fb1c1a70fb1c21
:101718001b7833b143f20003c4f200037a685a60bd
:1017280005e043f20003c4f200037a689a60c046f9
:06173800bd4602b080bdb9
:020000040000fa
:10173e0080b582b000af78600a00fb1c1a70fb1ceb
:10174e001b7833b143f20003c4f200037a689a6146
:10175e0005e043f20003c4f200037a685a61c04602
:06176e00bd4602b080bd83
:020000040000fa
:1017740080b582b000af786044f20003c4f2001375
:1017840004225a60fff781fc00f00cf800f09af98b
:1017940000f044f900f066fa00f04dfac046bd4688
:0417a40002b080bd52
:020000040000fa
:1017a80080b500af40f22c53c2f200031b681b68df
:1017b8000021180000f02bfa40f21063c2f2000377
:1017c8001b681b680021180000f021fac046bd46be
:0217d80080bdd2
:020000040000fa
:1017da0080b582b000af0200fb1d1a70002148f2ea
:1017ea000000fff7a7fffb1d1b781800fff729fe73
:1017fa00012148f20000fff79dffc046bd4602b036
:02180a0080bd9f
:020000040000fa
:10180c0080b500af41f60043c4f2000340f207126a
:10181c00c0f202021a62c04641f60043c4f2000351
:10182c005b6804221340042bf6d0c046bd4680bd35
:020000040000fa
:10183c0080b500af41f60043c4f2000340f205123c
:10184c00c0f204025a62c04641f60043c4f20003df
:10185c005b6808221340082bf6d0c046bd4680bdfd
:020000040000fa
:10186c0010b50948016811b9436803b910bd0400eb
:10187c008368064a9bb20c349b009b58426820003c
:10188c00984780002018ede714010000c81b0000e9
:020000040000fa
:10189c00064b1a680ab9064a1a60064a116809b951
:1018ac00054911601a68054b1a607047e004002066
:1018bc0028060020dc04002028080020d804002082
:020000040000fa
:1018cc0080b582b000af78600a00fb1c1a7043f23e
:1018dc000003c4f200031b6a7a681a40fb1c1b78d5
:0e18ec00da401300dbb21800bd4602b080bd2a
:020000040000fa
:1018fa0080b500af41f20003c4f200235b7adab28a
:10190a0041f20003c4f2002301210a43d2b25a72ff
:0c191a002220fff757fec046bd4680bdee
:020000040000fa
:1019260080b500af40f20043c4f200231b7ddab25b
:1019360040f20043c4f2002301210a43d2b21a75d1
:0c1946001620fff7cffdc046bd4680bd57
:020000040000fa
:021952007047dc
:020000040000fa
:1019540070b5084c050023680bb9fff79dff064ad4
:10196400206812684519aa4201d3256070bd012080
:0c1974004042fbe7d8040020dc04002007
:020000040000fa
:10198000020000234832d356591e0b431370042320
:10199000426813402bb1102313434360012040429f
:0a19a00070470364c3631800fae700
:020000040000fa
:1019aa00f7b5002507000c002e000192019b9e420c
:1019ba0001db2800febd62682168380000f0b9f832
:0819ca0001362d180834f1e785
:020000040000fa
:1019d200f7b5002507000c002e000192019b9e42e4
:1019e20001db2800febd62682168380000f0b1f812
:0819f20001362d180834f1e75d
:020000040000fa
:1019fa0080b582b000af78607a6840f2f443c2f2f0
:101a0a0000031a607b6800211800fff793fec046a6
:061a1a00bd4602b080bdd4
:020000040000fa
:101a200080b500af44f20003c4f2001302225a60f2
:101a300044f20003c4f2001301221a72c046bd46ec
:021a400080bd67
:020000040000fa
:101a420080b500af41f20003c4f200231a6841f2ec
:101a52000003c4f2002302210a431a60c046bd46b5
:021a620080bd45
:020000040000fa
:101a640080b500af40f20043c4f200231a6840f28c
:101a74000043c4f2002302210a431a60c046bd4653
:021a840080bd23
:020000040000fa
:101a860080b500af40f60003c4f200231a6840f6a2
:101a96000003c4f2002302210a431a60c046bd4671
:021aa60080bd01
:020000040000fa
:101aa80010b5054c22680ab9fff7f4fe034b186815
:101ab8002368c01a10bdc046d8040020dc040020ea
:020000040000fa
:101ac80080b500af00f05af800f063f8fff7b2fef7
:0e1ad800fff725f8fff796fec046bd4680bd1d
:020000040000fa
:101ae600002310b5934206d103201840421e9041b0
:0e1af6009b08c01810bdc45ccc540133f2e74d
:020000040000fa
:101b040080b500af40f60003c4f2002306229a75a4
:0c1b14001b20fff77bfdc046bd4680bdd6
:020000040000fa
:101b2000054a10b5146800231cb9106003610160f8
:0c1b30000133180010bdc046080500205d
:020000040000fa
:101b3c0080b584b000aff860b9607a6001235b4275
:081b4c001800bd4604b080bd85
:020000040000fa
:101b540080b584b000aff860b9607a6001235b425d
:081b64001800bd4604b080bd6d
:020000040000fa
:101b6c0010b50400fff706ff28b9a368e268a3616b
:081b7c0063619b18a36210bd18
:020000040000fa
:101b840080b500af41f20003c4f2000302221a76ca
:061b9400c046bd4680bd05
:020000040000fa
:101b9a0080b500af41f20043c4f2000300221a7478
:061baa00c046bd4680bdef
:020000040000fa
:101bb000006810b5002801da002010bdfff7cafe4a
:061bc000431cfad1f8e716
:020000040000fa
:101bc800291c0000e71a0000971c0000971c000061
:041bd800971c000056
:020000040000fa
:101bdc0010b52ab10023cc5cc45401339342fad122
:041bec0010bdc04622
:020000040000fa
:101bf00010b500f043f8024b1860586010bdc046a5
:041c0000e4040020d8
:020000040000fa
:101c040080b500af40f21053c2f200031b88bd46fa
:021c140080bd91
:020000040000fa
:101c16004a424a4110b5520040f20043fff789fca0
:021c260010bdef
:020000040000fa
:101c28008a18914201d10020704700230b700131be
:021c3800f7e7cc
:020000040000fa
:101c3a0080b500afbff35f8f62b6c046bd4680bdb8
:020000040000fa
:101c4a0010b5fff7d0fffff7fffcfff7fdfc10bd53
:020000040000fa
:0e1c5a0080b500affff701f8c046bd4680bd63
:020000040000fa
:0a1c680080b500afc046bd4680bd48
:020000040000fa
:0a1c720010b50068fff76dff10bd0c
:020000040000fa
:081c7c000048704794050020a8
:020000040000fa
:061c840080b500affee791
:020000040000fa
:061c8a0080b500affee78b
:020000040000fa
:061c9000012040427047f4
:020000040000fa
:041c96000020704773
:020000040000fa
:041c9a00002070476f
:020000040000fa
:041c9e00002070476b
:020000040000fa
:0200000400807a
:044000007f438fb0bb
:020000040000fa
:0200000400807a
:04400400bbfcffff03
:020000040000fa
:0200000400807a
:04c0040000ffffff3b
:020000040000fa
:0200000400807a
:04c04000ffffffff00
:020000040000fa
:0200000400807a
:04c04400fffffffffc
:020000040000fa
:0200000400807a
:04c04800fffffffff8
:020000040000fa
:0200000400807a
:04c04c00fffffffff4
:00000001FF
