:020000040000fa
:10000000f80f0020cd110000591900005f19000001
:1000100000000000000000000000000000000000e0
:100020000000000000000000000000000b130000b2
:1000300000000000000000000b1300000b13000084
:100040000b1300000b1300000b1300000b13000038
:100050000b1300000b1300000b1300000b13000028
:100060000b1300000b1300000b1300000b13000018
:100070000b1300000b1300000b1300000b13000008
:100080000b1300000b1300000b1300000b130000f8
:100090000b1300000b130000b30700000b1300004c
:1000a0000b1300000b1300000b130000550300009e
:1000b0000b1300000b130000000000000000000004
:1000c0000000000000000000231900000b130000d6
:1000d0000b1300000b1300000b1300000b130000a8
:1000e0000b1300000b1300000b1300000b13000098
:0400f0000b130000ee
:020000040000fa
:1000f400f8b5c046f8bc08bc9e4670470114000021
:10010400f8b5c046f8bc08bc9e467047dd13000035
:020000040000fa
:10011400580400201c00000000000000940400208b
:100124000400000000000000c804002001000000da
:1001340000000000800400200c000000000000000b
:10014400b80400200400000000000000980400200f
:100154000400000000000000c904002002000000a8
:10016400000000009c0400200c00000000000000bf
:10017400bc0400200800000000000000cb040020a4
:100184000100000000000000ce0400200200000076
:100194000100000088130000c404002002000000d5
:1001a40000000000bc050020080000000100000061
:1001b400b405b405b4056c02c604002002000000b6
:1001c40000000000cc040020020000000000000039
:1001d400a80400200400000000000000080400201f
:1001e4005000000000000000d00400206c0000005b
:1001f40001000000dc040020d8040020dc040020fe
:100204000000000025000000080000200004000099
:1002140000000000000000000000000000000000da
:1002240000000000000000000000000000000000ca
:100234006f19000000000000000000000000000032
:1002440000000000fd0f000000000000000000009e
:10025400000000000000000000000000000000009a
:100264000000002008040000000000009c0500209d
:100274002000000001000000010000000300000055
:10028400000000000000000000000000000000006a
:10029400000000008c0400208c04002008000000f2
:1002a40000000000ac040020040000000000000076
:1002b4003c05002060000000010000000100000077
:1002c4000300000000000000000000000000000027
:1002d4000000000000000000731100000000000096
:1002e4000000000000000000471900008f18000003
:1002f40000000000000000000000000000000000fa
:1003040000000000000000000000000000000000e9
:10031400000000000000000000000000c4050020f0
:10032400040000000100000001000000b0040020ef
:100334000800000000000000740400200c0000000d
:100344000000000000000000000000006666666611
:020000040000fa
:1003540080b582b000af40f2cb43c2f200031b78f9
:100364006bb140f60003c4f200231b8d9ab2fb1d4f
:100374001a70fb1d1b78180000f0a9f8a4e040f6e1
:100384000003c4f200231b7edbb21a0004231340d3
:10039400002b48d040f2c243c2f200031b889bb238
:1003a4001a0040f2be43c2f200031b88013b9a428a
:1003b4000cd140f60003c4f2002304221a7540f263
:1003c400c243c2f2000300221a802ce0c04640f669
:1003d4000003c4f200231b7edbb21a000123134086
:1003e400002bf4d040f60003c4f200231b8d99b215
:1003f40040f2a043c2f200031a6840f2c243c2f2c0
:1004040000031b889bb2d318cab21a7040f2c243cd
:10041400c2f200031b889bb201339ab240f2c2437a
:10042400c2f200031a8040f60003c4f200231b7ecc
:10043400dbb21a0002231340002b45d040f2c04324
:10044400c2f200031b889ab240f2bc43c2f200031a
:100454001b889a420cd140f60003c4f20023022206
:100464001a7540f2c043c2f2000300221a802be046
:10047400c04640f60003c4f200231b7edbb21a0020
:1004840001231340002bf4d040f2a443c2f2000332
:100494001a6840f2c043c2f200031b889bb2d3180f
:1004a4001a7840f60003c4f2002392b21a8540f28f
:1004b400c043c2f200031b889bb201339ab240f2dc
:0e04c400c043c2f200031a80bd4602b080bde4
:020000040000fa
:1004d20080b582b000af0200fb1d1a7040f2cc431f
:1004e200c2f200031b78002b5fd0fb1d1b781800a3
:1004f20000f095fe40f2c643c2f200031b880133ae
:100502009ab240f2c643c2f200031a8040f2cd43cf
:10051200c2f200031b781a0040f2bc53c2f200037d
:100522005200d25a40f2c643c2f200031b889a42da
:1005320011d140f2c643c2f2000300221a8040f2f7
:10054200cd43c2f200031b780133dab240f2cd434d
:10055200c2f200031a7040f2c443c2f200031b88c5
:1005620001339ab240f2c443c2f200031a8040f24d
:10057200c443c2f200031a8840f2ce43c2f200031f
:100582001b889a4222d140f60003c4f200230422bf
:100592001a7580235b02180000f0bdfd40f2cd43c6
:1005a200c2f2000300221a7010e040f2cc43c2f201
:1005b20000031b785bb9fb1d1b783a2b07d140f275
:1005c200cc43c2f2000301221a7000e0c046bd46cd
:0405d20002b080bd36
:020000040000fa
:1005d60090b583b000af02003960fb1d1a70fb1d99
:1005e6001b787f2b2fd84ef20013cef20003fa1d94
:1005f600127852b29208c0329200d358fa1d12787d
:10060600110003220a40d200ff2191400a00d24382
:100616001a4010003b689b01ff221a40fb1d1b7805
:10062600190003230b40db009a4011004ef2001321
:10063600cef20003fa1d127852b292080143c0327c
:100646009200d15037e04ef60053cef20003fa1d69
:10065600127811000f220a40083a920806329200d8
:100666009b1804331b68fa1d1278110003220a40f6
:10067600d200ff2191400a00d2431a4010003b6885
:100686009b01ff221a40fb1d1b78190003230b4018
:10069600db009a404ef60053cef20003f91d0978ae
:1006a6000c000f21214008398908024306318900d0
:0e06b6005b1804331a60c046bd4603b090bd09
:020000040000fa
:1006c40090b583b000af02003960fb1d1a70fb1daa
:1006d4001b787f2b2fd84ef20013cef20003fa1da5
:1006e400127852b29208c0329200d358fa1d12788e
:1006f400110003220a40d200ff2191400a00d24394
:100704001a4010003b689b01ff221a40fb1d1b7816
:10071400190003230b40db009a4011004ef2001332
:10072400cef20003fa1d127852b292080143c0328d
:100734009200d15037e04ef60053cef20003fa1d7a
:10074400127811000f220a40083a920806329200e9
:100754009b1804331b68fa1d1278110003220a4007
:10076400d200ff2191400a00d2431a4010003b6896
:100774009b01ff221a40fb1d1b78190003230b4029
:10078400db009a404ef60053cef20003f91d0978bf
:100794000c000f21214008398908024306318900e1
:0e07a4005b1804331a60c046bd4603b090bd1a
:020000040000fa
:1007b20080b500af40f20043c4f200231b7edbb2df
:1007c2001a0001231340002b44d040f2c943c2f265
:1007d20000031b78dbb2d3b940f2ca43c2f2000372
:1007e2001b78dbb29bb140f29843c2f200031a6855
:1007f20040f2ba43c2f200031b889bb2d3181b78a3
:10080200dab240f20043c4f200239a6215e040f2e9
:10081200c943c2f200031b78dbb213b101f055f8f1
:100822000be040f29843c2f200031b681b78dab275
:1008320040f20043c4f200239a6240f2ba43c2f289
:1008420000031b889bb201339ab240f2ba43c2f250
:1008520000031a8040f2ba43c2f200031b889ab224
:1008620040f2b843c2f200031b889bb29a4213d1f2
:10087200c04640f20043c4f200231b7edbb21a00e2
:1008820001231340002bf4d040f29c43c2f2000338
:0e0892001b68180000f03ffcc046bd4680bd4c
:020000040000fa
:1008a00090b583b000af02003960fb1d1a70fb1dcc
:1008b0001b787f2b2fd84ef20013cef20003fa1dc7
:1008c000127852b29208c0329200d358fa1d1278b0
:1008d000110003220a40d200ff2191400a00d243b6
:1008e0001a4010003b689b01ff221a40fb1d1b7839
:1008f000190003230b40db009a4011004ef2001355
:10090000cef20003fa1d127852b292080143c032af
:100910009200d15037e04ef60053cef20003fa1d9c
:10092000127811000f220a40083a9208063292000b
:100930009b1804331b68fa1d1278110003220a4029
:10094000d200ff2191400a00d2431a4010003b68b8
:100950009b01ff221a40fb1d1b78190003230b404b
:10096000db009a404ef60053cef20003f91d0978e1
:100970000c000f2121400839890802430631890003
:0e0980005b1804331a60c046bd4603b090bd3c
:020000040000fa
:10098e0090b585b000afb96011007b600e243b19a5
:10099e00021c1a800c203b180a1c1a8040f2cb4312
:1009ae00c2f20003182240f2080cbc4462441278d2
:1009be001a7040f2a443c2f20003ba681a6040f201
:1009ce00a043c2f200037a681a6040f2bc43c2f23e
:1009de0000033a1912881a8040f2be43c2f2000395
:1009ee0004003a1812881a8000f0e9fe3b191b88a1
:1009fe002bb940f60003c4f2002304221a750e230d
:100a0e00fb181b882bb940f60003c4f20023022208
:100a1e001a75bb681a7840f60003c4f2002392b22e
:100a2e001a8540f2c043c2f200031b889bb2013309
:100a3e009ab240f2c043c2f200031a80c046bd46cd
:040a4e0005b090bda2
:020000040000fa
:100a520080b500af41f60043c4f200038022412179
:100a62009950c04641f60043c4f2000380229b58cd
:100a720040221340402bf5d141f20003c4f200039f
:100a820020225a6341f20003c4f200033f221a6398
:100a9200c04641f20003c4f200033c229b5cdbb27d
:100aa2001a0004231340042bf3d041f20003c4f2d2
:100ab20000032c2202219954c04641f20003c4f2e1
:100ac20000033c229b5cdbb21a0002231340022b80
:100ad200f3d0c04641f20003c4f2000340229b5c03
:100ae200dbb21a0003231340032bf3d1c046bd46e9
:020af20080bdc5
:020000040000fa
:100af40090b585b000af0200fb1d1a70bb1d0a1c27
:100b04001a700e23fb18fa1d127852081a700d2061
:100b14003b18fa1d127801210a401a700f217b1824
:100b2400ba1d12781a703b181b7823b17b187a18f7
:100b3400127812011a7043f20003c4f20003fa1d82
:100b4400127840219b185b1801221a7043f20003ab
:100b5400c4f200030e243a19127830219b185b1852
:100b64001b78d8b243f20003c4f200033a19127896
:100b74000f21791809780143c8b230219b185b18fa
:0c0b8400021c1a70c046bd4605b090bdb2
:020000040000fa
:100b900080b582b002af002000f092fc41f6004325
:100ba000c4f2000342f205121a6200f062fb002157
:100bb000012000f04ffc00f081f900f0c7fd022099
:100bc00000f07bf800f0b1fd40f28043c2f2000378
:100bd00041f63011c0f20001002200920a220a20e0
:100be000fff7d5fec04600f019fc0300002bfad138
:100bf0000021002000f0d0f900f0f6fc00f084fda8
:100c0000c04640f2c843c2f200031b78dbb2002b9f
:100c1000f7d1c04640f2c843c2f200031b78dbb2f2
:060c2000002bf7d0ece709
:020000040000fa
:100c260080b500af41f20003c4f200239b7adbb229
:100c36001a0001231340d3b340f29443c2f20003d7
:100c46001b685a1c40f29443c2f200031a6040f239
:100c56009443c2f200031b6840f6c412934212d1b9
:100c660040f2c843c2f200031b78dbb2db43dab2c0
:100c760040f2c843c2f200031a7040f29443c2f233
:100c8600000300221a6041f20003c4f2002300228e
:100c96001a7541f20003c4f200239b7adab241f2dc
:100ca6000003c4f2002301210a43d2b29a72c0465d
:040cb600bd4680bdfa
:020000040000fa
:100cba0080b582b000af0200fb1d1a70002110201f
:100cca0000f0c3fb0021102000f0dafb00212020f5
:100cda0000f0bbfb0021202000f0d2fb03210420fe
:100cea00fff703ff03210520fff7fffe41f600434c
:100cfa00c4f20003ac224021995040f20043c4f2ee
:100d0a000023fa1d12781a7340f20043c4f200233a
:100d1a0000225a6040f20043c4f200238c22c1f23e
:100d2a0030021a6003211620fff7c7fcc046bd46f1
:040d3a0002b080bdc6
:020000040000fa
:100d3e00f0b51600050002278369426987b0029359
:100d4e00d31a03939b1904910596019302ac3a00b2
:100d5e002100286800f0acfc019b984208d1ab68da
:100d6e00ea68ab619a18aa626b61300007b0f0bdf9
:100d7e0000280cda102200236968ab620a43ab61cb
:100d8e006b616a60022f12d06368f61aede7019b61
:100d9e001b1a01936368984202d9c01a0834013fa6
:100dae0023681b1823606368181a6060cfe71e0063
:020dbe00dbe771
:020000040000fa
:100dc000f7b51e4c256801942b0065b1002229005f
:100dd000160013000f68bc460f6984450ad132b172
:100de00017610b0010331800febd3900f2e7019bbc
:100df0001f60f6e7844503d9d3b11c68a44517d317
:100e00000a00002ff1d1002bedd01f001a681969dc
:100e1000121a1037102a05d918603818016101001c
:100e2000103a02609d4206d1019b19603b00dae74f
:100e300016000b00e4e73161f8e7c046b00400207b
:020000040000fa
:100e4000f8b5846a05000f00160054b1ab6a6a69f0
:100e50009b1ab3420cd2320039002800fff76fff13
:100e600005e000f0e7fc03002000002beed0f8bd09
:100e7000002ef0d02b0034331b785bb2002b1bdb31
:100e80003400dbb2621eb95c994212d122003900f3
:100e90002800fff754ffa042e9d33f19341b22007a
:100ea0003900686900f0fefc6b6930001c196c6148
:0c0eb000dde71400002ae5d13400f0e773
:020000040000fa
:100ebc0080b500af41f60043c4f20003b0224021dc
:100ecc0099500121022000f0bffa0021012000f00e
:100edc00bbfa03210020fff707fe03210120fff7d7
:100eec0003fe40f60003c4f200230c4a9a8140f63c
:100efc000003c4f200238422c4f210021a6040f6ec
:100f0c000003c4f20023c02292025a6002211b206b
:100f1c00fff7c0fcc046bd4680bdc046098affff36
:020000040000fa
:100f2c0080b500af40f20043c4f2000300221a81e6
:100f3c0040f20043c4f200039b79dab240f2004362
:100f4c00c4f2000301210a43d2b29a7140f2004369
:100f5c00c4f200039b78dbb21a0003231340022b6c
:100f6c0011d040f20043c4f2000302229a70c04632
:100f7c0040f20043c4f200039b79dbb21a00012358
:0c0f8c001340002bf4d0c046bd4680bdd1
:020000040000fa
:100f980080b582b000af0200fb1d1a70bb1d0a1c91
:100fa8001a7041f60043c4f20003b8229a5841f679
:100fb8000043c4f2000340210a43b8215a5041f2c9
:100fc8000003c4f2002301221a7141f20003c4f2a3
:100fd80000231a6841f20003c4f2002340f204110e
:100fe8000a431a6003212220fff7f1fac046bd46e2
:040ff80002b080bd06
:020000040000fa
:100ffc007fb51600c2680d0013000091591e8b417d
:10100c00f31a019383680400039269460222006874
:10101c00029300f03afb002808dc18220823024057
:10102c00534062681343636006000fe0019b8342e8
:10103c00fad2a268c01ae3681018e26320642bb1dc
:10104c00531ce3631378ad19013d2b70300004b0d1
:02105c0070bd65
:020000040000fa
:02105e007047d9
:020000040000fa
:1010600000230e4a10b513600d4a0e4c13600e4a51
:1010700013600e4a13600e4a13600e4a53621361e6
:101080000133936000f045fc00f07dfa0a4b9c426e
:1010900000d310bd08cc9847f8e7c046ac04002048
:1010a00014040020000100001004002008040020a7
:0c10b0000c0400201804002004010000c3
:020000040000fa
:1010bc0037b5144d04002b6873b100f053fb01904d
:1010cc0001a800f0d3fb0f230f309843019900f0d7
:1010dc0085fb58b100232b6004b901340f230f3466
:1010ec009c4324b90c222000074b1a603ebd042cf3
:1010fc0000d204242000fff75dfe0028f6d0031f69
:0c110c001c60f3e7c4050020b4040020c0
:020000040000fa
:1011180080b582b000af78607b680121180000f0cc
:10112800b0f900f073fa40f29c43c2f200030022c7
:101138001a6040f2c943c2f2000300221a7040f25a
:10114800ca43c2f2000300221a7040f2ba43c2f244
:10115800000300221a8040f2b843c2f200030022c2
:0a1168001a80c046bd4602b080bdeb
:020000040000fa
:1011720070b504000d0008b9002070bd43689b06dd
:1011820007d543698269934215d80023a362a361fc
:101192006361e16b236c994204d2c91a012220686f
:1011a20000f0e6fb00232364e363002de4d0206813
:1011b20000f0d7fbe1e70022c36a11009847636998
:0a11c200002be2d101204042d7e7e4
:020000040000fa
:1011cc0010b541f25f03c0f20003984741f25f0390
:1011dc00c0f20003984700f0d1f940f20003c0f2ce
:1011ec0000037f2293434ef60052cef2000293602e
:1011fc0041f26103c0f20003984741f25f03c0f271
:10120c000003984741f25f03c0f200039847fff7d1
:04121c00b9fcfee734
:020000040000fa
:1012200080b582b000af0200fb1d1a70c04640f2cc
:101230000043c4f200231b7edbb21a0001231340db
:10124000002bf4d040f20043c4f20023fa1d1278c0
:101250009a62c04640f20043c4f200231b7edbb218
:101260001a0001231340002bf4d0c046bd4602b043
:0212700080bd3f
:020000040000fa
:1012720080b582b000affb1d00221a700fe043f26e
:101282000003c4f20003fa1d127840219b185b1878
:1012920002221a70fb1d1a78fb1d01321a70fb1d07
:1012a2001b781f2bebd943f20003c4f20003012287
:0c12b20052421a60c046bd4602b080bd2a
:020000040000fa
:1012be0080b582b000af0200fb1d1a70fb1d1b78bb
:1012ce007f2b17d8fb1d1b781a001f231a40110005
:1012de004ef20013cef20003fa1d127852b25209ea
:1012ee0001208840010020329200d150bff34f8f71
:0c12fe00bff36f8fc046bd4602b080bd3c
:020000040000fa
:02130a00fee7fc
:020000040000fa
:10130c0070b5040016001d00022a1ad043689b0613
:10131c0017d439b90db940f2004528000830fff751
:10132c00c7fe010020236268a160134363602300a1
:10133c00e5603433ff22012e00d10a221a70024bd1
:0c134c00e362002070bdc046410e0000ae
:020000040000fa
:1013580080b582b000af0200fb1d1a70fb1d1b7820
:101368007f2b12d8fb1d1b781a001f231a4011006f
:101378004ef20013cef20003fa1d127852b252094f
:101388000120884001009200d150c046bd4602b0fd
:0213980080bd16
:020000040000fa
:10139a0080b582b000af0200fb1d1a70fb1d1b78de
:1013aa007f2b12d8fb1d1b781a001f231a4011002d
:1013ba004ef20013cef20003fa1d127852b252090d
:1013ca000120884001009200d150c046bd4602b0bb
:0213da0080bdd4
:020000040000fa
:1013dc0010b5054c227832b9044b13b1044800e027
:1013ec0000bf0123237010bd580400200000000032
:1013fc0000000000034b10b51bb10349034800e08b
:10140c0000bf10bd000000005c04002000000000c4
:020000040000fa
:10141c0080b500af40f60003c4f200239b7ddbb225
:10142c001a00042313404bb940f60003c4f2002306
:10143c009b7ddbb21a00022313400bb1012300e0a9
:08144c0000231800bd4680bd1d
:020000040000fa
:1014540080b582b000af78600a00fb1c1a70fb1cd8
:101464001b7833b143f20003c4f200037a685a6074
:1014740005e043f20003c4f200037a689a60c046b0
:06148400bd4602b080bd70
:020000040000fa
:10148a0080b582b000af78600a00fb1c1a70fb1ca2
:10149a001b7833b143f20003c4f200037a689a61fd
:1014aa0005e043f20003c4f200037a685a61c046b9
:0614ba00bd4602b080bd3a
:020000040000fa
:1014c00080b582b000af786044f20003c4f200132c
:1014d00004225a60fff72afd00f00cf800f058f9da
:1014e00000f001f900f02afa00f00bfac046bd4600
:0414f00002b080bd09
:020000040000fa
:1014f40080b500af40f2d443c2f200031b681b68fe
:101504000021180000f0e9f940f2b853c2f20003d8
:101514001b681b680021180000f0dff9c046bd46b7
:0215240080bd88
:020000040000fa
:1015260080b500af41f60043c4f2000340f2071253
:10153600c0f202021a62c04641f60043c4f200033a
:101546005b6804221340042bf6d0c046bd4680bd1e
:020000040000fa
:1015560080b500af41f60043c4f2000340f2051225
:10156600c0f204025a62c04641f60043c4f20003c8
:101576005b6808221340082bf6d0c046bd4680bde6
:020000040000fa
:021586007047ac
:020000040000fa
:1015880010b50948016811b9436803b910bd0400d2
:101598008368064a9bb20c349b009b584268200023
:1015a800984780002018ede714010000901800000b
:020000040000fa
:1015b800064b1a680ab9064a1a60064a116809b938
:1015c800054911601a68054b1a6070477c040020b1
:1015d800d005002078040020d007002074040020e3
:020000040000fa
:1015e80080b500af41f20003c4f200235b7adab29f
:1015f80041f20003c4f2002301210a43d2b25a7215
:0c1608002220fff7a5fec046bd4680bdb5
:020000040000fa
:1016140080b500af40f20043c4f200231b7ddab270
:1016240040f20043c4f2002301210a43d2b21a75e6
:0c1634001620fff742fec046bd4680bdf8
:020000040000fa
:1016400070b5084c050023680bb9fff7b5ff064ad3
:10165000206812684519aa4201d3256070bd012097
:0c1660004042fbe77404002078040020e6
:020000040000fa
:10166c00020000234832d356591e0b431370042337
:10167c00426813402bb110231343436001204042b6
:0a168c0070470364c3631800fae717
:020000040000fa
:10169600f7b5002507000c002e000192019b9e4223
:1016a60001db2800febd62682168380000f0a7f85b
:0816b60001362d180834f1e79c
:020000040000fa
:1016be00f7b5002507000c002e000192019b9e42fb
:1016ce0001db2800febd62682168380000f09ff83b
:0816de0001362d180834f1e774
:020000040000fa
:1016e60080b500af44f20003c4f2001302225a6030
:1016f60044f20003c4f2001301221a72c046bd462a
:0217060080bda4
:020000040000fa
:1017080080b500af41f20003c4f200231a6841f229
:101718000003c4f2002302210a431a60c046bd46f2
:0217280080bd82
:020000040000fa
:10172a0080b500af40f20043c4f200231a6840f2c9
:10173a000043c4f2002302210a431a60c046bd4690
:02174a0080bd60
:020000040000fa
:10174c0080b500af40f60003c4f200231a6840f6df
:10175c000003c4f2002302210a431a60c046bd46ae
:02176c0080bd3e
:020000040000fa
:02176e007047c2
:020000040000fa
:1017700010b5054c22680ab9fff71eff034b186825
:101780002368c01a10bdc0467404002078040020ed
:020000040000fa
:1017900080b500af00f05af800f063f8fff7dbfe09
:0e17a000fff757f9fff7bffec046bd4680bdfc
:020000040000fa
:1017ae00002310b5934206d103201840421e9041eb
:0e17be009b08c01810bdc45ccc540133f2e788
:020000040000fa
:1017cc0080b500af40f60003c4f2002306229a75e0
:0c17dc001b20fff7dcfdc046bd4680bdb1
:020000040000fa
:1017e800054a10b5146800231cb910600361016034
:0c17f8000133180010bdc046b0040020f2
:020000040000fa
:1018040080b584b000aff860b9607a6001235b42b0
:081814001800bd4604b080bdc0
:020000040000fa
:10181c0080b584b000aff860b9607a6001235b4298
:08182c001800bd4604b080bda8
:020000040000fa
:1018340010b50400fff718ff28b9a368e268a36194
:0818440063619b18a36210bd53
:020000040000fa
:10184c0080b500af41f20003c4f2000302221a7605
:06185c00c046bd4680bd40
:020000040000fa
:1018620080b500af41f20043c4f2000300221a74b3
:06187200c046bd4680bd2a
:020000040000fa
:10187800006810b5002801da002010bdfff7dcfe73
:06188800431cfad1f8e751
:020000040000fa
:02188e007047a1
:020000040000fa
:10189000f1180000af1700006b1900006b19000071
:0418a0006b190000c0
:020000040000fa
:1018a40010b52ab10023cc5cc45401339342fad15d
:0418b40010bdc0465d
:020000040000fa
:1018b80010b500f049f8024b1860586010bdc046da
:0418c8008c0400206c
:020000040000fa
:1018cc0080b500af40f28a43c2f200031b88bd46cc
:0218dc0080bdcd
:020000040000fa
:1018de004a424a4110b5520040f20043fff70ffd55
:0218ee0010bd2b
:020000040000fa
:1018f0008a18914201d10020704700230b700131fa
:02190000f7e707
:020000040000fa
:1019020080b500afbff35f8f62b6c046bd4680bdf3
:020000040000fa
:1019120010b5fff7d0fffff729fffff727ff10bd34
:020000040000fa
:0e19220080b500affff77ef9c046bd4680bd20
:020000040000fa
:0c1930006162636465666768696a0000b4
:020000040000fa
:0a193c0080b500afc046bd4680bd77
:020000040000fa
:0a19460010b50068fff767ff10bd41
:020000040000fa
:08195000004870473c0500202f
:020000040000fa
:0619580080b500affee7c0
:020000040000fa
:06195e0080b500affee7ba
:020000040000fa
:0619640001204042704723
:020000040000fa
:04196a0000207047a2
:020000040000fa
:04196e00002070479e
:020000040000fa
:04197200002070479a
:020000040000fa
:0200000400807a
:044000007f438fb0bb
:020000040000fa
:0200000400807a
:04400400bbfcffff03
:020000040000fa
:0200000400807a
:04c0040000ffffff3b
:020000040000fa
:0200000400807a
:04c04000ffffffff00
:020000040000fa
:0200000400807a
:04c04400fffffffffc
:020000040000fa
:0200000400807a
:04c04800fffffffff8
:020000040000fa
:0200000400807a
:04c04c00fffffffff4
:00000001FF
