:020000040000fa
:10000000f80f0020d90f0000e9170000ef170000db
:1000100000000000000000000000000000000000e0
:1000200000000000000000000000000017110000a8
:100030000000000000000000171100001711000070
:100040001711000017110000171100001711000010
:100050001711000017110000171100001711000000
:1000600017110000171100001711000017110000f0
:1000700017110000171100001711000017110000e0
:1000800017110000171100001711000017110000d0
:10009000171100001711000093060000171100004f
:1000a00017110000171100001711000015030000c0
:1000b00017110000171100000000000000000000f0
:1000c0000000000000000000bd1700001711000034
:1000d0001711000017110000171100001711000080
:1000e0001711000017110000171100001711000070
:0400f00017110000e4
:020000040000fa
:1000f400f8b5c046f8bc08bc9e4670470d12000017
:10010400f8b5c046f8bc08bc9e467047e91100002b
:020000040000fa
:10011400580400201c000000000000008804002097
:100124000400000000000000ba04002001000000e8
:1001340000000000ac0400200200000000000000e9
:10014400ae04002004000000000000008c04002025
:100154000400000000000000bb04002002000000b6
:1001640000000000900400200c00000000000000cb
:10017400b20400200800000000000000bd040020bc
:1001840002000000000000009c04002004000000a5
:1001940000000000080400205000000000000000df
:1001a400c00400206c00000001000000cc0400200a
:1001b400c8040020cc04002000000000250000003a
:1001c40008000020000400000000000000000000ff
:1001d400000000000000000000000000000000001b
:1001e4000000000000000000ff17000000000000f5
:1001f400000000000000000000000000090e0000e4
:1002040000000000000000000000000000000000ea
:1002140000000000000000000000002008040000ae
:10022400000000008c0500202000000001000000f8
:1002340001000000030000000000000000000000b6
:100244000000000000000000000000008004002006
:10025400800400200800000000000000a00400202a
:1002640004000000000000002c05002060000000d5
:100274000100000001000000030000000000000075
:10028400000000000000000000000000000000006a
:100294007f0f0000000000000000000000000000cc
:1002a400d5170000df170000000000000000000068
:1002b400000000000000000000000000000000003a
:1002c400000000000000000000000000000000002a
:1002d40000000000ac050020040000000100000044
:1002e40001000000a4040020080000000000000039
:1002f400740400200c000000000000000000000056
:100304000000000066666666666666666666666621
:020000040000fa
:1003140080b582b000af40f2bd43c2f200031b7847
:10032400fbb140f60003c4f200231b8d9ab2fb1dff
:100334001a7040f2be43c2f200031b782bb1fb1dbe
:100344001b78180001f01ff9afe0fb1d1b783a2b56
:1003540000d0aae040f2be43c2f2000301221a70a8
:10036400a3e040f60003c4f200231b7edbb21a00b4
:1003740004231340002b46d040f2b843c2f20003da
:100384001b889ab240f2b443c2f200031b889a421b
:100394000cd140f60003c4f2002304221a7540f283
:1003a400b843c2f2000300221a802ce0c04640f693
:1003b4000003c4f200231b7edbb21a0001231340a6
:1003c400002bf4d040f60003c4f200231b8d99b235
:1003d40040f29443c2f200031a6840f2b843c2f2f6
:1003e40000031b889bb2d318cab21a7040f2b843f8
:1003f400c2f200031b889bb201339ab240f2b843a5
:10040400c2f200031a8040f60003c4f200231b7eec
:10041400dbb21a0002231340002b47d040f2b6434c
:10042400c2f200031b889ab240f2b243c2f2000344
:100434001b889a420cd140f60003c4f20023022226
:100444001a7540f2b643c2f2000300221a802de06e
:10045400c04640f60003c4f200231b7edbb21a0040
:1004640001231340002bf4d040f29843c2f200035e
:100474001a6840f2b643c2f200031b889bb2d31839
:100484001a7840f60003c4f2002392b21a8540f2af
:10049400b643c2f200031b889bb201339ab240f206
:1004a400b643c2f200031a8000e0c046bd4602b063
:0204b40080bd09
:020000040000fa
:1004b60090b583b000af02003960fb1d1a70fb1dba
:1004c6001b787f2b2fd84ef20013cef20003fa1db5
:1004d600127852b29208c0329200d358fa1d12789e
:1004e600110003220a40d200ff2191400a00d243a4
:1004f6001a4010003b689b01ff221a40fb1d1b7827
:10050600190003230b40db009a4011004ef2001342
:10051600cef20003fa1d127852b292080143c0329d
:100526009200d15037e04ef60053cef20003fa1d8a
:10053600127811000f220a40083a920806329200f9
:100546009b1804331b68fa1d1278110003220a4017
:10055600d200ff2191400a00d2431a4010003b68a6
:100566009b01ff221a40fb1d1b78190003230b4039
:10057600db009a404ef60053cef20003f91d0978cf
:100586000c000f21214008398908024306318900f1
:0e0596005b1804331a60c046bd4603b090bd2a
:020000040000fa
:1005a40090b583b000af02003960fb1d1a70fb1dcb
:1005b4001b787f2b2fd84ef20013cef20003fa1dc6
:1005c400127852b29208c0329200d358fa1d1278af
:1005d400110003220a40d200ff2191400a00d243b5
:1005e4001a4010003b689b01ff221a40fb1d1b7838
:1005f400190003230b40db009a4011004ef2001354
:10060400cef20003fa1d127852b292080143c032ae
:100614009200d15037e04ef60053cef20003fa1d9b
:10062400127811000f220a40083a9208063292000a
:100634009b1804331b68fa1d1278110003220a4028
:10064400d200ff2191400a00d2431a4010003b68b7
:100654009b01ff221a40fb1d1b78190003230b404a
:10066400db009a404ef60053cef20003f91d0978e0
:100674000c000f2121400839890802430631890002
:0e0684005b1804331a60c046bd4603b090bd3b
:020000040000fa
:1006920080b500af40f20043c4f200231b7edbb200
:1006a2001a0001231340002b44d040f2bb43c2f294
:1006b20000031b78dbb2d3b940f2bc43c2f20003a1
:1006c2001b78dbb29bb140f28c43c2f200031a6882
:1006d20040f2b043c2f200031b889bb2d3181b78ce
:1006e200dab240f20043c4f200239a6215e040f20b
:1006f200bb43c2f200031b78dbb213b101f029f84d
:100702000be040f28c43c2f200031b681b78dab2a2
:1007120040f20043c4f200239a6240f2b043c2f2b4
:1007220000031b889bb201339ab240f2b043c2f27b
:1007320000031a8040f2b043c2f200031b889ab24f
:1007420040f2ae43c2f200031b889bb29a4213d11d
:10075200c04640f20043c4f200231b7edbb21a0003
:1007620001231340002bf4d040f29043c2f2000365
:0e0772001b68180000f0d5fbc046bd4680bdd8
:020000040000fa
:1007800080b500af052000f04ffd002140f20010c1
:1007900000f068fd012140f2001000f07efd0a200b
:1007a00000f042fd002140f2001000f076fd0a202a
:1007b00000f03afd012140f2001000f06efd14201f
:1007c00000f032fdc0460e2144f2000000f046fe6b
:1007d0000300002bf7d1002148f2000000f05dfd7e
:1007e000022000f08ffd122000f020fc012148f2d1
:1007f000000000f052fd022000f094fbc0460e21e4
:1008000044f2000000f02afe0300002bf7d1022082
:1008100000f078fd1a2000f0a8fd142000f006fc7e
:10082000222000f0a2fdd72000f000fc022000f002
:0808300079fbc046bd4680bd06
:020000040000fa
:1008380080b582b000af022000f060fd242000f0f7
:1008480090fdbb1d00221a8007e0ff2000f0eafba4
:10085800bb1d1a88bb1d01321a80bb1d1b8841f2c3
:1008680087329342f1d9022000f058fb022000f0b1
:1008780045fd262000f075fd3b1d00221a8007e08b
:10088800002000f0cffb3b1d1a883b1d01321a8067
:100898003b1d1b8841f287329342f1d9022000f0b8
:1008a8003dfbc0460e2144f2000000f0d3fd0300da
:1008b800002bf7d1022000f021fd202000f051fd8f
:1008c800022000f02bfbc0460e2144f2000000f08d
:1008d800c1fd0300002bf7d1c046bd4602b080bd64
:020000040000fa
:1008e80080b500af41f60043c4f2000380224121e5
:1008f8009950c04641f60043c4f2000380229b5839
:1009080040221340402bf5d141f20003c4f200030a
:1009180020225a6341f20003c4f200033f221a6303
:10092800c04641f20003c4f200033c229b5cdbb2e8
:100938001a0004231340042bf3d041f20003c4f23d
:1009480000032c2202219954c04641f20003c4f24c
:1009580000033c229b5cdbb21a0002231340022beb
:10096800f3d0c04641f20003c4f2000340229b5c6e
:10097800dbb21a0003231340032bf3d1c046bd4654
:0209880080bd30
:020000040000fa
:10098a0090b585b000af0200fb1d1a70bb1d0a1c92
:10099a001a700e23fb18fa1d127852081a700d20cd
:1009aa003b18fa1d127801210a401a700f217b1890
:1009ba00ba1d12781a703b181b7823b17b187a1863
:1009ca00127812011a7043f20003c4f20003fa1dee
:1009da00127840219b185b1801221a7043f2000317
:1009ea00c4f200030e243a19127830219b185b18be
:1009fa001b78d8b243f20003c4f200033a19127802
:100a0a000f21791809780143c8b230219b185b1865
:0c0a1a00021c1a70c046bd4605b090bd1d
:020000040000fa
:100a260080b500af41f20003c4f200239b7adbb22b
:100a36001a0001231340d3b340f28843c2f20003e5
:100a46001b685a1c40f28843c2f200031a6040f247
:100a56008843c2f200031b6840f6c412934212d1c7
:100a660040f2ba43c2f200031b78dbb2db43dab2d0
:100a760040f2ba43c2f200031a7040f28843c2f24f
:100a8600000300221a6041f20003c4f20023002290
:100a96001a7541f20003c4f200239b7adab241f2de
:100aa6000003c4f2002301210a43d2b29a72c0465f
:040ab600bd4680bdfc
:020000040000fa
:100aba0080b582b000af0200fb1d1a700021102021
:100aca0000f0cbfb0021102000f0e2fb00212020e7
:100ada0000f0c3fb0021202000f0dafb03210420f0
:100aea00fff74eff03210520fff74aff41f60043b7
:100afa00c4f20003ac224021995040f20043c4f2f0
:100b0a000023fa1d12781a7340f20043c4f200233c
:100b1a0000225a6040f20043c4f200238c22c1f240
:100b2a0030021a6003211620fff737fdc046bd4682
:040b3a0002b080bdc8
:020000040000fa
:100b3e00f0b51600050002278369426987b002935b
:100b4e00d31a03939b1904910596019302ac3a00b4
:100b5e002100286800f0fefc019b984208d1ab688a
:100b6e00ea68ab619a18aa626b61300007b0f0bdfb
:100b7e0000280cda102200236968ab620a43ab61cd
:100b8e006b616a60022f12d06368f61aede7019b63
:100b9e001b1a01936368984202d9c01a0834013fa8
:100bae0023681b1823606368181a6060cfe71e0065
:020bbe00dbe773
:020000040000fa
:100bc000f7b51e4c256801942b0065b10022290061
:100bd000160013000f68bc460f6984450ad132b174
:100be00017610b0010331800febd3900f2e7019bbe
:100bf0001f60f6e7844503d9d3b11c68a44517d319
:100c00000a00002ff1d1002bedd01f001a681969de
:100c1000121a1037102a05d918603818016101001e
:100c2000103a02609d4206d1019b19603b00dae751
:100c300016000b00e4e73161f8e7c046a404002089
:020000040000fa
:100c400080b500af002000f043fb41f60043c4f242
:100c5000000342f205121a6200f011fa002101208d
:100c600000f000fb0220fff728ff00f0c2fc00f0bc
:100c70009afa00f078fd0021002000f093f800f0cf
:100c800004fc00f0a5fcc04640f2ba43c2f20003e7
:100c90001b78dbb2002bf7d10121012000f0fdfa17
:100ca000c04640f2ba43c2f200031b78dbb2002b0d
:0c0cb000f7d00021012000f0f0fae4e78a
:020000040000fa
:100cbc00f8b5846a05000f00160054b1ab6a6a6976
:100ccc009b1ab3420cd2320039002800fff731ffd7
:100cdc0005e000f0edfc03002000002beed0f8bd89
:100cec00002ef0d02b0034331b785bb2002b1bdbb7
:100cfc003400dbb2621eb95c994212d12200390079
:100d0c002800fff716ffa042e9d33f19341b22003d
:100d1c003900686900f004fd6b6930001c196c61c6
:0c0d2c00dde71400002ae5d13400f0e7f8
:020000040000fa
:100d380080b500af40f20043c4f2000300221a81dc
:100d480040f20043c4f200039b79dab240f2004358
:100d5800c4f2000301210a43d2b29a7140f200435f
:100d6800c4f200039b78dbb21a0003231340022b62
:100d780011d040f20043c4f2000302229a70c04628
:100d880040f20043c4f200039b79dbb21a0001234e
:0c0d98001340002bf4d0c046bd4680bdc7
:020000040000fa
:100da40080b582b000af0200fb1d1a70bb1d0a1c87
:100db4001a7041f60043c4f20003b8229a5841f66f
:100dc4000043c4f2000340210a43b8215a5041f2bf
:100dd4000003c4f2002301221a7141f20003c4f299
:100de40000231a6841f20003c4f2002340f2041104
:100df4000a431a6003212220fff75bfbc046bd466d
:040e040002b080bdfb
:020000040000fa
:100e08007fb51600c2680d0013000091591e8b4172
:100e1800f31a01938368040003926946022200686a
:100e2800029300f086fb002808dc18220823024001
:100e3800534062681343636006000fe0019b8342de
:100e4800fad2a268c01ae3681018e26320642bb1d2
:100e5800531ce3631378ad19013d2b70300004b0c7
:020e680070bd5b
:020000040000fa
:020e6a007047cf
:020000040000fa
:100e6c0000230e4a10b513600d4a0e4c13600e4a47
:100e7c0013600e4a13600e4a13600e4a53621361dc
:100e8c000133936000f08cfc00f025fb0a4b9c4274
:100e9c0000d310bd08cc9847f8e7c046a00400204a
:100eac00140400200001000010040020080400209d
:0c0ebc000c0400201804002004010000b9
:020000040000fa
:100ec80037b5144d04002b6873b100f09ffb0190f7
:100ed80001a800f011fc0f230f309843019900f08e
:100ee800c3fb58b100232b6004b901340f230f341e
:100ef8009c4324b90c222000074b1a603ebd042ce9
:100f080000d204242000fff757fe0028f6d0031f64
:0c0f18001c60f3e7ac050020a8040020da
:020000040000fa
:100f240080b582b000af78607b680121180000f0c2
:100f3400b2f900f0befa40f29043c2f2000300227c
:100f44001a6040f2bb43c2f2000300221a7040f25e
:100f5400bc43c2f2000300221a7040f2b043c2f252
:100f6400000300221a8040f2ae43c2f200030022c2
:0a0f74001a80c046bd4602b080bde1
:020000040000fa
:100f7e0070b504000d0008b9002070bd43689b06d3
:100f8e0007d543698269934215d80023a362a361f2
:100f9e006361e16b236c994204d2c91a0122206865
:100fae0000f028fc00232364e363002de4d02068c6
:100fbe0000f019fce1e70022c36a1100984763694b
:0a0fce00002be2d101204042d7e7da
:020000040000fa
:100fd80010b540f66b63c0f20003984740f66b63a8
:100fe800c0f20003984700f005fa40f20003c0f28f
:100ff80000037f2293434ef60052cef20002936024
:1010080040f66d63c0f20003984740f66b63c0f288
:101018000003984740f66b63c0f200039847fff758
:041028000bfefee7d6
:020000040000fa
:10102c0080b582b000af0200fb1d1a70c04640f2c2
:10103c000043c4f200231b7edbb21a0001231340d1
:10104c00002bf4d040f20043c4f20023fa1d1278b6
:10105c009a62c04640f20043c4f200231b7edbb20e
:10106c001a0001231340002bf4d0c046bd4602b039
:02107c0080bd35
:020000040000fa
:10107e0080b582b000affb1d00221a700fe043f264
:10108e000003c4f20003fa1d127840219b185b186e
:10109e0002221a70fb1d1a78fb1d01321a70fb1dfd
:1010ae001b781f2bebd943f20003c4f2000301227d
:0c10be0052421a60c046bd4602b080bd20
:020000040000fa
:1010ca0080b582b000af0200fb1d1a70fb1d1b78b1
:1010da007f2b17d8fb1d1b781a001f231a401100fb
:1010ea004ef20013cef20003fa1d127852b25209e0
:1010fa0001208840010020329200d150bff34f8f67
:0c110a00bff36f8fc046bd4602b080bd31
:020000040000fa
:02111600fee7f2
:020000040000fa
:1011180070b5040016001d00022a1ad043689b0609
:1011280017d439b90db940f2004528000830fff747
:10113800c7fe010020236268a16013436360230097
:10114800e5603433ff22012e00d10a221a70024bc7
:0c115800e362002070bdc046bd0c00002a
:020000040000fa
:1011640080b582b000af0200fb1d1a70fb1d1b7816
:101174007f2b12d8fb1d1b781a001f231a40110065
:101184004ef20013cef20003fa1d127852b2520945
:101194000120884001009200d150c046bd4602b0f3
:0211a40080bd0c
:020000040000fa
:1011a60080b500af002148f2000000f058f8012198
:1011b60040f2001000f053f80021022000f04ff832
:1011c600012144f2000000f04af80121022000f05b
:1011d60061f8012148f2000000f05cf8c046bd4607
:0211e60080bdca
:020000040000fa
:1011e80010b5054c227832b9044b13b1044800e01d
:1011f80000bf0123237010bd580400200000000028
:1012080000000000034b10b51bb10349034800e080
:1012180000bf10bd000000005c04002000000000ba
:020000040000fa
:1012280080b584b000af78600023fb600ee0002337
:10123800bb6003e0c046bb680133bb60bb6840f2db
:1012480098729342f6d9fb680133fb60fa687b68b1
:0c1258009a42ecd3c046bd4604b080bdf5
:020000040000fa
:1012640080b582b000af78600a00fb1c1a70fb1cca
:101274001b7833b143f20003c4f200037a685a6066
:1012840005e043f20003c4f200037a689a60c046a2
:06129400bd4602b080bd62
:020000040000fa
:10129a0080b582b000af78600a00fb1c1a70fb1c94
:1012aa001b7833b143f20003c4f200037a689a61ef
:1012ba0005e043f20003c4f200037a685a61c046ab
:0612ca00bd4602b080bd2c
:020000040000fa
:1012d00080b582b000af786044f20003c4f200131e
:1012e00004225a60fff728fd00f026f800f0a2f96a
:1012f00000f05df900f069fa00f050fac046bd4612
:0413000002b080bdfa
:020000040000fa
:1013040080b582b000af0200fb1d1a70fb1d1b7874
:10131400dbb21a0040f29043c2f200031a60fb1dd4
:101324001b78dbb200211800fff7b5ffc046bd46ad
:0413340002b080bdc6
:020000040000fa
:1013380080b500af40f2c443c2f200031b681b68cb
:101348000021180000f014fa40f2a853c2f200037a
:101358001b681b680021180000f00afac046bd4649
:0213680080bd46
:020000040000fa
:10136a0080b582b000af0200fb1d1a70002148f25e
:10137a000000fff78dfffb1d1b781800fff751fed9
:10138a00012148f20000fff783ffc046bd4602b0c4
:02139a0080bd14
:020000040000fa
:10139c0080b500af41f60043c4f2000340f20712df
:1013ac00c0f202021a62c04641f60043c4f20003c6
:1013bc005b6804221340042bf6d0c046bd4680bdaa
:020000040000fa
:1013cc0080b500af41f60043c4f2000340f20512b1
:1013dc00c0f204025a62c04641f60043c4f2000354
:1013ec005b6808221340082bf6d0c046bd4680bd72
:020000040000fa
:1013fc0010b50948016811b9436803b910bd040060
:10140c008368064a9bb20c349b009b5842682000b0
:10141c00984780002018ede7140100001817000011
:020000040000fa
:10142c00064b1a680ab9064a1a60064a116809b9c5
:10143c00054911601a68054b1a6070477c0400203e
:10144c00b805002078040020b807002074040020a0
:020000040000fa
:10145c0080b582b000af78600a00fb1c1a7043f2b2
:10146c000003c4f200031b6a7a681a40fb1c1b7849
:0e147c00da401300dbb21800bd4602b080bd9e
:020000040000fa
:10148a0080b500af41f20003c4f200235b7adab2fe
:10149a0041f20003c4f2002301210a43d2b25a7274
:0c14aa002220fff75afec046bd4680bd60
:020000040000fa
:1014b60080b500af40f20043c4f200231b7ddab2d0
:1014c60040f20043c4f2002301210a43d2b21a7546
:0c14d6001620fff7f7fdc046bd4680bda4
:020000040000fa
:0214e200704751
:020000040000fa
:1014e40070b5084c050023680bb9fff79dff064a49
:1014f400206812684519aa4201d3256070bd0120f5
:0c1504004042fbe7740400207804002043
:020000040000fa
:10151000020000234832d356591e0b431370042394
:10152000426813402bb11023134343600120404213
:0a15300070470364c3631800fae774
:020000040000fa
:10153a00f7b5002507000c002e000192019b9e4280
:10154a0001db2800febd62682168380000f099f8c6
:08155a0001362d180834f1e7f9
:020000040000fa
:10156200f7b5002507000c002e000192019b9e4258
:1015720001db2800febd62682168380000f091f8a6
:0815820001362d180834f1e7d1
:020000040000fa
:10158a0080b582b000af0200fb1d1a70bb1d0a1c99
:10159a001a70fb1d1b781800fff743fdc046bd46b5
:0415aa0002b080bd4e
:020000040000fa
:1015ae0080b500af44f20003c4f2001302225a6069
:1015be0044f20003c4f2001301221a72c046bd4663
:0215ce0080bdde
:020000040000fa
:1015d00080b500af41f20003c4f200231a6841f263
:1015e0000003c4f2002302210a431a60c046bd462c
:0215f00080bdbc
:020000040000fa
:1015f20080b500af40f20043c4f200231a6840f203
:101602000043c4f2002302210a431a60c046bd46c9
:0216120080bd99
:020000040000fa
:1016140010b5054c22680ab9fff706ff034b18689a
:101624002368c01a10bdc04674040020780400204a
:020000040000fa
:1016340080b500af00f04cf800f055f8fff7c4fe99
:0e164400fff750f9fff7a8fec046bd4680bd77
:020000040000fa
:10165200002310b5934206d103201840421e904148
:0e1662009b08c01810bdc45ccc540133f2e7e5
:020000040000fa
:10167000054a10b5146800231cb9106003610160ad
:0c1680000133180010bdc046a404002077
:020000040000fa
:10168c0080b584b000aff860b9607a6001235b422a
:08169c001800bd4604b080bd3a
:020000040000fa
:1016a40080b584b000aff860b9607a6001235b4212
:0816b4001800bd4604b080bd22
:020000040000fa
:1016bc0010b50400fff726ff28b9a368e268a36100
:0816cc0063619b18a36210bdcd
:020000040000fa
:1016d40080b500af41f20003c4f2000302221a767f
:0616e400c046bd4680bdba
:020000040000fa
:1016ea0080b500af41f20043c4f2000300221a742d
:0616fa00c046bd4680bda4
:020000040000fa
:10170000006810b5002801da002010bdfff7eafede
:06171000431cfad1f8e7ca
:020000040000fa
:0217160070471a
:020000040000fa
:101718008b17000053160000fb170000fb17000092
:04172800fb170000ab
:020000040000fa
:10172c0010b52ab10023cc5cc45401339342fad1d6
:04173c0010bdc046d6
:020000040000fa
:1017400010b500f04df8024b1860586010bdc0464f
:0417500080040020f1
:020000040000fa
:1017540080b500af40f2ac43c2f200031b88bd4623
:0217640080bd46
:020000040000fa
:1017660080b500affff709f8fff763f8c046bd463e
:0217760080bd34
:020000040000fa
:101778004a424a4110b5520040f20043fff7c8fc04
:0217880010bd92
:020000040000fa
:10178a008a18914201d10020704700230b70013161
:02179a00f7e76f
:020000040000fa
:10179c0080b500afbff35f8f62b6c046bd4680bd5b
:020000040000fa
:1017ac0010b5fff7c7fffff7b0fffff7aeff10bd97
:020000040000fa
:0e17bc0080b500affff731f9c046bd4680bdd5
:020000040000fa
:0a17ca0080b500afc046bd4680bdeb
:020000040000fa
:0a17d40010b50068fff764ff10bdb8
:020000040000fa
:0217de00704752
:020000040000fa
:0817e000004870472c050020b1
:020000040000fa
:0617e80080b500affee732
:020000040000fa
:0617ee0080b500affee72c
:020000040000fa
:0617f40001204042704795
:020000040000fa
:0417fa000020704714
:020000040000fa
:0417fe000020704710
:020000040000fa
:04180200002070470b
:020000040000fa
:0200000400807a
:044000007f438fb0bb
:020000040000fa
:0200000400807a
:04400400bbfcffff03
:020000040000fa
:0200000400807a
:04c0040000ffffff3b
:020000040000fa
:0200000400807a
:04c04000ffffffff00
:020000040000fa
:0200000400807a
:04c04400fffffffffc
:020000040000fa
:0200000400807a
:04c04800fffffffff8
:020000040000fa
:0200000400807a
:04c04c00fffffffff4
:00000001FF
