:020000040000fa
:10000000f00f0020530d0000791400007f14000051
:1000100000000000000000000000000000000000e0
:100020000000000000000000000000008f0e000033
:1000300000000000000000008f0e00008f0e000086
:100040008f0e00008f0e00008f0e00008f0e00003c
:100050008f0e00008f0e00008f0e00008f0e00002c
:100060008f0e00008f0e00008f0e00008f0e00001c
:100070008f0e00008f0e00008f0e00008f0e00000c
:100080008f0e00008f0e00008f0e00008f0e0000fc
:100090008f0e00008f0e0000010400008f0e000084
:1000a0008f0e00008f0e00008f0e00008f0e0000dc
:1000b0008f0e00008f0e0000000000000000000006
:1000c00000000000000000004d1400008f0e000032
:1000d0008f0e00008f0e00008f0e00008f0e0000ac
:1000e0008f0e00008f0e00008f0e00008f0e00009c
:0400f0008f0e00006f
:020000040000fa
:1000f400f8b5c046f8bc08bc9e467047850f0000a2
:10010400f8b5c046f8bc08bc9e467047610f0000b5
:020000040000fa
:10011400400800201c0000000000000070080020bf
:10012400040000000000000092080020010000000c
:10013400000000008c080020020000000000000005
:1001440008040020e8030000000000008e080020de
:1001540004000000000000007408002004000000f7
:1001640000000000930800200100000000000000cf
:100174007808002004000000000000007c08002033
:100184000400000000000000f00700205000000000
:1001940000000000940800206c0000000100000032
:1001a400a00800209c080020a008002000000000f7
:1001b40025000000080000200004000000000000ea
:1001c400000000000000000000000000000000002b
:1001d4000000000000000000000000008f14000078
:1001e400000000000000000000000000000000000b
:1001f400810b00000000000000000000000000006f
:1002040000000000000000000000000000000020ca
:100214000804000000000000600900202000000025
:1002240001000000010000000300000000000000c5
:1002340000000000000000000000000000000000ba
:100244006808002068080020080000000000000082
:1002540080080020040000000000000000090020c5
:100264006000000001000000010000000300000025
:10027400000000000000000000000000000000007a
:1002840000000000f90c0000000000000000000065
:1002940000000000651400006f140000000000005e
:1002a400000000000000000000000000000000004a
:1002b400000000000000000000000000000000003a
:1002c400000000000000000080090020040000007d
:1002d4000100000001000000840800200800000064
:1002e400000000005c0800200c000000000000007a
:1002f40000000000000000006666666666666666ca
:020000040000fa
:1003040080b500af002000f068fe41f60043c4f25f
:10031400000342f205121a6200f040fe002101209f
:1003240000f03ffd0021022000f03bfd40f68c036d
:10033400c2f2000305221a8040f20843c2f200030d
:1003440001221a7040f20843c2f20003ff225a70dd
:1003540040f20843c2f20003f0229a7040f20843cc
:10036400c2f200030f22da70022000f09efa00f0bd
:1003740098ff40f20843c2f200031a0040f2e83149
:10038400022000f02cfc0021002000f0c5fb00f04e
:10039400d1fe00f075ff0121012000f029fdc046c7
:1003a40040f69203c2f200031b78dbb2002bf7d0b5
:1003b40040f67003c2f2000300221a6040f6920372
:1003c400c2f2000300221a700021012000f010fd87
:1003d400c04640f69203c2f200031b78dbb2002b46
:1003e400f7d040f67003c2f2000300221a6040f610
:0c03f4009203c2f2000300221a70cce752
:020000040000fa
:1004000080b500af40f20043c4f200231b7edbb294
:100410001a000123134063b340f69303c2f20003b2
:100420001b78dbb22bbb40f67403c2f200031a68e0
:1004300040f69003c2f200031b889bb2d3181b78ce
:10044000d9b240f20043c4f200239a6a40f200435a
:10045000c4f200230a439a6240f69003c2f20003fa
:100460001b889bb201339ab240f69003c2f200039c
:100470001a8040f69003c2f200031b889ab240f63d
:100480008e03c2f200031b889bb29a422ed140f623
:100490009003c2f2000300221a8040f68e03c2f2db
:1004a000000300221a8040f20043c4f200231b7da7
:1004b000dab240f20043c4f2002301210a43d2b26f
:1004c0001a75c04640f20043c4f200231b7edbb223
:1004d0001a0001231340002bf4d040f67803c2f237
:1004e00000031b68dbb2180000f0acfdc046bd463f
:0204f00080bdcd
:020000040000fa
:1004f20090b583b000af02003960fb1d1a70fb1d7e
:100502001b787f2b2fd84ef20013cef20003fa1d78
:10051200127852b29208c0329200d358fa1d127861
:10052200110003220a40d200ff2191400a00d24367
:100532001a4010003b689b01ff221a40fb1d1b78ea
:10054200190003230b40db009a4011004ef2001306
:10055200cef20003fa1d127852b292080143c03261
:100562009200d15037e04ef60053cef20003fa1d4e
:10057200127811000f220a40083a920806329200bd
:100582009b1804331b68fa1d1278110003220a40db
:10059200d200ff2191400a00d2431a4010003b686a
:1005a2009b01ff221a40fb1d1b78190003230b40fd
:1005b200db009a404ef60053cef20003f91d097893
:1005c2000c000f21214008398908024306318900b5
:0e05d2005b1804331a60c046bd4603b090bdee
:020000040000fa
:1005e00090b583b000af02003960fb1d1a70fb1d8f
:1005f0001b787f2b2fd84ef20013cef20003fa1d8a
:10060000127852b29208c0329200d358fa1d127872
:10061000110003220a40d200ff2191400a00d24378
:100620001a4010003b689b01ff221a40fb1d1b78fb
:10063000190003230b40db009a4011004ef2001317
:10064000cef20003fa1d127852b292080143c03272
:100650009200d15037e04ef60053cef20003fa1d5f
:10066000127811000f220a40083a920806329200ce
:100670009b1804331b68fa1d1278110003220a40ec
:10068000d200ff2191400a00d2431a4010003b687b
:100690009b01ff221a40fb1d1b78190003230b400e
:1006a000db009a404ef60053cef20003f91d0978a4
:1006b0000c000f21214008398908024306318900c6
:0e06c0005b1804331a60c046bd4603b090bdff
:020000040000fa
:1006ce0090b585b000af0200fb1d1a70bb1d0a1c51
:1006de001a700e23fb18fa1d127852081a700d208c
:1006ee003b18fa1d127801210a401a700f217b184f
:1006fe00ba1d12781a703b181b7823b17b187a1822
:10070e00127812011a7043f20003c4f20003fa1dac
:10071e00127840219b185b181b78d9b243f2000364
:10072e00c4f20003fa1d127801200143c8b2402121
:10073e009b185b18021c1a7043f20003c4f20003ec
:10074e000e243a19127830219b185b181b78d8b2f8
:10075e0043f20003c4f200033a1912780f217918fc
:10076e0009780143c8b230219b185b18021c1a701d
:08077e00c046bd4605b090bd68
:020000040000fa
:1007860080b500af41f60043c4f200038022412148
:100796009950c04641f60043c4f2000380229b589c
:1007a60040221340402bf5d141f20003c4f200036e
:1007b60020225a6341f20003c4f200033f221a6367
:1007c600c04641f20003c4f200033c229b5cdbb24c
:1007d6001a0004231340042bf3d041f20003c4f2a1
:1007e60000032c2202219954c04641f20003c4f2b0
:1007f60000033c229b5cdbb21a0002231340022b4f
:10080600f3d0c04641f20003c4f2000340229b5cd1
:10081600dbb21a0003231340032bf3d1c046bd46b7
:0208260080bd93
:020000040000fa
:1008280080b500af41f20003c4f200239b7adbb22b
:100838001a00012313409bb340f67003c2f2000371
:100848001b685a1c40f67003c2f200031a6040f697
:100858007003c2f200031b6840f6c41293420bd126
:1008680040f69203c2f2000301221a7040f67003a8
:10087800c2f2000300221a6041f20003c4f200230e
:1008880000221a7541f20003c4f200239b7adab2ff
:1008980041f20003c4f2002301210a43d2b29a7242
:0608a800c046bd4680bd04
:020000040000fa
:1008ae0080b582b000af0200fb1d1a70032102203a
:1008be00fff706ff03210320fff702ff03210420a9
:1008ce00fff7fefe03210520fff7fafe41f6004377
:1008de00c4f20003ac229a5841f60043c4f200035e
:1008ee0040210a43ac215a5040f20043c4f2002387
:1008fe00fa1d12781a7340f20043c4f200238822c4
:10090e0092025a6040f20043c4f200238e22c1f2da
:10091e0030021a6003211620fff75bfec046bd466b
:04092e0002b080bdd6
:020000040000fa
:10093200f0b51600050002278369426987b0029369
:10094200d31a03939b1904910596019302ac3a00c2
:100952002100286800f070fc019b984208d1ab6826
:10096200ea68ab619a18aa626b61300007b0f0bd09
:1009720000280cda102200236968ab620a43ab61db
:100982006b616a60022f12d06368f61aede7019b71
:100992001b1a01936368984202d9c01a0834013fb6
:1009a20023681b1823606368181a6060cfe71e0073
:0209b200dbe781
:020000040000fa
:1009b400f7b51e4c256801942b0065b1002229006f
:1009c400160013000f68bc460f6984450ad132b182
:1009d40017610b0010331800febd3900f2e7019bcc
:1009e4001f60f6e7844503d9d3b11c68a44517d327
:1009f4000a00002ff1d1002bedd01f001a681969ed
:100a0400121a1037102a05d918603818016101002c
:100a1400103a02609d4206d1019b19603b00dae75f
:100a240016000b00e4e73161f8e7c04684080020b3
:020000040000fa
:100a3400f8b5846a05000f00160054b1ab6a6a6900
:100a44009b1ab3420cd2320039002800fff76fff23
:100a540005e000f08bfc03002000002beed0f8bd75
:100a6400002ef0d02b0034331b785bb2002b1bdb41
:100a74003400dbb2621eb95c994212d12200390003
:100a84002800fff754ffa042e9d33f19341b22008a
:100a94003900686900f0a2fc6b6930001c196c61b4
:0c0aa400dde71400002ae5d13400f0e783
:020000040000fa
:100ab00080b500af40f20043c4f2000300221a8167
:100ac00040f20043c4f200039b79dab240f20043e3
:100ad000c4f2000301210a43d2b29a7140f20043ea
:100ae000c4f200039b78dbb21a0003231340022bed
:100af00011d040f20043c4f2000302229a70c046b3
:100b000040f20043c4f200039b79dbb21a000123d8
:0c0b10001340002bf4d0c046bd4680bd51
:020000040000fa
:100b1c0080b582b000af0200fb1d1a70bb1d0a1c11
:100b2c001a7041f60043c4f20003b8229a5841f6f9
:100b3c000043c4f2000340210a43b8215a5041f249
:100b4c000003c4f2002301221a7141f20003c4f223
:100b5c0000231a6841f20003c4f2002340f204118e
:100b6c000a431a6003212220fff7bdfcc046bd4694
:040b7c0002b080bd86
:020000040000fa
:100b80007fb51600c2680d0013000091591e8b41fd
:100b9000f31a0193836804000392694602220068f5
:100ba000029300f036fb002808dc182208230240dc
:100bb000534062681343636006000fe0019b834269
:100bc000fad2a268c01ae3681018e26320642bb15d
:100bd000531ce3631378ad19013d2b70300004b052
:020be00070bde6
:020000040000fa
:100be20080b582b000af3a60fb1d021c1a703b1d3b
:100bf2000a1c1a80fb1d1b78dbb20021180000f0d2
:100c0200f8f8fb1d1b78dbb21a0040f67803c2f23b
:100c120000031a603b1d1b889ab240f68e03c2f293
:100c220000031a8040f67403c2f200033a681a60a5
:0c0c320000f097fac046bd4602b080bd3d
:020000040000fa
:020c3e007047fd
:020000040000fa
:100c400000230e4a10b513600d4a0e4c13600e4a75
:100c500013600e4a13600e4a13600e4a536213610a
:100c60000133936000f0eafb00f035fa0a4b9c4236
:100c700000d310bd08cc9847f8e7c0468008002094
:100c8000fc07002000010000f8070020f00700200a
:0c0c9000f4070020000800200401000010
:020000040000fa
:100c9c0037b5144d04002b6873b100f00ffb0190b5
:100cac0001a800f081fb0f230f309843019900f04d
:100cbc0033fb58b100232b6004b901340f230f34dc
:100ccc009c4324b90c222000074b1a603ebd042c17
:100cdc0000d204242000fff767fe0028f6d0031f83
:0c0cec001c60f3e780090020880800204d
:020000040000fa
:100cf80070b504000d0008b9002070bd43689b065c
:100d080007d543698269934215d80023a362a3617a
:100d18006361e16b236c994204d2c91a01222068ed
:100d280000f0b3fb00232364e363002de4d02068c4
:100d380000f0a4fbe1e70022c36a11009847636949
:0a0d4800002be2d101204042d7e762
:020000040000fa
:100d520010b540f63f43c0f20003984740f63f43c8
:100d6200c0f20003984700f0b6f940f20003c0f267
:100d720000037f2293434ef60052cef200029360ac
:100d820040f64143c0f20003984740f63f43c0f2a9
:100d92000003984740f63f43c0f200039847fff72d
:040da200b0fafee7be
:020000040000fa
:100da60080b582b000af78600a00fb1c1a70fb1c8d
:100db6001b7863b1796843f20003c4f200035a68f2
:100dc60043f20003c4f200030a435a600be0796859
:100dd60043f20003c4f200039a6843f20003c4f22c
:0e0de60000030a439a60c046bd4602b080bdbd
:020000040000fa
:100df40080b582b000af78600a00fb1c1a70fb1c3f
:100e04001b7863b1796843f20003c4f200039a6962
:100e140043f20003c4f200030a439a610be07968c9
:100e240043f20003c4f200035a6943f20003c4f21c
:0e0e340000030a435a61c046bd4602b080bdad
:020000040000fa
:100e420080b582b000af0200fb1d1a70fb1d1b783b
:100e52007f2b17d8fb1d1b781a001f231a40110085
:100e62004ef20013cef20003fa1d127852b252096a
:100e720001208840010020329200d150bff34f8ff1
:0c0e8200bff36f8fc046bd4602b080bdbc
:020000040000fa
:020e8e00fee77d
:020000040000fa
:100e900070b5040016001d00022a1ad043689b0694
:100ea00017d439b90db940f2004528000830fff7d2
:100eb000f5fe010020236268a160134363602300f4
:100ec000e5603433ff22012e00d10a221a70024b52
:0c0ed000e362002070bdc046350a00003f
:020000040000fa
:100edc0080b582b000af0200fb1d1a70fb1d1b78a1
:100eec007f2b12d8fb1d1b781a001f231a401100f0
:100efc004ef20013cef20003fa1d127852b25209d0
:100f0c000120884001009200d150c046bd4602b07d
:020f1c0080bd96
:020000040000fa
:100f1e0080b582b000af0200fb1d1a70fb1d1b785e
:100f2e007f2b12d8fb1d1b781a001f231a401100ad
:100f3e004ef20013cef20003fa1d127852b252098d
:100f4e000120884001009200d150c046bd4602b03b
:020f5e0080bd54
:020000040000fa
:100f600010b5054c227832b9044b13b1044800e0a7
:100f700000bf0123237010bd4008002000000000c6
:100f800000000000034b10b51bb10349034800e00b
:100f900000bf10bd00000000440800200000000059
:020000040000fa
:100fa00080b582b000affb1d00221a700fe043f243
:100fb0000003c4f20003fa1d127840219b185b184d
:100fc00002221a70fb1d1a78fb1d01321a70fb1ddc
:0e0fd0001b781f2bebd9c046bd4602b080bd7a
:020000040000fa
:100fde0080b582b000af786044f20003c4f2001313
:100fee0004225a60fff75dfd00f00cf800f075f971
:100ffe0000f030f900f02afa00f011fac046bd46b2
:04100e0002b080bdef
:020000040000fa
:1010120080b500af40f69803c2f200031b681b685c
:101022000021180000f0eff940f67c13c2f2000331
:101032001b681b680021180000f0e5f9c046bd4698
:0210420080bd6f
:020000040000fa
:1010440080b582b000af0200fb1d1a7000f09ef85c
:1010540040f67803c2f2000300221a60fb1d1b78dd
:10106400dbb201211800fff7c3fec046bd4602b043
:0210740080bd3d
:020000040000fa
:1010760080b500af41f60043c4f2000340f2071208
:10108600c0f202021a62c04641f60043c4f20003ef
:101096005b6804221340042bf6d0c046bd4680bdd3
:020000040000fa
:1010a60080b500af41f60043c4f2000340f20512da
:1010b600c0f204025a62c04641f60043c4f200037d
:1010c6005b6808221340082bf6d0c046bd4680bd9b
:020000040000fa
:0210d600704761
:020000040000fa
:1010d80010b50948016811b9436803b910bd040087
:1010e8008368064a9bb20c349b009b5842682000d8
:1010f800984780002018ede714010000cc13000089
:020000040000fa
:10110800064b1a680ab9064a1a60064a116809b9ec
:10111800054911601a68054b1a6070476408002079
:101128008809002060080020880b00205c08002047
:020000040000fa
:1011380080b500af41f20003c4f200235b7adab253
:1011480041f20003c4f2002301210a43d2b25a72c9
:0c1158002220fff7bffec046bd4680bd50
:020000040000fa
:1011640080b500af40f20043c4f200239b7ddab2a5
:1011740040f20043c4f2002303210a43d2b29a7519
:0c1184001620fff7cafec046bd4680bd25
:020000040000fa
:1011900080b500af40f20043c4f200231b7ddab2f9
:1011a00040f20043c4f2002303210a43d2b21a756d
:0c11b0001620fff746fec046bd4680bd7d
:020000040000fa
:1011bc0070b5084c050023680bb9fff79fff064a72
:1011cc00206812684519aa4201d3256070bd012020
:0c11dc004042fbe75c0800206008002097
:020000040000fa
:1011e800020000234832d356591e0b4313700423c0
:1011f800426813402bb1102313434360012040423f
:0a12080070470364c3631800fae79f
:020000040000fa
:10121200f7b5002507000c002e000192019b9e42ab
:1012220001db2800febd62682168380000f087f803
:0812320001362d180834f1e724
:020000040000fa
:10123a00f7b5002507000c002e000192019b9e4283
:10124a0001db2800febd62682168380000f07ff8e3
:08125a0001362d180834f1e7fc
:020000040000fa
:1012620080b500af44f20003c4f2001302225a60b8
:1012720044f20003c4f2001301221a72c046bd46b2
:0212820080bd2d
:020000040000fa
:1012840080b500af41f20003c4f200231a6841f2b2
:101294000003c4f2002302210a431a60c046bd467b
:0212a40080bd0b
:020000040000fa
:1012a60080b500af40f20043c4f200231a6840f252
:1012b6000043c4f2002302210a431a60c046bd4619
:0212c60080bde9
:020000040000fa
:1012c80010b5054c22680ab9fff71aff034b1868d6
:1012d8002368c01a10bdc0465c08002060080020c2
:020000040000fa
:1012e80080b500af00f04cf800f055f8fff7d7fed6
:0e12f800fff745fafff7bbfec046bd4680bdbe
:020000040000fa
:10130600002310b5934206d103201840421e904197
:0e1316009b08c01810bdc45ccc540133f2e734
:020000040000fa
:10132400054a10b5146800231cb9106003610160fc
:0c1334000133180010bdc04684080020e2
:020000040000fa
:1013400080b584b000aff860b9607a6001235b4279
:081350001800bd4604b080bd89
:020000040000fa
:1013580080b584b000aff860b9607a6001235b4261
:081368001800bd4604b080bd71
:020000040000fa
:1013700010b50400fff738ff28b9a368e268a3613d
:0813800063619b18a36210bd1c
:020000040000fa
:1013880080b500af41f20003c4f2000302221a76ce
:06139800c046bd4680bd09
:020000040000fa
:10139e0080b500af41f20043c4f2000300221a747c
:0613ae00c046bd4680bdf3
:020000040000fa
:1013b400006810b5002801da002010bdfff7fcfe1c
:0613c400431cfad1f8e71a
:020000040000fa
:0213ca0070476a
:020000040000fa
:1013cc001b140000071300008b1400008b1400008a
:0413dc008b1400006e
:020000040000fa
:1013e00010b52ab10023cc5cc45401339342fad126
:0413f00010bdc04626
:020000040000fa
:1013f40010b500f03bf8024b1860586010bdc046b1
:041404006808002054
:020000040000fa
:101408004a424a4110b5520040f20043fff73cfd02
:0214180010bd05
:020000040000fa
:10141a008a18914201d10020704700230b700131d4
:02142a00f7e7e2
:020000040000fa
:10142c0080b500afbff35f8f62b6c046bd4680bdce
:020000040000fa
:10143c0010b5fff7d9fffff7c2fffff7c0ff10bdd4
:020000040000fa
:0e144c0080b500affff7eaf9c046bd4680bd8f
:020000040000fa
:0a145a0080b500afc046bd4680bd5e
:020000040000fa
:0a14640010b50068fff776ff10bd19
:020000040000fa
:02146e007047c5
:020000040000fa
:0814700000487047000900204c
:020000040000fa
:0614780080b500affee7a5
:020000040000fa
:06147e0080b500affee79f
:020000040000fa
:0614840001204042704708
:020000040000fa
:04148a000020704787
:020000040000fa
:04148e000020704783
:020000040000fa
:04149200002070477f
:020000040000fa
:0200000400807a
:044000007f438fb0bb
:020000040000fa
:0200000400807a
:04400400bbfcffff03
:020000040000fa
:0200000400807a
:04c0040000ffffff3b
:020000040000fa
:0200000400807a
:04c04000ffffffff00
:020000040000fa
:0200000400807a
:04c04400fffffffffc
:020000040000fa
:0200000400807a
:04c04800fffffffff8
:020000040000fa
:0200000400807a
:04c04c00fffffffff4
:00000001FF
