:020000040000fa
:10000000f00f0020cf0d0000f5140000f9140000df
:1000100000000000000000000000000000000000e0
:10002000000000000000000000000000bb0c000009
:100030000000000000000000bb0c0000bb0c000032
:10004000bb0c0000bb0c0000bb0c0000bb0c000094
:10005000bb0c0000bb0c0000bb0c0000bb0c000084
:10006000bb0c0000bb0c0000bb0c0000bb0c000074
:10007000bb0c0000bb0c0000bb0c0000bb0c000064
:10008000bb0c0000bb0c0000bb0c0000bb0c000054
:10009000bb0c0000bb0c000029040000bb0c0000de
:1000a000bb0c0000bb0c0000bb0c0000e50700000f
:1000b00025060000bb0c000000000000000000004e
:1000c0000000000000000000d1140000bb0c000084
:1000d000bb0c0000bb0c0000bb0c0000bb0c000004
:1000e000bb0c0000bb0c0000bb0c0000bb0c0000f4
:0400f000bb0c000045
:020000040000fa
:1000f400f8b5c046f8bc08bc9e4670471d10000009
:10010400f8b5c046f8bc08bc9e467047f90f00001d
:020000040000fa
:10011400780400201c00000000000000da04002025
:100124000100000000000000a804002004000000fa
:1001340000000000ac0400200400000000000000e7
:10014400db0400200200000000000000b0040020d6
:1001540004000000000000007604002002000000fb
:1001640000000000cc040020020000000000000099
:10017400dd0400200100000000000000b4040020a1
:100184000400000000000000ce040020080000006d
:1001940000000000b804002004000000000000007b
:1001a400d60400200200000000000000de0400204d
:1001b4000200000000000000d8040020020000003b
:1001c40000000000d805002002000000010000002b
:1001d40088130000cc050020080000000100000086
:1001e400b405b405b4056c02580400201e000000d8
:1001f40000000000bc040020040000000000000017
:10020400080400205000000000000000e00400206a
:100214006c00000001000000ec040020e804002051
:10022400ec0400200000000025000000080000206d
:1002340000040000000000000000000000000000b6
:1002440000000000000000000000000000000000aa
:100254000000000001150000000000000000000084
:100264000000000000000000590c00000000000025
:10027400000000000000000000000000000000007a
:10028400000000000000002008040000000000003e
:10029400ac05002020000000010000000100000067
:1002a4000300000000000000000000000000000047
:1002b4000000000000000000a0040020a0040020b2
:1002c4000800000000000000c0040020040000003a
:1002d400000000004c050020600000000100000048
:1002e4000100000003000000000000000000000006
:1002f400000000000000000000000000750d000078
:10030400000000000000000000000000ad14000028
:100314000f130000000000000000000000000000b7
:1003240000000000000000000000000000000000c9
:1003340000000000000000000000000000000000b9
:10034400d4050020040000000100000001000000aa
:10035400c4040020080000000000000094040020f1
:100364000c0000000000000000000000000000007d
:020000040000fa
:1003740010b5052001f002f8002140f2001000f051
:10038400c5ff012140f2001000f0ceff0a2000f06a
:10039400f5ff002140f2001000f0c6ff0a2000f033
:1003a400edff40f20010012100f0beff142000f028
:1003b400e5ff0e2144f2000000f0c4ff0028f8d14c
:1003c400002148f2000000f0afff8020400200f05e
:1003d4004dff122000f028ff48f20000012100f038
:1003e400a3ff8020400200f0fdfb0e2144f2000038
:1003f40000f0a8ff0028f8d18020400200f036ff6a
:100404001a2000f053ff142000f00eff222000f009
:100414004dffd72000f008ff8020400200f0e2fbef
:0404240010bdc04601
:020000040000fa
:1004280040f2004210b5c4f20022137edb070cd460
:1004380040f2cc43c2f200031a8840f27643c2f27b
:1004480000031b889a4226d010bd40f2db43c2f25b
:1004580000031978a1b940f2dc41c2f20001097821
:1004680071b140f2cc4340f2ac40c2f20003c2f298
:1004780000001c88016809190978c9b2916205e071
:100488001b78c3b140f2cc43c2f200031a88013290
:1004980092b21a80d0e740f200420121c4f2002251
:1004a800137e1942fcd040f2b043c2f20003186830
:1004b80000f096fbc8e740f2ac4340f20042c2f2bb
:1004c80000031b68c4f200221b78dbb29362d9e7f1
:020000040000fa
:1004d80041f200030222c4f200031a7641f20043fb
:1004e8000022c4f200031a7441f6004240f20513d8
:1004f8000821c4f20002c0f204035362536819428f
:10050800fcd141218023d15041f600428020c4f221
:100518000002013913581942fcd041f2000220238d
:100528003c200421c4f2000253631f331363135c9d
:100538001942fcd12c230221d15441f200023c2063
:10054800c4f20002135c1942fcd141f200024020bf
:100558000321c4f20002135c0b40032bfbd141f6cc
:10056800004204210533ff33c4f20002c0f2020343
:0c057800136253681942fcd17047c04662
:020000040000fa
:1005840000b583b000f0d4fd00f09efc0028fbd140
:1005940040f2584340f6b4710090c2f200031022b6
:1005a400c0f200011d3000f061f900f06ffe002878
:1005b400fbd140f2584340f6d4710090c2f20003dc
:1005c4000722c0f200010e3000f050f900f05efe88
:1005d4000028fbd1012340f6e471009340f2584314
:1005e4000122c2f20003c0f20001013000f03ef922
:1005f40000f04cfe0028fbd140f2584340f6e8716d
:100604000090c2f200030722c0f200010d3000f096
:100614002df900f03bfe0028fbd103b000bdc0461d
:020000040000fa
:1006240040f2dd4310b5c2f200031b780bbb40f669
:1006340000020121c4f20022137e1942fcd040f2d0
:10064400d24340f2b441c2f20003c2f20001148d5d
:10065400096818880c541988013189b2198040f24c
:10066400ce41c2f20001098818880139884209d0b4
:1006740010bd40f60003c4f20023188dc0b200f090
:100684001bf8f5e704211175002119800623802148
:1006940013754ef200138022cef20003090599501f
:1006a400bff34f8fbff36f8f49009950bff34f8f44
:0806b400bff36f8fdce7c046c5
:020000040000fa
:1006bc0040f2df4270b5c2f200021378002b2fd04b
:1006cc0040f2004340f2de4540f2d841c4f2002330
:1006dc00986240f2cc50c2f20005c2f200012c78b4
:1006ec000b88c2f2000066000133305a9bb20b80bb
:1006fc0098420fd040f2d64440f2d852c2f20004d5
:10070c002388c2f20002013312889bb223809a42e2
:10071c000bd070bd002301342c700b801370e9e7f3
:10072c003a28f6d101331370f3e740f600030422a4
:10073c008020c4f200231a75400200f04ffa002307
:08074c002b702380e5e7c04695
:020000040000fa
:1007540010b5002000f008fc41f6004342f20512f7
:10076400c4f200031a62022000f054fe00f04afdb5
:1007740080200021c00200f0c9fd00f0f7f900f06c
:100784003ffe022000f0b6f900f030fe00f052fc0b
:1007940000f034f900f07afd0028fbd140f2da448d
:1007a400002100f067fbc2f2000400f04ffd00f0ee
:1007b40013fe00e030bf2378002bfbd18020012101
:1007c400c00200f0b1fd23781bb930bf2378002ba1
:1007d400fbd080200021c00200f0a6fdebe7c0465c
:020000040000fa
:1007e40040f60003c4f200231a7e92071bd50121b0
:1007f4001a7e1142fcd040f2d44240f2b841c2f217
:100804000002c2f2000110880968095c1985118888
:10081400013189b2118040f2d041c2f20001108846
:100824000988814200d07047022119750021118086
:1008340040f2ce42c2f20002128812b104229a752a
:10084400f1e7062280211a754ef200137a32cef2b5
:10085400000309059950bff34f8fbff36f8f490011
:0c0864009950bff34f8fbff36f8fdce79c
:020000040000fa
:1008700030b503ac257840f2dd44c2f200042570a7
:1008800040f2b844c2f20004216040f2b444c2f223
:100890000004236040f2d043c2f20003188040f20b
:1008a000ce43c2f200031a8040f60003c4f20023d4
:1008b000fdb904221a75c8b10a781a8540f2d442eb
:1008c000c2f20002138801339bb2138040f600038a
:1008d0000622c4f200239a754ef200138022cef253
:1008e000000312051a6052001a6030bd02221a7508
:0c08f000e2e702221a750a781a85e7e791
:020000040000fa
:1008fc00f0b51600050002278369426987b00293a0
:10090c00d31a03939b1904910596019302ac3a00f8
:10091c002100286800f05dfc019b984208d1ab686f
:10092c00ea68ab619a18aa626b61300007b0f0bd3f
:10093c0000280cda102200236968ab620a43ab6111
:10094c006b616a60022f12d06368f61aede7019ba7
:10095c001b1a01936368984202d9c01a0834013fec
:10096c0023681b1823606368181a6060cfe71e00a9
:02097c00dbe7b7
:020000040000fa
:02097e007047c0
:020000040000fa
:10098000f7b51e4c256801942b0065b100222900a3
:10099000160013000f68bc460f6984450ad132b1b6
:1009a00017610b0010331800febd3900f2e7019b00
:1009b0001f60f6e7844503d9d3b11c68a44517d35b
:1009c0000a00002ff1d1002bedd01f001a68196921
:1009d000121a1037102a05d9186038180161010061
:1009e000103a02609d4206d1019b19603b00dae794
:1009f00016000b00e4e73161f8e7c046c4040020ac
:020000040000fa
:100a000010b5fff7b7fc8020400200f031fc242035
:100a100000f04efcfff7b6fd8020400200f0e4f845
:100a20008020400200f024fc262000f041fc41f22e
:100a30008834013c0020a4b200f0f8fb002cf8d16f
:100a40008020400200f0d0f80e2144f2000000f0b7
:100a50007bfc0028f8d18020400200f009fc202017
:100a600000f026fc8020400200f0bef80e2144f287
:0c0a7000000000f069fc0028f8d110bd67
:020000040000fa
:100a7c00f8b5846a05000f00160054b1ab6a6a69b8
:100a8c009b1ab3420cd2320039002800fff730ff1a
:100a9c0005e000f07bfc03002000002beed0f8bd3d
:100aac00002ef0d02b0034331b785bb2002b1bdbf9
:100abc003400dbb2621eb95c994212d122003900bb
:100acc002800fff715ffa042e9d33f19341b220081
:100adc003900686900f0aefc6b6930001c196c6160
:0c0aec00dde71400002ae5d13400f0e73b
:020000040000fa
:100af80010b500210400102000f006fc0021102091
:100b080000f010fc0021202000f0fefb0021202036
:100b180000f008fc0321042000f0aafa03210520b4
:100b280000f0a6fa41f60043ac224021c4f20003cb
:100b3800995040f200430022c4f200231c735a600b
:100b48008c32c1f230021a604ef2001340f21430b7
:100b5800cef200031a5803491140c02212040a4376
:080b68001a5010bdffff00ff51
:020000040000fa
:100b700041f6004310b5b0224024c4f200039c505b
:100b80000121022000f0c4fb0021012000f0c0fb85
:100b90000321002000f070fa0321012000f06cfa1c
:100ba00040f600030f4ac4f200239a818422c4f263
:100bb00010021a60c02292025a604ef2001340f2f4
:100bc00018308021cef200031a5809061202120ac8
:100bd0000a4340f21c311a50ff205a5882432243e4
:080be0005a5010bd2bf6ffff77
:020000040000fa
:100be80000b583b001900198012100f09bfb40f211
:100bf80000430121c4f200231a7d0a431a7580219b
:100c08004ef200138022cef20003c9039950bff3bd
:100c18004f8fbff36f8f40f2b0420023c2f2000241
:100c2800136040f2db42c2f20002137040f2dc4271
:100c3800c2f20002137040f2cc42c2f200021380ea
:100c480040f27642c2f20002138003b000bdc046f3
:020000040000fa
:100c58007fb51600c2680d0013000091591e8b4124
:100c6800f31a01938368040003926946022200681c
:100c7800029300f09cfa002808dc1822082302409e
:100c8800534062681343636006000fe0019b834290
:100c9800fad2a268c01ae3681018e26320642bb184
:100ca800531ce3631378ad19013d2b70300004b079
:020cb80070bd0d
:020000040000fa
:020cba00fee753
:020000040000fa
:100cbc0000230e4a10b513600d4a0e4c13600e4af9
:100ccc0013600e4a13600e4a13600e4a536213618e
:100cdc000133936000f0dcfb00f09df80a4b9c4262
:100cec0000d310bd08cc9847f8e7c046c0040020dc
:100cfc00140400200001000010040020080400204f
:0c0d0c000c04002018040020040100006a
:020000040000fa
:100d180037b5144d04002b6873b100f0d5fa019073
:100d280001a800f041fb0f230f309843019900f010
:100d380015fb58b100232b6004b901340f230f347d
:100d48009c4324b90c222000074b1a603ebd042c9a
:100d580000d204242000fff70ffe0028f6d0031f5e
:0c0d68001c60f3e7d4050020c804002044
:020000040000fa
:100d740070b504000d0008b9002070bd43689b06df
:100d840007d543698269934215d80023a362a361fe
:100d94006361e16b236c994204d2c91a0122206871
:100da40000f0aefb00232364e363002de4d020684d
:100db40000f098fbe1e70022c36a110098476369d9
:0a0dc400002be2d101204042d7e7e6
:020000040000fa
:100dce0010b540f67f13c0f20003984740f67f132c
:100dde00c0f20003984700f060f940f20003c0f241
:100dee0000037f2293434ef60052cef20002936030
:100dfe0040f6bd43c0f20003984740f67f13c0f2a1
:100e0e000003984740f67f13c0f200039847fff7a0
:040e1e009afcfee755
:020000040000fa
:020e2200704717
:020000040000fa
:100e240041f20003c4f200239b7adb0715d540f29c
:100e3400a843c2f200031a6801321a6040f6c412d1
:100e4400196891420ad041f2000300220121c4f240
:100e540000231a759a7a0a439a72704740f2da416b
:100e6400c2f200010a78d243d2b20a7000221a6098
:040e7400e9e7c046a4
:020000040000fa
:100e780082b06b46d8716b46997141f60043b82130
:100e88004020c4f200035a5802435a5041f200036a
:100e98000122c4f200231a711a684c310a431a60fd
:100ea8004ef2001340f22030cef200031a580449e3
:100eb8001140c02212040a431a5002b07047c046bb
:040ec800ffff00ff29
:020000040000fa
:100ecc00002330b583b0009341f28c4140f258437b
:100edc000722c2f20003c0f200010420fff7c2fc9b
:100eec0000f0d0f90028fbd140f2584400230d2229
:100efc00c2f20004e15c064d914206d1052b05d0ef
:100f0c00ea5c0133e15c9142f8d0012003b030bdc2
:040f1c009514000028
:020000040000fa
:100f200070b5040016001d00022a1ad043689b0603
:100f300017d439b90db940f2004528000830fff741
:100f4000ebfe010020236268a1601343636023006d
:100f5000e5603433ff22012e00d10a221a70024bc1
:0c0f6000e362002070bdc0467d0a000066
:020000040000fa
:100f6c0044f200030422c4f2001310b55a6000f0de
:100f7c00c5f840f2e443c2f200031b680021186874
:100f8c0000f06cfa40f2c853c2f200031b68002157
:100f9c00186800f063fafff799fa00f00ffa00f006
:080fac00a1fa00f083fa10bd68
:020000040000fa
:100fb40041542b43495053544152543d22544350bd
:100fc400222c224950222c373737370d0a000000d3
:100fd40041542b43495053454e443d310d0a0000c2
:100fe4006100000041542b434950434c4f53450d7d
:040ff4000a00c046e9
:020000040000fa
:100ff80010b5054c227832b9044b13b1044800e00f
:1010080000bf0123237010bd7804002000000000f9
:1010180000000000034b10b51bb10349034800e072
:1010280000bf10bd000000007c040020000000008c
:020000040000fa
:1010380010b58024002148f2000000f065f9640230
:10104800012140f2001000f05ff92000002100f0bb
:101058005bf9012144f2000000f056f9200001215b
:1010680000f060f9012148f2000000f05bf910bdc2
:020000040000fa
:101078004308c20701d50901c9b243f24002c4f2cc
:101088000002944601226044027043f23002c4f226
:101098000002944663441a780a431a707047c0469f
:020000040000fa
:1010a80010b50948016811b9436803b910bd0400b7
:1010b8008368064a9bb20c349b009b584268200008
:1010c800984780002018ede7140100002c14000058
:020000040000fa
:1010d800064b1a680ab9064a1a60064a116809b91d
:1010e800054911601a68054b1a6070479c04002076
:1010f800e005002098040020e00700209404002068
:020000040000fa
:1011080040f2004300220121c4f200031a819a79b7
:101118000a439a71032299780a40022a05d00222ca
:0c11280001219a709a791142fcd07047a6
:020000040000fa
:10113400002300b583b0009341f2d84140f25843f4
:101144000722c2f20003c0f200010620fff78efb63
:0c11540000f09cf80028fbd103b000bda7
:020000040000fa
:1011600070b5084c050023680bb9fff7b5ff064ab8
:10117000206812684519aa4201d3256070bd01207c
:0c1180004042fbe794040020980400208b
:020000040000fa
:10118c00020000234832d356591e0b43137004231c
:10119c00426813402bb1102313434360012040429b
:0a11ac0070470364c3631800fae7fc
:020000040000fa
:1011b600f7b5002507000c002e000192019b9e4208
:1011c60001db2800febd62682168380000f075f971
:0811d60001362d180834f1e781
:020000040000fa
:1011de00f7b5002507000c002e000192019b9e42e0
:1011ee0001db2800febd62682168380000f065f959
:0811fe0001362d180834f1e759
:020000040000fa
:0212060070472f
:020000040000fa
:1012080043f2000000230221c4f2000043f240022e
:10121800c4f200029a1801331170202bf6d1213b39
:0412280003607047a8
:020000040000fa
:10122c0040f200420121c4f20022137e1942fcd08c
:10123c00906240f200420121c4f20022137e194256
:04124c00fcd070471b
:020000040000fa
:1012500041f200030121c4f200235a7a0a435a7270
:101260004ef200130422cef200035a607047c046cb
:020000040000fa
:1012700040f2b04300b583b00190019ac2f200037e
:101280001a600198002100f051f803b000bdc0467b
:020000040000fa
:1012900040f60003c4f200239a7d520704d40220d2
:1012a0009b7d184000b9704730bf0120fbe7c04666
:020000040000fa
:1012b00010b50400002148f2000000f037f82000cb
:1012c000fff7b4ff012148f2000000f02ff810bd35
:020000040000fa
:1012d00010b5054c22680ab9fff7fefe034b1868eb
:1012e0002368c01a10bdc046940400209804002052
:020000040000fa
:1012f000002310b5934206d103201840421e9041ae
:0e1300009b08c01810bdc45ccc540133f2e74a
:020000040000fa
:02130e00704726
:020000040000fa
:1013100043f2000382b00190019ac4f2000311b1bc
:0c1320005a6002b070479a60fbe7c046bc
:020000040000fa
:10132c0043f2000382b00190019ac4f2000311b1a0
:0c133c009a6102b070475a61fbe7c0469e
:020000040000fa
:1013480043f2000382b00190c4f200031b6a0198c3
:0c1358001840c840c0b202b07047c04648
:020000040000fa
:10136400054a10b5146800231cb9106003610160bc
:0c1374000133180010bdc046c404002066
:020000040000fa
:1013800048b1002240f29973c046013b002bfbd1cb
:0813900001329042f6d17047d2
:020000040000fa
:1013980010b50400fff7f6fe28b9a368e268a36158
:0813a80063619b18a36210bdf4
:020000040000fa
:1013b000006810b5002801da002010bdfff7d0fe4c
:0613c000431cfad1f8e71e
:020000040000fa
:1013c80044f200030222c4f200135a60013a1a726e
:0413d8007047c04654
:020000040000fa
:1013dc0041f200030221c4f200231a680a431a6086
:0413ec007047c04640
:020000040000fa
:1013f00040f200430221c4f200231a680a431a6033
:041400007047c0462b
:020000040000fa
:1014040040f600030221c4f200231a680a431a605a
:041414007047c04617
:020000040000fa
:1014180040f20042c4f20002507053788342fcd17b
:041428007047c04603
:020000040000fa
:10142c007b140000f1120000fd140000fd140000fc
:04143c00fd1400009b
:020000040000fa
:1014400010b52ab10023cc5cc45401339342fad1c5
:0414500010bdc046c5
:020000040000fa
:1014540010b500f043f8024b1860586010bdc04648
:04146400a0040020c0
:020000040000fa
:101468004a424a4110b5520040f20043fff754fd8a
:0214780010bda5
:020000040000fa
:10147a008a18914201d10020704700230b70013174
:02148a00f7e782
:020000040000fa
:10148c0041540d0a000000000d0a4f4b0d0a0000dc
:020000040000fa
:10149c0010b5fff7d9fffff7b0fefff7aefe10bd9a
:020000040000fa
:0a14ac0010b5006800f00af810bd4a
:020000040000fa
:0814b800bff35f8f62b67047bd
:020000040000fa
:0814c000012040427047c046c4
:020000040000fa
:0814c800012040427047c046bc
:020000040000fa
:0814d00010b5fff7a7fc10bde9
:020000040000fa
:0814d800415445300d0a0000eb
:020000040000fa
:0814e000004870474c05002094
:020000040000fa
:0614e800012040427047a4
:020000040000fa
:0414f0007047c0463b
:020000040000fa
:0414f400fee7c04609
:020000040000fa
:0414f800fee7c04605
:020000040000fa
:0414fc000020704715
:020000040000fa
:041500000020704710
:020000040000fa
:04150400002070470c
:020000040000fa
:0200000400807a
:044000007f438fb0bb
:020000040000fa
:0200000400807a
:04400400bbfcffff03
:020000040000fa
:0200000400807a
:04c0040000ffffff3b
:020000040000fa
:0200000400807a
:04c04000ffffffff00
:020000040000fa
:0200000400807a
:04c04400fffffffffc
:020000040000fa
:0200000400807a
:04c04800fffffffff8
:020000040000fa
:0200000400807a
:04c04c00fffffffff4
:00000001FF
