:020000040000fa
:10000000f00f0020a70f00008116000087160000e7
:1000100000000000000000000000000000000000e0
:10002000000000000000000000000000c3150000f8
:100030000000000000000000c3150000c315000010
:10004000c3150000c3150000c3150000c315000050
:10005000c3150000c3150000c3150000c315000040
:10006000c3150000c3150000c3150000c315000030
:10007000c3150000c3150000c3150000c315000020
:10008000c3150000c3150000c3150000c315000010
:10009000c3150000c3150000bd050000c315000016
:1000a000c3150000c3150000c315000025030000a0
:1000b000c3150000c3150000000000000000000090
:1000c000000000000000000057160000c3150000eb
:1000d000c3150000c3150000c3150000c3150000c0
:1000e000c3150000c3150000c3150000c3150000b0
:0400f000c315000034
:020000040000fa
:1000f400f8b5c046f8bc08bc9e467047891100009c
:10010400f8b5c046f8bc08bc9e46704765110000af
:020000040000fa
:100114008c0500201c00000000000000bc0500202d
:100124000400000000000000e805002001000000b9
:10013400000000008a05002002000000000000000a
:10014400080400200001000000000000dc0500207d
:100154000400000000000000c005002004000000ae
:1001640000000000e905002002000000000000007b
:10017400c405002004000000000000005805002011
:100184003200000000000000c80500200400000048
:1001940000000000e005002008000000000000004e
:1001a400cc05002004000000000000000805002029
:1001b4005000000000000000ec0500206c0000006e
:1001c40001000000f8050020f4050020f8050020d7
:1001d40000000000250000000800002000040000ca
:1001e400000000000000000000000000000000000b
:1001f40000000000000000000000000000000000fb
:10020400971600000000000000000000000000003d
:1002140000000000d30d00000000000000000000fa
:1002240000000000000000000000000000000000ca
:10023400000000200804000000000000b8060020b0
:100244002000000001000000010000000300000085
:10025400000000000000000000000000000000009a
:1002640000000000b4050020b405002008000000d0
:1002740000000000d0050020040000000000000081
:10028400580600206000000001000000010000008a
:100294000300000000000000000000000000000057
:1002a40000000000000000004d0f000000000000ee
:1002b40000000000000000006f160000a3160000fc
:1002c400000000000000000000000000000000002a
:1002d400000000000000000000000000000000001a
:1002e400000000000000000000000000d80600200c
:1002f400040000000100000001000000d4050020fb
:100304000800000000000000a80500200c00000008
:100314000000000000000000000000006666666641
:020000040000fa
:1003240080b500af40f60003c4f200231b7edbb2ad
:100334001a0004231340002b45d040f2e653c2f2c6
:1003440000031b889ab240f2e253c2f200031b88f6
:100354009a420cd140f60003c4f2002304221a7519
:1003640040f2e653c2f2000300221a802be0c0469a
:1003740040f60003c4f200231b7edbb21a00012303
:100384001340002bf4d040f60003c4f200231b8d6d
:1003940099b240f2e653c2f200031b889bb21a00e2
:1003a400c9b240f25853c2f20003995440f2e653e2
:1003b400c2f200031b889bb201339ab240f2e653a7
:1003c400c2f200031a8040f60003c4f200231b7e2d
:1003d400dbb21a0002231340002b45d040f2e45351
:1003e400c2f200031b889ab240f2e053c2f2000347
:1003f4001b889a420cd140f60003c4f20023022267
:100404001a7540f2e453c2f2000300221a802be072
:10041400c04640f60003c4f200231b7edbb21a0080
:1004240001231340002bf4d040f2c853c2f200035e
:100434001a6840f2e453c2f200031b889bb2d3183b
:100444001a7840f60003c4f2002392b21a8540f2ef
:10045400e453c2f200031b889bb201339ab240f208
:0e046400e453c2f200031a80c046bd4680bdbc
:020000040000fa
:1004720080b582b000af002000f0cdfe41f600430f
:10048200c4f2000342f205121a6200f08afe002151
:10049200012000f0a5fe002140f2001000f0a0feb5
:1004a200012140f2001000f0a7fd0121022000f01e
:1004b20097fe40f28a53c2f2000305221a8040f2ec
:1004c2000843c2f2000301221a7040f20843c2f24a
:1004d2000003ff225a7040f20843c2f20003f022e6
:1004e2009a7040f20843c2f200030f22da7000f061
:1004f200a0fc00f0c5ffbb1d00221a8012e0bb1d4c
:1005020000229a5ebb1d1b88d9b240f20843c2f298
:1005120000039954bb1d00229b5e9bb201339ab229
:10052200bb1d1a80bb1d00229b5eff2be7dd40f244
:100532000843c2f2000332221900322000f0adfa61
:100542000021002000f0e1fb00f0f9fe00f087ff3f
:10055200012140f2001000f04ffdc04640f2e85386
:10056200c2f200031b78dbb2002bf7d040f2bc537f
:10057200c2f2000300221a6040f2e853c2f2000302
:1005820000221a70002140f2001000f035fdc04632
:1005920040f2e853c2f200031b78dbb2002bf7d023
:1005a20040f2bc53c2f2000300221a6040f2e85348
:0a05b200c2f2000300221a70cae72b
:020000040000fa
:1005bc0080b500af40f20043c4f200231b7edbb2d7
:1005cc001a0001231340002b50d040f2e953c2f221
:1005dc0000031b78dbb203bb40f2ea53c2f2000308
:1005ec001b78dbb2cbb140f2c053c2f200031a68e5
:1005fc0040f2de53c2f200031b889bb2d3181b7867
:10060c00d9b240f20043c4f200239a6a40f200438c
:10061c00c4f200230a439a621be040f2e953c2f28f
:10062c0000031b78dbb213b100f0e4ff11e040f2e1
:10063c00c053c2f200031b681b78d9b240f20043ce
:10064c00c4f200239a6a40f20043c4f200230a4326
:10065c009a6240f2de53c2f200031b889bb2013354
:10066c009ab240f2de53c2f200031a8040f2de531b
:10067c00c2f200031b889ab240f2dc53c2f20003b0
:10068c001b889bb29a4222d140f20043c4f2002351
:10069c001b7ddab240f20043c4f2002301210a436d
:1006ac00d2b21a75c04640f20043c4f200231b7e3e
:1006bc00dbb21a0001231340002bf4d040f2c453d8
:1006cc00c2f200031b68dbb2180000f04bfbc04603
:0406dc00bd4680bdda
:020000040000fa
:1006e00090b583b000af02003960fb1d1a70fb1d8e
:1006f0001b787f2b2fd84ef20013cef20003fa1d89
:10070000127852b29208c0329200d358fa1d127871
:10071000110003220a40d200ff2191400a00d24377
:100720001a4010003b689b01ff221a40fb1d1b78fa
:10073000190003230b40db009a4011004ef2001316
:10074000cef20003fa1d127852b292080143c03271
:100750009200d15037e04ef60053cef20003fa1d5e
:10076000127811000f220a40083a920806329200cd
:100770009b1804331b68fa1d1278110003220a40eb
:10078000d200ff2191400a00d2431a4010003b687a
:100790009b01ff221a40fb1d1b78190003230b400d
:1007a000db009a404ef60053cef20003f91d0978a3
:1007b0000c000f21214008398908024306318900c5
:0e07c0005b1804331a60c046bd4603b090bdfe
:020000040000fa
:1007ce0090b583b000af02003960fb1d1a70fb1d9f
:1007de001b787f2b2fd84ef20013cef20003fa1d9a
:1007ee00127852b29208c0329200d358fa1d127883
:1007fe00110003220a40d200ff2191400a00d24389
:10080e001a4010003b689b01ff221a40fb1d1b780b
:10081e00190003230b40db009a4011004ef2001327
:10082e00cef20003fa1d127852b292080143c03282
:10083e009200d15037e04ef60053cef20003fa1d6f
:10084e00127811000f220a40083a920806329200de
:10085e009b1804331b68fa1d1278110003220a40fc
:10086e00d200ff2191400a00d2431a4010003b688b
:10087e009b01ff221a40fb1d1b78190003230b401e
:10088e00db009a404ef60053cef20003f91d0978b4
:10089e000c000f21214008398908024306318900d6
:0e08ae005b1804331a60c046bd4603b090bd0f
:020000040000fa
:1008bc0090b585b000af0200fb1d1a70bb1d0a1c61
:1008cc001a700e23fb18fa1d127852081a700d209c
:1008dc003b18fa1d127801210a401a700f217b185f
:1008ec00ba1d12781a703b181b7823b17b187a1832
:1008fc00127812011a7043f20003c4f20003fa1dbd
:10090c00127840219b185b181b78d9b243f2000374
:10091c00c4f20003fa1d127801200143c8b2402131
:10092c009b185b18021c1a7043f20003c4f20003fc
:10093c000e243a19127830219b185b181b78d8b208
:10094c0043f20003c4f200033a1912780f2179180c
:10095c0009780143c8b230219b185b18021c1a702d
:08096c00c046bd4605b090bd78
:020000040000fa
:1009740080b500af41f60043c4f200038022412158
:100984009950c04641f60043c4f2000380229b58ac
:1009940040221340402bf5d141f20003c4f200037e
:1009a40020225a6341f20003c4f200033f221a6377
:1009b400c04641f20003c4f200033c229b5cdbb25c
:1009c4001a0004231340042bf3d041f20003c4f2b1
:1009d40000032c2202219954c04641f20003c4f2c0
:1009e40000033c229b5cdbb21a0002231340022b5f
:1009f400f3d0c04641f20003c4f2000340229b5ce2
:100a0400dbb21a0003231340032bf3d1c046bd46c7
:020a140080bda3
:020000040000fa
:100a160080b500af41f20003c4f200239b7adbb23b
:100a26001a00012313409bb340f2bc53c2f20003e9
:100a36001b685a1c40f2bc53c2f200031a6040f213
:100a4600bc53c2f200031b6840f6c41293420bd19a
:100a560040f2e853c2f2000301221a7040f2bc537e
:100a6600c2f2000300221a6041f20003c4f200231e
:100a760000221a7541f20003c4f200239b7adab20f
:100a860041f20003c4f2002301210a43d2b29a7252
:060a9600c046bd4680bd14
:020000040000fa
:100a9c0080b582b000af39601100bb1d021c1a80fa
:100aac003b1d0a1c1a8040f2c853c2f200033a687c
:100abc001a6040f2e053c2f20003ba1d12881a8089
:100acc0040f2e253c2f200033a1d12881a8000f081
:100adc0011fd3b1d1b882bb940f60003c4f200230b
:100aec0004221a753b681a7840f60003c4f20023fe
:100afc0092b21a8540f2e453c2f200031b889bb2f7
:100b0c0001339ab240f2e453c2f200031a80c04699
:060b1c00bd4602b080bde1
:020000040000fa
:100b2200f0b51600050002278369426987b0029377
:100b3200d31a03939b1904910596019302ac3a00d0
:100b42002100286800f066fc019b984208d1ab683e
:100b5200ea68ab619a18aa626b61300007b0f0bd17
:100b620000280cda102200236968ab620a43ab61e9
:100b72006b616a60022f12d06368f61aede7019b7f
:100b82001b1a01936368984202d9c01a0834013fc4
:100b920023681b1823606368181a6060cfe71e0081
:020ba200dbe78f
:020000040000fa
:100ba400f7b51e4c256801942b0065b1002229007d
:100bb400160013000f68bc460f6984450ad132b190
:100bc40017610b0010331800febd3900f2e7019bda
:100bd4001f60f6e7844503d9d3b11c68a44517d335
:100be4000a00002ff1d1002bedd01f001a681969fb
:100bf400121a1037102a05d918603818016101003b
:100c0400103a02609d4206d1019b19603b00dae76d
:100c140016000b00e4e73161f8e7c046d405002074
:020000040000fa
:100c2400f8b5846a05000f00160054b1ab6a6a690e
:100c34009b1ab3420cd2320039002800fff76fff31
:100c440005e000f08ffc03002000002beed0f8bd7f
:100c5400002ef0d02b0034331b785bb2002b1bdb4f
:100c64003400dbb2621eb95c994212d12200390011
:100c74002800fff754ffa042e9d33f19341b220098
:100c84003900686900f0a6fc6b6930001c196c61be
:0c0c9400dde71400002ae5d13400f0e791
:020000040000fa
:100ca00080b500af40f20043c4f2000300221a8175
:100cb00040f20043c4f200039b79dab240f20043f1
:100cc000c4f2000301210a43d2b29a7140f20043f8
:100cd000c4f200039b78dbb21a0003231340022bfb
:100ce00011d040f20043c4f2000302229a70c046c1
:100cf00040f20043c4f200039b79dbb21a000123e7
:0c0d00001340002bf4d0c046bd4680bd5f
:020000040000fa
:100d0c0080b582b000af0200fb1d1a70bb1d0a1c1f
:100d1c001a7041f60043c4f20003b8229a5841f607
:100d2c000043c4f2000340210a43b8215a5041f257
:100d3c000003c4f2002301221a7141f20003c4f231
:100d4c0000231a6841f20003c4f2002340f204119c
:100d5c000a431a6003212220fff7bcfcc046bd46a3
:040d6c0002b080bd94
:020000040000fa
:100d700080b582b000af0200fb1d1a7000f0f6fad9
:100d800040f2c453c2f2000300221a60fb1d1b781c
:100d9000dbb20121180000f030f940f2e953c2f251
:100da000000300221a7040f2ea53c2f2000300224c
:100db0001a7040f2de53c2f2000300221a8040f2a1
:100dc000dc53c2f2000300221a80c046bd4602b0c6
:020dd00080bde4
:020000040000fa
:100dd2007fb51600c2680d0013000091591e8b41a9
:100de200f31a0193836804000392694602220068a1
:100df200029300f0fbfa002808dc182208230240c4
:100e0200534062681343636006000fe0019b834214
:100e1200fad2a268c01ae3681018e26320642bb108
:100e2200531ce3631378ad19013d2b70300004b0fd
:020e320070bd91
:020000040000fa
:100e340080b500af41f60043c4f20003b022402164
:100e4400995003210020fff737fd03210120fff70c
:100e540033fd40f60003c4f200230c4a9a8140f6a5
:100e64000003c4f200238422c4f210021a6040f684
:100e74000003c4f20023c02292025a6002211b2004
:100e8400fff7a3fcc046bd4680bdc046098affffec
:020000040000fa
:100e940000230e4a10b513600d4a0e4c13600e4a1f
:100ea40013600e4a13600e4a13600e4a53621361b4
:100eb4000133936000f0c5fb00f0effb0a4b9c424a
:100ec40000d310bd08cc9847f8e7c046d0050020f1
:100ed4001405002000010000100500200805002072
:0c0ee4000c05002018050020040100008f
:020000040000fa
:100ef00037b5144d04002b6873b100f0d3fa01909c
:100f000001a800f053fb0f230f309843019900f024
:100f100005fb58b100232b6004b901340f230f34b3
:100f20009c4324b90c222000074b1a603ebd042cc0
:100f300000d204242000fff735fe0028f6d0031f5e
:0c0f40001c60f3e7d8060020d805002054
:020000040000fa
:100f4c0070b504000d0008b9002070bd43689b0605
:100f5c0007d543698269934215d80023a362a36124
:100f6c006361e16b236c994204d2c91a0122206897
:100f7c0000f08dfb00232364e363002de4d0206894
:100f8c0000f07efbe1e70022c36a11009847636919
:0a0f9c00002be2d101204042d7e70c
:020000040000fa
:100fa60010b541f2df23c0f20003984741f2df2378
:100fb600c0f20003984700f090f940f20003c0f237
:100fc60000037f2293434ef60052cef20002936056
:100fd60040f69563c0f20003984741f2df23c0f262
:100fe6000003984741f2df23c0f200039847fff75a
:040ff6003dfafee7db
:020000040000fa
:100ffa0080b582b000af78600a00fb1c1a70fb1c37
:10100a001b7863b1796843f20003c4f200039a695a
:10101a0043f20003c4f200030a439a610be07968c1
:10102a0043f20003c4f200035a6943f20003c4f214
:0e103a0000030a435a61c046bd4602b080bda5
:020000040000fa
:1010480080b582b000af0200fb1d1a70fb1d1b7833
:101058007f2b17d8fb1d1b781a001f231a4011007d
:101068004ef20013cef20003fa1d127852b2520962
:1010780001208840010020329200d150bff34f8fe9
:0c108800bff36f8fc046bd4602b080bdb4
:020000040000fa
:1010940070b5040016001d00022a1ad043689b068e
:1010a40017d439b90db940f2004528000830fff7cc
:1010b4001dff010020236268a160134363602300c5
:1010c400e5603433ff22012e00d10a221a70024b4c
:0c10d400e362002070bdc046250c000047
:020000040000fa
:1010e00080b582b000af0200fb1d1a70fb1d1b789b
:1010f0007f2b12d8fb1d1b781a001f231a401100ea
:101100004ef20013cef20003fa1d127852b25209c9
:101110000120884001009200d150c046bd4602b077
:0211200080bd90
:020000040000fa
:1011220080b582b000af0200fb1d1a70fb1d1b7858
:101132007f2b12d8fb1d1b781a001f231a401100a7
:101142004ef20013cef20003fa1d127852b2520987
:101152000120884001009200d150c046bd4602b035
:0211620080bd4e
:020000040000fa
:1011640010b5054c227832b9044b13b1044800e0a1
:1011740000bf0123237010bd8c0500200000000077
:1011840000000000034b10b51bb10349034800e005
:1011940000bf10bd0000000090050020000000000a
:020000040000fa
:1011a40080b582b000affb1d00221a700fe043f23d
:1011b4000003c4f20003fa1d127840219b185b1847
:1011c40002221a70fb1d1a78fb1d01321a70fb1dd6
:0e11d4001b781f2bebd9c046bd4602b080bd74
:020000040000fa
:1011e20080b582b000af78600a00fb1c1a70fb1c4d
:1011f2001b7833b143f20003c4f200037a685a60e9
:1012020005e043f20003c4f200037a689a60c04624
:06121200bd4602b080bde4
:020000040000fa
:1012180080b582b000af786044f20003c4f20013d6
:1012280004225a60fff738fd00f00cf800f046f988
:1012380000f001f900f012fa00f0f9f9c046bd46d5
:0412480002b080bdb3
:020000040000fa
:10124c0080b500af40f2f053c2f200031b681b687c
:10125c000021180000f0d7f940f2d463c2f2000369
:10126c001b681b680021180000f0cdf9c046bd4674
:02127c0080bd33
:020000040000fa
:10127e0080b500af41f60043c4f2000340f20712fe
:10128e00c0f202021a62c04641f60043c4f20003e5
:10129e005b6804221340042bf6d0c046bd4680bdc9
:020000040000fa
:1012ae0080b500af41f60043c4f2000340f20512d0
:1012be00c0f204025a62c04641f60043c4f2000373
:1012ce005b6808221340082bf6d0c046bd4680bd91
:020000040000fa
:0212de00704757
:020000040000fa
:1012e00010b50948016811b9436803b910bd04007d
:1012f0008368064a9bb20c349b009b5842682000ce
:10130000984780002018ede714010000c415000084
:020000040000fa
:10131000064b1a680ab9064a1a60064a116809b9e2
:10132000054911601a68054b1a607047b005002026
:10133000e0060020ac050020e0080020a805002001
:020000040000fa
:1013400080b500af41f20003c4f200235b7adab249
:1013500041f20003c4f2002301210a43d2b25a72bf
:0c1360002220fff7bdfec046bd4680bd48
:020000040000fa
:10136c0080b500af40f20043c4f200231b7ddab21b
:10137c0040f20043c4f2002301210a43d2b21a7591
:0c138c001620fff75bfec046bd4680bd8a
:020000040000fa
:1013980070b5084c050023680bb9fff7b5ff064a7e
:1013a800206812684519aa4201d3256070bd012042
:0c13b8004042fbe7a8050020ac05002027
:020000040000fa
:1013c400020000234832d356591e0b4313700423e2
:1013d400426813402bb11023134343600120404261
:0a13e40070470364c3631800fae7c2
:020000040000fa
:1013ee00f7b5002507000c002e000192019b9e42ce
:1013fe0001db2800febd62682168380000f095f818
:08140e0001362d180834f1e746
:020000040000fa
:10141600f7b5002507000c002e000192019b9e42a5
:1014260001db2800febd62682168380000f08df8f7
:0814360001362d180834f1e71e
:020000040000fa
:10143e0080b500af44f20003c4f2001302225a60da
:10144e0044f20003c4f2001301221a72c046bd46d4
:02145e0080bd4f
:020000040000fa
:1014600080b500af41f20003c4f200231a6841f2d4
:101470000003c4f2002302210a431a60c046bd469d
:0214800080bd2d
:020000040000fa
:1014820080b500af40f60003c4f200231a6840f6ac
:101492000003c4f2002302210a431a60c046bd467b
:0214a20080bd0b
:020000040000fa
:1014a40010b5054c22680ab9fff730ff034b1868e2
:1014b4002368c01a10bdc046a8050020ac05002052
:020000040000fa
:1014c40080b500af00f05af800f063f8fff7edfec6
:0e14d400fff74efafff7d1fec046bd4680bdc1
:020000040000fa
:1014e200002310b5934206d103201840421e9041ba
:0e14f2009b08c01810bdc45ccc540133f2e757
:020000040000fa
:1015000080b500af40f60003c4f2002306229a75ae
:0c1510001b20fff706fec046bd4680bd54
:020000040000fa
:10151c00054a10b5146800231cb910600361016002
:0c152c000133180010bdc046d40500209b
:020000040000fa
:1015380080b584b000aff860b9607a6001235b427f
:081548001800bd4604b080bd8f
:020000040000fa
:1015500080b584b000aff860b9607a6001235b4267
:081560001800bd4604b080bd77
:020000040000fa
:1015680010b50400fff72aff28b9a368e268a36151
:0815780063619b18a36210bd22
:020000040000fa
:1015800080b500af41f20003c4f2000302221a76d4
:06159000c046bd4680bd0f
:020000040000fa
:1015960080b500af41f20043c4f2000300221a7482
:0615a600c046bd4680bdf9
:020000040000fa
:1015ac00006810b5002801da002010bdfff7eefe30
:0615bc00431cfad1f8e720
:020000040000fa
:0215c200fee742
:020000040000fa
:1015c40025160000e3140000931600009316000093
:0415d400931600006a
:020000040000fa
:1015d80010b52ab10023cc5cc45401339342fad12c
:0415e80010bdc0462c
:020000040000fa
:1015ec0010b500f043f8024b1860586010bdc046af
:0415fc00b405002012
:020000040000fa
:1016000080b500af40f28a53c2f200031b88bd468a
:0216100080bd9b
:020000040000fa
:101612004a424a4110b5520040f20043fff739fdf9
:0216220010bdf9
:020000040000fa
:101624008a18914201d10020704700230b700131c8
:02163400f7e7d6
:020000040000fa
:1016360080b500afbff35f8f62b6c046bd4680bdc2
:020000040000fa
:1016460010b5fff7d0ff00f028f800f026f810bd1f
:020000040000fa
:0e16560080b500affff7dcf9c046bd4680bd91
:020000040000fa
:0a16640080b500afc046bd4680bd52
:020000040000fa
:0a166e0010b50068fff76dff10bd16
:020000040000fa
:081678000048704758060020ed
:020000040000fa
:0616800080b500affee79b
:020000040000fa
:0616860080b500affee795
:020000040000fa
:06168c00012040427047fe
:020000040000fa
:04169200002070477d
:020000040000fa
:041696000020704779
:020000040000fa
:04169a000020704775
:020000040000fa
:02169e00704793
:020000040000fa
:0216a000704791
:020000040000fa
:0216a20070478f
:020000040000fa
:0200000400807a
:044000007f438fb0bb
:020000040000fa
:0200000400807a
:04400400bbfcffff03
:020000040000fa
:0200000400807a
:04c0040000ffffff3b
:020000040000fa
:0200000400807a
:04c04000ffffffff00
:020000040000fa
:0200000400807a
:04c04400fffffffffc
:020000040000fa
:0200000400807a
:04c04800fffffffff8
:020000040000fa
:0200000400807a
:04c04c00fffffffff4
:00000001FF
