:020000040000fa
:10000000f80f0020b7080000550e00005b0e00003e
:1000100000000000000000000000000000000000e0
:10002000000000000000000000000000a307000026
:100030000000000000000000a3070000a30700006c
:10004000a3070000a3070000a3070000a307000008
:10005000a3070000a3070000a3070000a3070000f8
:10006000a3070000a3070000a3070000a3070000e8
:10007000a3070000a3070000a3070000a3070000d8
:10008000a3070000a3070000a3070000a3070000c8
:10009000a3070000a3070000a3070000a3070000b8
:1000a000a3070000a3070000a3070000a3070000a8
:1000b000a3070000a30700000000000000000000ec
:1000c0000000000000000000290e0000a30700004f
:1000d000a3070000a3070000a3070000a307000078
:1000e000a3070000a3070000a3070000a307000068
:0400f000a307000062
:020000040000fa
:1000f400f8b5c046f8bc08bc9e4670475d0a0000cf
:10010400f8b5c046f8bc08bc9e467047390a0000e2
:020000040000fa
:10011400580400201c000000000000008804002097
:1001240004000000000000009c0400200100000006
:10013400000000008c040020040000000000000007
:10014400080400205000000000000000a00400206b
:100154006c00000001000000ac040020a804002092
:10016400ac0400200000000025000000080000206e
:100174000004000000000000000000000000000077
:10018400000000000000000000000000000000006b
:10019400000000006b0e00000000000000000000e2
:1001a4000000000000000000410700000000000003
:1001b400000000000000000000000000000000003b
:1001c40000000000000000200804000000000000ff
:1001d4006c05002020000000010000000100000068
:1001e4000300000000000000000000000000000008
:1001f40000000000000000008004002080040020b3
:10020400080000000000000090040020040000002a
:10021400000000000c050020600000000100000048
:1002240001000000030000000000000000000000c6
:100234000000000000000000000000005d08000055
:10024400000000000000000000000000410e00005b
:10025400a70d0000000000000000000000000000e6
:10026400000000000000000000000000000000008a
:10027400000000000000000000000000000000007a
:100284008c050020040000000100000001000000b3
:100294009404002008000000000000007404002002
:1002a4000c0000000000000000000000000000003e
:020000040000fa
:1002b40090b583b000af02003960fb1d1a70fb1dbe
:1002c4001b787f2b2fd84ef20013cef20003fa1db9
:1002d400127852b29208c0329200d358fa1d1278a2
:1002e400110003220a40d200ff2191400a00d243a8
:1002f4001a4010003b689b01ff221a40fb1d1b782b
:10030400190003230b40db009a4011004ef2001346
:10031400cef20003fa1d127852b292080143c032a1
:100324009200d15037e04ef60053cef20003fa1d8e
:10033400127811000f220a40083a920806329200fd
:100344009b1804331b68fa1d1278110003220a401b
:10035400d200ff2191400a00d2431a4010003b68aa
:100364009b01ff221a40fb1d1b78190003230b403d
:10037400db009a404ef60053cef20003f91d0978d3
:100384000c000f21214008398908024306318900f5
:0e0394005b1804331a60c046bd4603b090bd2e
:020000040000fa
:1003a20080b500af41f60043c4f200038022412130
:1003b2009950c04641f60043c4f2000380229b5884
:1003c20040221340402bf5d141f20003c4f2000356
:1003d20020225a6341f20003c4f200033f221a634f
:1003e200c04641f20003c4f200033c229b5cdbb234
:1003f2001a0004231340042bf3d041f20003c4f289
:1004020000032c2202219954c04641f20003c4f297
:1004120000033c229b5cdbb21a0002231340022b36
:10042200f3d0c04641f20003c4f2000340229b5cb9
:10043200dbb21a0003231340032bf3d1c046bd469f
:0204420080bd7b
:020000040000fa
:1004440080b500af002000f034fb00f013fb002166
:10045400012000f058fa03212220fff729ff22206f
:1004640000f0c6fa0121012000f074fac04640f2ff
:100474009c43c2f200031b78dbb2002bf7d040f29e
:100484008843c2f2000300221a6040f29c43c2f285
:10049400000300221a700021012000f05bfac0461c
:1004a40040f29c43c2f200031b78dbb2002bf7d06e
:1004b40040f28843c2f2000300221a6040f29c43d7
:0a04c400c2f2000300221a70cce718
:020000040000fa
:1004ce0080b500af41f20003c4f200239b7adbb289
:1004de001a00012313409bb340f28843c2f200037b
:1004ee001b685a1c40f28843c2f200031a6040f2a5
:1004fe008843c2f200031b6840f6c41293420bd12c
:10050e0040f29c43c2f2000301221a7040f288436b
:10051e00c2f2000300221a6041f20003c4f200236b
:10052e0000221a7541f20003c4f200239b7adab25c
:10053e0041f20003c4f2002301210a43d2b29a729f
:06054e00c046bd4680bd61
:020000040000fa
:10055400f0b51600050002278369426987b002934b
:10056400d31a03939b1904910596019302ac3a00a4
:100574002100286800f06ffb019b984208d1ab680a
:10058400ea68ab619a18aa626b61300007b0f0bdeb
:1005940000280cda102200236968ab620a43ab61bd
:1005a4006b616a60022f12d06368f61aede7019b53
:1005b4001b1a01936368984202d9c01a0834013f98
:1005c40023681b1823606368181a6060cfe71e0055
:0205d400dbe763
:020000040000fa
:0205d60070476c
:020000040000fa
:1005d800f7b51e4c256801942b0065b1002229004f
:1005e800160013000f68bc460f6984450ad132b162
:1005f80017610b0010331800febd3900f2e7019bac
:100608001f60f6e7844503d9d3b11c68a44517d306
:100618000a00002ff1d1002bedd01f001a681969cc
:10062800121a1037102a05d918603818016101000c
:10063800103a02609d4206d1019b19603b00dae73f
:1006480016000b00e4e73161f8e7c0469404002087
:020000040000fa
:10065800f8b5846a05000f00160054b1ab6a6a69e0
:100668009b1ab3420cd2320039002800fff76eff04
:1006780005e000f067fb03002000002beed0f8bd7a
:10068800002ef0d02b0034331b785bb2002b1bdb21
:100698003400dbb2621eb95c994212d122003900e3
:1006a8002800fff753ffa042e9d33f19341b22006b
:1006b8003900686900f07efb6b6930001c196c61b9
:0c06c800dde71400002ae5d13400f0e763
:020000040000fa
:1006d40080b500af40f20043c4f2000300221a8147
:1006e40040f20043c4f200039b79dab240f20043c3
:1006f400c4f2000301210a43d2b29a7140f20043ca
:10070400c4f200039b78dbb21a0003231340022bcc
:1007140011d040f20043c4f2000302229a70c04692
:1007240040f20043c4f200039b79dbb21a000123b8
:0c0734001340002bf4d0c046bd4680bd31
:020000040000fa
:100740007fb51600c2680d0013000091591e8b4141
:10075000f31a019383680400039269460222006839
:10076000029300f066fa002808dc182208230240f1
:10077000534062681343636006000fe0019b8342ad
:10078000fad2a268c01ae3681018e26320642bb1a1
:10079000531ce3631378ad19013d2b70300004b096
:0207a00070bd2a
:020000040000fa
:0207a200fee770
:020000040000fa
:1007a40000230e4a10b513600d4a0e4c13600e4a16
:1007b40013600e4a13600e4a13600e4a53621361ab
:1007c4000133936000f026fb00f0ebf80a4b9c42e7
:1007d40000d310bd08cc9847f8e7c0469004002029
:1007e400140400200001000010040020080400206c
:0c07f4000c040020180400200401000088
:020000040000fa
:1008000037b5144d04002b6873b100f04bfa01901a
:1008100001a800f0bdfa0f230f309843019900f0b2
:100820006ffa58b100232b6004b901340f230f3441
:100830009c4324b90c222000074b1a603ebd042cb7
:1008400000d204242000fff7c7fe0028f6d0031fc3
:0c0850001c60f3e78c05002098040020d9
:020000040000fa
:10085c0070b504000d0008b9002070bd43689b06fc
:10086c0007d543698269934215d80023a362a3611b
:10087c006361e16b236c994204d2c91a012220688e
:10088c0000f0effa00232364e363002de4d020682a
:10089c0000f0e0fae1e70022c36a110098476369af
:0a08ac00002be2d101204042d7e703
:020000040000fa
:1008b60010b540f2d753c0f20003984740f2d75321
:1008c600c0f20003984700f056f940f20003c0f268
:1008d60000037f2293434ef60052cef2000293604d
:1008e60040f2a573c0f20003984740f2d753c0f216
:1008f6000003984740f2d753c0f200039847fff72a
:040906009efdfee76d
:020000040000fa
:10090a0080b582b000af78600a00fb1c1a70fb1c2d
:10091a001b7863b1796843f20003c4f200035a6892
:10092a0043f20003c4f200030a435a600be07968f9
:10093a0043f20003c4f200039a6843f20003c4f2cc
:0e094a0000030a439a60c046bd4602b080bd5d
:020000040000fa
:1009580080b582b000af78600a00fb1c1a70fb1cdf
:100968001b7863b1796843f20003c4f200039a6903
:1009780043f20003c4f200030a439a610be079686a
:1009880043f20003c4f200035a6943f20003c4f2bd
:0e09980000030a435a61c046bd4602b080bd4e
:020000040000fa
:0209a600704798
:020000040000fa
:1009a80070b5040016001d00022a1ad043689b0681
:1009b80017d439b90db940f2004528000830fff7bf
:1009c8001bff010020236268a160134363602300ba
:1009d800e5603433ff22012e00d10a221a70024b3f
:0c09e800e362002070bdc046590600000c
:020000040000fa
:1009f40080b582b000af0200fb1d1a70fb1d1b788e
:100a04007f2b12d8fb1d1b781a001f231a401100dc
:100a14004ef20013cef20003fa1d127852b25209bc
:100a24000120884001009200d150c046bd4602b06a
:020a340080bd83
:020000040000fa
:020a3600704707
:020000040000fa
:100a380010b5054c227832b9044b13b1044800e0d4
:100a480000bf0123237010bd5804002000000000df
:100a580000000000034b10b51bb10349034800e038
:100a680000bf10bd000000005c0400200000000072
:020000040000fa
:100a780080b582b000affb1d00221a700fe043f270
:100a88000003c4f20003fa1d127840219b185b187a
:100a980002221a70fb1d1a78fb1d01321a70fb1d09
:0e0aa8001b781f2bebd9c046bd4602b080bda7
:020000040000fa
:100ab60080b582b000af786044f20003c4f2001340
:100ac60004225a60fff703fe00f00cf800f0f7f876
:100ad60000f0d4f800f0acf900f093f9c046bd463a
:040ae60002b080bd1d
:020000040000fa
:100aea0080b500af40f2a443c2f200031b681b6842
:100afa000021180000f071f940f28853c2f2000395
:100b0a001b681b680021180000f067f9c046bd4643
:020b1a0080bd9c
:020000040000fa
:100b1c0080b500af41f60043c4f2000340f2071267
:100b2c00c0f202021a62c04641f60043c4f200034e
:100b3c005b6804221340042bf6d0c046bd4680bd32
:020000040000fa
:100b4c0080b500af41f60043c4f2000340f2051239
:100b5c00c0f204025a62c04641f60043c4f20003dc
:100b6c005b6808221340082bf6d0c046bd4680bdfa
:020000040000fa
:100b7c0010b50948016811b9436803b910bd0400e8
:100b8c008368064a9bb20c349b009b584268200039
:100b9c00984780002018ede714010000a80d000014
:020000040000fa
:100bac00064b1a680ab9064a1a60064a116809b94e
:100bbc00054911601a68054b1a6070477c040020c7
:100bcc009805002078040020980700207404002069
:020000040000fa
:100bdc0070b5084c050023680bb9fff7e1ff064a16
:100bec00206812684519aa4201d3256070bd012006
:0c0bfc004042fbe7740400207804002055
:020000040000fa
:100c0800020000234832d356591e0b4313700423a5
:100c1800426813402bb11023134343600120404224
:0a0c280070470364c3631800fae785
:020000040000fa
:100c3200f7b5002507000c002e000192019b9e4291
:100c420001db2800febd62682168380000f065f80b
:080c520001362d180834f1e70a
:020000040000fa
:100c5a00f7b5002507000c002e000192019b9e4269
:100c6a0001db2800febd62682168380000f05df8eb
:080c7a0001362d180834f1e7e2
:020000040000fa
:100c820080b500af44f20003c4f2001302225a609e
:100c920044f20003c4f2001301221a72c046bd4698
:020ca20080bd13
:020000040000fa
:100ca40010b5054c22680ab9fff77eff034b18689c
:100cb4002368c01a10bdc0467404002078040020c4
:020000040000fa
:100cc40080b500af00f04cf800f055f8fff73cff9a
:0e0cd400fff765fbfff720ffc046bd4680bd61
:020000040000fa
:100ce200002310b5934206d103201840421e9041c2
:0e0cf2009b08c01810bdc45ccc540133f2e75f
:020000040000fa
:100d0000054a10b5146800231cb910600361016026
:0c0d10000133180010bdc0469404002000
:020000040000fa
:100d1c0080b584b000aff860b9607a6001235b42a3
:080d2c001800bd4604b080bdb3
:020000040000fa
:100d340080b584b000aff860b9607a6001235b428b
:080d44001800bd4604b080bd9b
:020000040000fa
:100d4c0010b50400fff75aff28b9a368e268a36145
:080d5c0063619b18a36210bd46
:020000040000fa
:100d640080b500af41f20003c4f2000302221a76f8
:060d7400c046bd4680bd33
:020000040000fa
:100d7a0080b500af41f20043c4f2000300221a74a6
:060d8a00c046bd4680bd1d
:020000040000fa
:100d9000006810b5002801da002010bdfff71eff23
:060da000431cfad1f8e744
:020000040000fa
:020da600704794
:020000040000fa
:100da800f70d0000e30c0000670e0000670e00005e
:040db800670e0000c2
:020000040000fa
:100dbc0010b52ab10023cc5cc45401339342fad150
:040dcc0010bdc04650
:020000040000fa
:100dd00010b500f03bf8024b1860586010bdc046db
:040de000800400206b
:020000040000fa
:100de4004a424a4110b5520040f20043fff7dafd8f
:020df40010bd30
:020000040000fa
:100df6008a18914201d10020704700230b700131ff
:020e0600f7e70c
:020000040000fa
:100e080080b500afbff35f8f62b6c046bd4680bdf8
:020000040000fa
:100e180010b5fff7d9fffff70afefff708fe10bd70
:020000040000fa
:0e0e280080b500affff74ffbc046bd4680bd52
:020000040000fa
:0a0e360080b500afc046bd4680bd88
:020000040000fa
:0a0e400010b50068fff776ff10bd43
:020000040000fa
:080e4c00004870470c0500206e
:020000040000fa
:060e540080b500affee7cf
:020000040000fa
:060e5a0080b500affee7c9
:020000040000fa
:060e600001204042704732
:020000040000fa
:040e660000207047b1
:020000040000fa
:040e6a0000207047ad
:020000040000fa
:040e6e0000207047a9
:020000040000fa
:0200000400807a
:044000007f438fb0bb
:020000040000fa
:0200000400807a
:04400400bbfcffff03
:020000040000fa
:0200000400807a
:04c0040000ffffff3b
:020000040000fa
:0200000400807a
:04c04000ffffffff00
:020000040000fa
:0200000400807a
:04c04400fffffffffc
:020000040000fa
:0200000400807a
:04c04800fffffffff8
:020000040000fa
:0200000400807a
:04c04c00fffffffff4
:00000001FF
