:020000040000fa
:10000000f80f002067090000b10e0000b50e0000d7
:1000100000000000000000000000000000000000e0
:100020000000000000000000000000005308000075
:10003000000000000000000053080000530800000a
:100040005308000053080000530800005308000044
:100050005308000053080000530800005308000034
:100060005308000053080000530800005308000024
:100070005308000053080000530800005308000014
:100080005308000053080000530800005308000004
:100090005308000053080000050300005308000047
:1000a00053080000530800005308000053080000e4
:1000b000530800005308000000000000000000008a
:1000c0000000000000000000950e00005308000032
:1000d00053080000530800005308000053080000b4
:1000e00053080000530800005308000053080000a4
:0400f00053080000b1
:020000040000fa
:1000f400f8b5c046f8bc08bc9e467047190b000012
:10010400f8b5c046f8bc08bc9e467047f50a000026
:020000040000fa
:100114008c0400201c00000000000000dc0400200f
:100124000100000000000000bc04002004000000e6
:10013400000000005804002032000000000000000d
:100144008a0400200200000000000000c004002017
:100154000400000000000000dd0400200200000094
:1001640000000000c404002004000000000000009f
:10017400d80400200400000000000000c80400208f
:1001840004000000000000000804002050000000eb
:1001940000000000e00400206c00000001000000ea
:1001a400ec040020e8040020ec040020000000001f
:1001b40025000000080000200004000000000000ea
:1001c400000000000000000000000000000000002b
:1001d400000000000000000000000000bd0e000050
:1001e400000000000000000000000000000000000b
:1001f400f107000000000000000000000000000003
:1002040000000000000000000000000000000020ca
:100214000804000000000000ac05002020000000dd
:1002240001000000010000000300000000000000c5
:1002340000000000000000000000000000000000ba
:10024400b4040020b40400200800000000000000f2
:10025400cc04002004000000000000004c05002035
:100264006000000001000000010000000300000025
:10027400000000000000000000000000000000007a
:10028400000000000d090000000000000000000054
:1002940000000000710e0000530d0000000000007b
:1002a400000000000000000000000000000000004a
:1002b400000000000000000000000000000000003a
:1002c4000000000000000000cc0500200400000035
:1002d4000100000001000000d0040020080000001c
:1002e40000000000a80400200c0000000000000032
:1002f40000000000000000006666666666666666ca
:020000040000fa
:1003040040f2004210b5c4f20022137edb070cd485
:1003140040f2da43c2f200031a8840f2d843c2f230
:1003240000031b889a4236d010bd40f2dd43c2f26e
:1003340000031978c1b11b78002b41d140f2c043ae
:10034400c2f200031b681a7840f20043c4f200238f
:10035400996a0a439a6240f2da43c2f200031a88a5
:10036400013292b21a80d7e740f2de41c2f20001b4
:1003740009780029dfd040f2da4340f2c040c2f2eb
:100384000003c2f200001c88016809190978906a08
:1003940001439162e3e740f200420121c4f20022ea
:1003a400137d0b4301211375137e1942fcd040f2d7
:1003b400c443c2f200031868c0b200f073f9b3e793
:1003c40000f04efd40f2da43c2f20003c7e7c04634
:020000040000fa
:1003d40041f200030222c4f200031a7641f2004300
:1003e4000022c4f200031a7441f6004240f20513dd
:1003f4000821c4f20002c0f2040353625368194294
:10040400fcd141218023d15041f600428020c4f226
:100414000002013913581942fcd041f20002202392
:100424003c200421c4f2000253631f331363135ca2
:100434001942fcd12c230221d15441f200023c2068
:10044400c4f20002135c1942fcd141f200024020c4
:100454000321c4f20002135c0b40032bfbd141f6d1
:10046400004204210533ff33c4f20002c0f2020348
:0c047400136253681942fcd17047c04667
:020000040000fa
:1004800070b5002000f012fb41f6004342f2051265
:10049000c4f200031a6200f06bfc0021012000f09e
:1004a000a9fb0021022000f0a5fb40f28a430522af
:1004b000c2f200031a8040f258444ff60173c2f2b0
:1004c0000004c0f6f0732360642000f027f900f008
:1004d00087fc220040f2e831022000f057f940f298
:1004e000dc440021002040f2bc4600f067fa002501
:1004f00000f000fc00f06afcc2f20004c2f2000648
:100500000121012000f08cfb2378002bfcd000217e
:1005100001203560257000f083fb2378002bfcd090
:0805200035602570ece7c046d0
:020000040000fa
:10052800f0b51600050002278369426987b0029377
:10053800d31a03939b1904910596019302ac3a00d0
:100548002100286800f0bdfb019b984208d1ab68e8
:10055800ea68ab619a18aa626b61300007b0f0bd17
:1005680000280cda102200236968ab620a43ab61e9
:100578006b616a60022f12d06368f61aede7019b7f
:100588001b1a01936368984202d9c01a0834013fc4
:1005980023681b1823606368181a6060cfe71e0081
:0205a800dbe78f
:020000040000fa
:0205aa00704798
:020000040000fa
:1005ac00f7b51e4c256801942b0065b1002229007b
:1005bc00160013000f68bc460f6984450ad132b18e
:1005cc0017610b0010331800febd3900f2e7019bd8
:1005dc001f60f6e7844503d9d3b11c68a44517d333
:1005ec000a00002ff1d1002bedd01f001a681969f9
:1005fc00121a1037102a05d9186038180161010039
:10060c00103a02609d4206d1019b19603b00dae76b
:10061c0016000b00e4e73161f8e7c046d004002077
:020000040000fa
:10062c00f8b5846a05000f00160054b1ab6a6a690c
:10063c009b1ab3420cd2320039002800fff76eff30
:10064c0005e000f09bfb03002000002beed0f8bd72
:10065c00002ef0d02b0034331b785bb2002b1bdb4d
:10066c003400dbb2621eb95c994212d1220039000f
:10067c002800fff753ffa042e9d33f19341b220097
:10068c003900686900f0bafb6b6930001c196c61a9
:0c069c00dde71400002ae5d13400f0e78f
:020000040000fa
:1006a80010b582b06b46d91d40f200430870012096
:1006b800c4f200231a7d02431a7580204ef20013fb
:1006c8008022cef20003c0039850bff34f8fbff3d0
:1006d8006f8f40f2c4430024c2f200031c60087804
:1006e8000121c0b200f098fa40f2dd43c2f20003e3
:1006f8001c7040f2de43c2f200031c7040f2da4381
:10070800c2f200031c8040f2d843c2f200031c80ee
:0407180002b010bd5e
:020000040000fa
:10071c0010b503210400022000f006fa0321032087
:10072c0000f002fa0321042000f0fef90321052059
:10073c0000f0faf941f60043ac214020c4f200036a
:10074c005a5802435a5040f200438822c4f2002304
:10075c0092021c735a608c22c1f230021a604ef263
:10076c00001340f21430cef200031a580349114022
:10077c00c02212040a431a5010bdc046ffff00ffee
:020000040000fa
:10078c0070b582b06b4601acd8712180d87900214c
:10079c00c0b21500de1d00f03dfa40f2c4433278c1
:1007ac00c2f20003d2b21a6040f2d8432288c2f2dd
:1007bc00000392b21a8040f2c043c2f200031d60e3
:1007cc0040f200430121c4f200239a7d0a439a753a
:1007dc004ef200138022cef20003d2031a6002b054
:0407ec0070bdc046d6
:020000040000fa
:1007f0007fb51600c2680d0013000091591e8b4191
:10080000f31a019383680400039269460222006888
:10081000029300f046fa002808dc18220823024060
:10082000534062681343636006000fe0019b8342fc
:10083000fad2a268c01ae3681018e26320642bb1f0
:10084000531ce3631378ad19013d2b70300004b0e5
:0208500070bd79
:020000040000fa
:02085200fee7bf
:020000040000fa
:1008540000230e4a10b513600d4a0e4c13600e4a65
:1008640013600e4a13600e4a13600e4a53621361fa
:100874000133936000f0ecfa00f09df80a4b9c42bf
:1008840000d310bd08cc9847f8e7c046cc0400203c
:1008940014040020000100001004002008040020bb
:0c08a4000c0400201804002004010000d7
:020000040000fa
:1008b00037b5144d04002b6873b100f02bfa01908a
:1008c00001a800f06dfa0f230f309843019900f052
:1008d00041fa58b100232b6004b901340f230f34bf
:1008e0009c4324b90c222000074b1a603ebd042c07
:1008f00000d204242000fff759fe0028f6d0031f81
:0c0900001c60f3e7cc050020d4040020ac
:020000040000fa
:10090c0070b504000d0008b9002070bd43689b064b
:10091c0007d543698269934215d80023a362a3616a
:10092c006361e16b236c994204d2c91a01222068dd
:10093c0000f0c0fa00232364e363002de4d02068a8
:10094c0000f0aafae1e70022c36a11009847636934
:0a095c00002be2d101204042d7e752
:020000040000fa
:1009660010b540f2ab53c0f20003984740f2ab53c8
:10097600c0f20003984700f0f4f840f20003c0f21a
:1009860000037f2293434ef60052cef2000293609c
:1009960040f65503c0f20003984740f2ab53c0f24d
:1009a6000003984740f2ab53c0f200039847fff7a5
:0409b60064fdfee7f7
:020000040000fa
:0209ba00704784
:020000040000fa
:1009bc0082b06b46d8716b46997141f60043b821f1
:1009cc004020c4f200035a5802435a5041f200032b
:1009dc000122c4f200231a711a684c310a431a60be
:1009ec004ef2001340f22030cef200031a580449a4
:1009fc001140c02212040a431a5002b07047c0467c
:040a0c00ffff00ffe9
:020000040000fa
:100a100041f200030122c4f200239b7a1a4215d04e
:100a200040f2bc43c2f2000319680131196040f67c
:100a3000c411186888420ad041f200030022012143
:100a4000c4f200231a759a7a0a439a72704740f2e8
:100a5000dc41c2f200010a7000221a60ece7c046d5
:020000040000fa
:100a600070b5040016001d00022a1ad043689b06c8
:100a700017d439b90db940f2004528000830fff706
:100a800017ff010020236268a16013436360230005
:100a9000e5603433ff22012e00d10a221a70024b86
:0c0aa000e362002070bdc0462d0600007f
:020000040000fa
:100aac0044f200030422c4f2001310b55a6000f0a3
:100abc0085f840f2e443c2f200031b680021186879
:100acc0000f0b0f940f2c853c2f200031b680021d9
:100adc00186800f0a7f9fff777fc00f067f900f051
:080aec00dff900f0c5f910bdaf
:020000040000fa
:100af40010b5054c227832b9044b13b1044800e018
:100b040000bf0123237010bd8c04002000000000ee
:100b140000000000034b10b51bb10349034800e07b
:100b240000bf10bd00000000900400200000000081
:020000040000fa
:100b340010b54308c20701d50901c9b243f2400206
:100b4400c4f20002944601246044027822430270f5
:100b540043f23002c4f20002944663441a780a4312
:040b64001a7010bd36
:020000040000fa
:100b680010b50948016811b9436803b910bd0400fc
:100b78008368064a9bb20c349b009b58426820004d
:100b8800984780002018ede714010000f40d0000dc
:020000040000fa
:100b9800064b1a680ab9064a1a60064a116809b962
:100ba800054911601a68054b1a607047b0040020a7
:100bb800d8050020ac040020d8070020a804002095
:020000040000fa
:100bc80040f2004300220121c4f200031a819a79fd
:100bd8000a439a71032299780a40022a05d0022210
:0c0be80001219a709a791142fcd07047ec
:020000040000fa
:100bf40082b0019049b143f20003c4f200030199a9
:100c04005a680a435a6002b0704743f20003c4f2c0
:0c0c1400000301999a680a439a60f4e713
:020000040000fa
:100c200082b0019049b143f20003c4f2000301997c
:100c30009a690a439a6102b0704743f20003c4f212
:0c0c4000000301995a690a435a61f4e765
:020000040000fa
:100c4c0070b5084c050023680bb9fff79fff064ae7
:100c5c00206812684519aa4201d3256070bd012095
:0c0c6c004042fbe7a8040020ac0400207c
:020000040000fa
:100c7800020000234832d356591e0b431370042335
:100c8800426813402bb110231343436001204042b4
:0a0c980070470364c3631800fae715
:020000040000fa
:100ca200f7b5002507000c002e000192019b9e4221
:100cb20001db2800febd62682168380000f0e1f81f
:080cc20001362d180834f1e79a
:020000040000fa
:100cca00f7b5002507000c002e000192019b9e42f9
:100cda0001db2800febd62682168380000f0d1f807
:080cea0001362d180834f1e772
:020000040000fa
:020cf200704749
:020000040000fa
:100cf40041f200030121c4f200235a7a0a435a72d2
:100d04004ef200130422cef200035a607047c0462c
:020000040000fa
:100d140010b5054c22680ab9fff73cff034b18686d
:100d24002368c01a10bdc046a8040020ac040020eb
:020000040000fa
:100d3400002310b5934206d103201840421e90416f
:0e0d44009b08c01810bdc45ccc540133f2e70c
:020000040000fa
:020d52007047e8
:020000040000fa
:100d5400054a10b5146800231cb9106003610160d2
:0c0d64000133180010bdc046d004002070
:020000040000fa
:100d70000023022143f24002c4f200029a18013318
:080d80001170202bf6d1704721
:020000040000fa
:100d880010b50400fff774ff28b9a368e268a361ef
:080d980063619b18a36210bd0a
:020000040000fa
:100da000006810b5002801da002010bdfff74effe3
:060db000431cfad1f8e734
:020000040000fa
:100db80044f200030222c4f200135a60013a1a7284
:040dc8007047c0466a
:020000040000fa
:100dcc0041f200030221c4f200231a680a431a609c
:040ddc007047c04656
:020000040000fa
:100de00040f200430221c4f200231a680a431a6049
:040df0007047c04642
:020000040000fa
:100df400430e0000350d0000b90e0000b90e0000ce
:040e0400b90e000023
:020000040000fa
:100e080010b52ab10023cc5cc45401339342fad103
:040e180010bdc04603
:020000040000fa
:100e1c0010b500f03df8024b1860586010bdc0468c
:040e2c00b4040020ea
:020000040000fa
:100e30004a424a4110b5520040f20043fff710fe0b
:020e400010bde3
:020000040000fa
:100e42008a18914201d10020704700230b700131b2
:020e5200f7e7c0
:020000040000fa
:100e540010b5fff7e1fffff74afffff748ff10bdaa
:020000040000fa
:0c0e640040f28a43c2f200031b88704772
:020000040000fa
:0a0e700010b5006800f00af810bd8c
:020000040000fa
:080e7c00bff35f8f62b67047ff
:020000040000fa
:080e8400012040427047c04606
:020000040000fa
:080e8c00012040427047c046fe
:020000040000fa
:080e940010b5fff7bbfd10bd16
:020000040000fa
:080e9c00004870474c050020de
:020000040000fa
:060ea400012040427047ee
:020000040000fa
:040eac007047c04685
:020000040000fa
:040eb000fee7c04653
:020000040000fa
:040eb400fee7c0464f
:020000040000fa
:040eb800002070475f
:020000040000fa
:040ebc00002070475b
:020000040000fa
:040ec0000020704757
:020000040000fa
:0200000400807a
:044000007f438fb0bb
:020000040000fa
:0200000400807a
:04400400bbfcffff03
:020000040000fa
:0200000400807a
:04c0040000ffffff3b
:020000040000fa
:0200000400807a
:04c04000ffffffff00
:020000040000fa
:0200000400807a
:04c04400fffffffffc
:020000040000fa
:0200000400807a
:04c04800fffffffff8
:020000040000fa
:0200000400807a
:04c04c00fffffffff4
:00000001FF
