:020000040000fa
:10000000f00f0020430a00006d0f0000710f000088
:1000100000000000000000000000000000000000e0
:100020000000000000000000000000007308000055
:1000300000000000000000007308000073080000ca
:1000400073080000730800007308000073080000c4
:1000500073080000730800007308000073080000b4
:1000600073080000730800007308000073080000a4
:100070007308000073080000730800007308000094
:100080007308000073080000730800007308000084
:100090007308000073080000ed03000073080000ff
:1000a000730800007308000073080000bd0400001e
:1000b000730800007308000000000000000000004a
:1000c0000000000000000000510f00007308000055
:1000d0007308000073080000730800007308000034
:1000e0007308000073080000730800007308000024
:0400f0007308000091
:020000040000fa
:1000f400f8b5c046f8bc08bc9e467047f50b000036
:10010400f8b5c046f8bc08bc9e467047d10b000049
:020000040000fa
:100114008c0500201c00000000000000e805002001
:100124000100000000000000bc05002004000000e5
:10013400000000000804002000010000000000008e
:100144008a0500200200000000000000c005002015
:100154000400000000000000e90500200200000087
:1001640000000000c405002004000000000000009e
:10017400dc050020040000000000000058050020f9
:100184003200000000000000e0050020080000002c
:1001940000000000c8050020080000000000000066
:1001a400080500205000000000000000ec050020bd
:1001b4006c00000001000000f8050020f405002098
:1001c400f8050020000000002500000008000020c1
:1001d4000004000000000000000000000000000017
:1001e400000000000000000000000000000000000b
:1001f40000000000790f0000000000000000000073
:1002040000000000000000001108000000000000d1
:1002140000000000000000000000000000000000da
:10022400000000000000002008040000000000009e
:10023400b8060020200000000100000001000000ba
:1002440003000000000000000000000000000000a7
:100254000000000000000000b4050020b4050020e8
:100264000800000000000000d00500200400000089
:10027400000000005806002060000000010000009b
:100284000100000003000000000000000000000066
:10029400000000000000000000000000e909000068
:1002a4000000000000000000000000002d0f00000e
:1002b400d70d000000000000000000000000000056
:1002c400000000000000000000000000000000002a
:1002d400000000000000000000000000000000001a
:1002e400d806002004000000010000000100000006
:1002f400d40500200800000000000000a80500202c
:100304000c000000000000000000000000000000dd
:020000040000fa
:1003140070b5002000f036fc41f6004342f20512ad
:10032400c4f200031a6200f07ffd0021012000f0f6
:1003340051fd002140f2001000f04cfd012140f27b
:10034400001000f055fd0121022000f043fd40f2b1
:100354008a530522c2f200031a8040f208434ff682
:100364000172c2f20003c0f6f0721a6000f0b0fa33
:1003740000f092fd002340f2001240f20841c2f264
:10038400000159180b7001339342f6d140f2084131
:100394003222c2f20001322000f06afa40f2e8543c
:1003a4000021002040f2bc5600f074fb002500f050
:1003b400e1fc00f067fdc2f20004c2f20006012174
:1003c40040f2001000f014fd2378002bfcd0002133
:1003d40040f200103560257000f00afd2378002bf0
:0803e400fcd035602570eae74a
:020000040000fa
:1003ec0040f2004210b5c4f20022137edb070cd49d
:1003fc0040f2de53c2f200031a8840f2dc53c2f220
:10040c0000031b889a4236d010bd40f2e953c2f269
:10041c0000031978c1b11b78002b41d140f2c053b5
:10042c00c2f200031b681a7840f20043c4f20023a6
:10043c00996a0a439a6240f2de53c2f200031a88a8
:10044c00013292b21a80d7e740f2ea51c2f20001af
:10045c0009780029dfd040f2de5340f2c050c2f2de
:10046c000003c2f200001c88016809190978906a1f
:10047c0001439162e3e740f200420121c4f2002201
:10048c00137d0b4301211375137e1942fcd040f2ee
:10049c00c453c2f200031868c0b200f079f9b3e794
:1004ac0000f038fd40f2de53c2f20003c7e7c0464d
:020000040000fa
:1004bc0040f60003042210b5c4f20023197e0a4250
:1004cc001ad040f2e45040f2e051c2f20000c2f205
:1004dc00000104880988a14233d001211a7e1142ff
:1004ec00fcd0198d40f258530288c2f20003995483
:1004fc00038801339bb2038040f600030222c4f24e
:10050c000023197e0a421bd040f2e65040f2e25121
:10051c00c2f20000c2f2000104880988a1421cd07a
:10052c0001211a7e1142fcd040f2c852c2f20002e4
:10053c0001881268525c1a85038801339bb20380d0
:10054c0010bd1a750023038040f600030222c4f28a
:10055c000023197e0a42f3d0d6e71a7500230380d4
:04056c00eee7c046b0
:020000040000fa
:1005700041f200030222c4f200031a7641f2004362
:100580000022c4f200031a7441f6004240f205133f
:100590000821c4f20002c0f20403536253681942f6
:1005a000fcd141218023d15041f600428020c4f289
:1005b0000002013913581942fcd041f200022023f5
:1005c0003c200421c4f2000253631f331363135c05
:1005d0001942fcd12c230221d15441f200023c20cb
:1005e000c4f20002135c1942fcd141f20002402027
:1005f0000321c4f20002135c0b40032bfbd141f634
:10060000004204210533ff33c4f20002c0f20203aa
:0c061000136253681942fcd17047c046c9
:020000040000fa
:10061c00f0b51600050002278369426987b0029382
:10062c00d31a03939b1904910596019302ac3a00db
:10063c002100286800f085fb019b984208d1ab682b
:10064c00ea68ab619a18aa626b61300007b0f0bd22
:10065c0000280cda102200236968ab620a43ab61f4
:10066c006b616a60022f12d06368f61aede7019b8a
:10067c001b1a01936368984202d9c01a0834013fcf
:10068c0023681b1823606368181a6060cfe71e008c
:02069c00dbe79a
:020000040000fa
:02069e007047a3
:020000040000fa
:1006a000f7b51e4c256801942b0065b10022290086
:1006b000160013000f68bc460f6984450ad132b199
:1006c00017610b0010331800febd3900f2e7019be3
:1006d0001f60f6e7844503d9d3b11c68a44517d33e
:1006e0000a00002ff1d1002bedd01f001a68196904
:1006f000121a1037102a05d9186038180161010044
:10070000103a02609d4206d1019b19603b00dae776
:1007100016000b00e4e73161f8e7c046d40500207d
:020000040000fa
:10072000f8b5846a05000f00160054b1ab6a6a6917
:100730009b1ab3420cd2320039002800fff76eff3b
:1007400005e000f07ffb03002000002beed0f8bd99
:10075000002ef0d02b0034331b785bb2002b1bdb58
:100760003400dbb2621eb95c994212d1220039001a
:100770002800fff753ffa042e9d33f19341b2200a2
:100780003900686900f09efb6b6930001c196c61d0
:0c079000dde71400002ae5d13400f0e79a
:020000040000fa
:10079c0010b582b06b46d91d40f2004308700120a1
:1007ac00c4f200231a7d02431a7580204ef2001306
:1007bc008022cef20003c0039850bff34f8fbff3db
:1007cc006f8f40f2c4530024c2f200031c600878ff
:1007dc000121c0b200f008fb40f2e953c2f2000361
:1007ec001c7040f2ea53c2f200031c7040f2de535c
:1007fc00c2f200031c8040f2dc53c2f200031c80e6
:04080c0002b010bd69
:020000040000fa
:100810007fb51600c2680d0013000091591e8b4170
:10082000f31a019383680400039269460222006868
:10083000029300f078fa002808dc1822082302400e
:10084000534062681343636006000fe0019b8342dc
:10085000fad2a268c01ae3681018e26320642bb1d0
:10086000531ce3631378ad19013d2b70300004b0c5
:0208700070bd59
:020000040000fa
:02087200fee79f
:020000040000fa
:1008740040f2c853c2f2000310b5196040f2e253cb
:10088400c2f20003188040f2e053c2f200031a805f
:1008940040f600030620c4f2002398754ef20010bf
:1008a4008024cef20000240504600ab904321a75cb
:1008b40040f600030a78c4f200231a8540f2e65297
:1008c400c2f20002138801339bb2138010bdc046ec
:020000040000fa
:1008d40041f60043b0224021c4f2000310b50020c9
:1008e40099503d3900f092f90321012000f08ef96e
:1008f40040f600030c4ac4f200239a818422c4f215
:1009040010021a60c02292025a604ef2001240f2a3
:1009140018308021cef20002135809061b021b0a6c
:0c0924000b43135010bdc046098affffb2
:020000040000fa
:1009300000230e4a10b513600d4a0e4c13600e4a88
:1009400013600e4a13600e4a13600e4a536213611d
:100950000133936000f0dcfa00f09df80a4b9c42f2
:1009600000d310bd08cc9847f8e7c046d00500205a
:1009700014050020000100001005002008050020db
:0c0980000c0500201805002004010000f8
:020000040000fa
:10098c0037b5144d04002b6873b100f0fff90190da
:10099c0001a800f05dfa0f230f309843019900f085
:1009ac0031fa58b100232b6004b901340f230f34f2
:1009bc009c4324b90c222000074b1a603ebd042c2a
:1009cc0000d204242000fff765fe0028f6d0031f98
:0c09dc001c60f3e7d8060020d8050020be
:020000040000fa
:1009e80070b504000d0008b9002070bd43689b066f
:1009f80007d543698269934215d80023a362a3618e
:100a08006361e16b236c994204d2c91a0122206800
:100a180000f0b0fa00232364e363002de4d02068db
:100a280000f09afae1e70022c36a11009847636967
:0a0a3800002be2d101204042d7e775
:020000040000fa
:100a420010b540f29f63c0f20003984740f29f63e3
:100a5200c0f20003984700f0f4f840f20003c0f23d
:100a620000037f2293434ef60052cef200029360bf
:100a720040f63113c0f20003984740f29f63c0f280
:100a82000003984740f29f63c0f200039847fff7c4
:040a920040fcfee73f
:020000040000fa
:020a96007047a7
:020000040000fa
:100a980082b06b46d8716b46997141f60043b82114
:100aa8004020c4f200035a5802435a5041f200034e
:100ab8000122c4f200231a711a684c310a431a60e1
:100ac8004ef2001340f22030cef200031a580449c7
:100ad8001140c02212040a431a5002b07047c0469f
:040ae800ffff00ff0d
:020000040000fa
:100aec0041f200030122c4f200239b7a1a4215d072
:100afc0040f2bc53c2f2000319680131196040f690
:100b0c00c411186888420ad041f200030022012166
:100b1c00c4f200231a759a7a0a439a72704740f20b
:100b2c00e851c2f200010a7000221a60ece7c046dc
:020000040000fa
:100b3c0070b5040016001d00022a1ad043689b06eb
:100b4c0017d439b90db940f2004528000830fff729
:100b5c0017ff010020236268a16013436360230028
:100b6c00e5603433ff22012e00d10a221a70024ba9
:0c0b7c00e362002070bdc04621070000ad
:020000040000fa
:100b880044f200030422c4f2001310b55a6000f0c6
:100b980085f840f2f053c2f200031b680021186880
:100ba80000f0a0f940f2d463c2f200031b680021f0
:100bb800186800f097f9fff7d7fc00f057f900f034
:080bc800cff900f0b5f910bdf2
:020000040000fa
:100bd00010b5054c227832b9044b13b1044800e03b
:100be00000bf0123237010bd8c0500200000000011
:100bf00000000000034b10b51bb10349034800e09f
:100c000000bf10bd000000009005002000000000a3
:020000040000fa
:100c100010b54308c20701d50901c9b243f2400229
:100c2000c4f2000294460124604402782243027018
:100c300043f23002c4f20002944663441a780a4335
:040c40001a7010bd59
:020000040000fa
:100c440010b50948016811b9436803b910bd04001f
:100c54008368064a9bb20c349b009b584268200070
:100c6400984780002018ede714010000b00e000042
:020000040000fa
:100c7400064b1a680ab9064a1a60064a116809b985
:100c8400054911601a68054b1a607047b0050020c9
:100c9400e0060020ac050020e0080020a8050020a4
:020000040000fa
:100ca40040f2004300220121c4f200031a819a7920
:100cb4000a439a71032299780a40022a05d0022233
:0c0cc40001219a709a791142fcd070470f
:020000040000fa
:100cd00070b5084c050023680bb9fff7cbff064a37
:100ce000206812684519aa4201d3256070bd012011
:0c0cf0004042fbe7a8050020ac050020f6
:020000040000fa
:100cfc00020000234832d356591e0b4313700423b1
:100d0c00426813402bb1102313434360012040422f
:0a0d1c0070470364c3631800fae790
:020000040000fa
:100d2600f7b5002507000c002e000192019b9e429c
:100d360001db2800febd62682168380000f0fdf87e
:080d460001362d180834f1e715
:020000040000fa
:100d4e00f7b5002507000c002e000192019b9e4274
:100d5e0001db2800febd62682168380000f0edf866
:080d6e0001362d180834f1e7ed
:020000040000fa
:020d76007047c4
:020000040000fa
:100d780041f200030121c4f200235a7a0a435a724d
:100d88004ef200130422cef200035a607047c046a8
:020000040000fa
:100d980010b5054c22680ab9fff768ff034b1868bd
:100da8002368c01a10bdc046a8050020ac05002065
:020000040000fa
:100db800002310b5934206d103201840421e9041eb
:0e0dc8009b08c01810bdc45ccc540133f2e788
:020000040000fa
:020dd600704764
:020000040000fa
:100dd80043f2000382b00190019ac4f2000311b1fa
:0c0de8005a6002b070479a60fbe7c046fa
:020000040000fa
:100df40043f2000382b00190019ac4f2000311b1de
:0c0e04009a6102b070475a61fbe7c046db
:020000040000fa
:100e1000054a10b5146800231cb910600361016015
:0c0e20000133180010bdc046d4050020ae
:020000040000fa
:100e2c000023022143f24002c4f200029a1801335b
:080e3c001170202bf6d1704764
:020000040000fa
:100e440010b50400fff758ff28b9a368e268a3614e
:080e540063619b18a36210bd4d
:020000040000fa
:100e5c00006810b5002801da002010bdfff732ff42
:060e6c00431cfad1f8e777
:020000040000fa
:100e740044f200030222c4f200135a60013a1a72c7
:040e84007047c046ad
:020000040000fa
:100e880041f200030221c4f200231a680a431a60df
:040e98007047c04699
:020000040000fa
:100e9c0040f600030221c4f200231a680a431a60c8
:040eac007047c04685
:020000040000fa
:100eb000ff0e0000b90d0000750f0000750f000057
:040ec000750f0000aa
:020000040000fa
:100ec40010b52ab10023cc5cc45401339342fad147
:040ed40010bdc04647
:020000040000fa
:100ed80010b500f03df8024b1860586010bdc046d0
:040ee800b40500202d
:020000040000fa
:100eec004a424a4110b5520040f20043fff720fe3f
:020efc0010bd27
:020000040000fa
:100efe008a18914201d10020704700230b700131f6
:020f0e00f7e703
:020000040000fa
:100f100010b5fff7e1fffff72efffff72cff10bd25
:020000040000fa
:0c0f200040f28a53c2f200031b887047a5
:020000040000fa
:0a0f2c0010b5006800f00af810bdcf
:020000040000fa
:080f3800bff35f8f62b6704742
:020000040000fa
:080f4000012040427047c04649
:020000040000fa
:080f4800012040427047c04641
:020000040000fa
:080f500010b5fff7cbfd10bd49
:020000040000fa
:080f5800004870475806002014
:020000040000fa
:060f600001204042704731
:020000040000fa
:040f68007047c046c8
:020000040000fa
:040f6c00fee7c04696
:020000040000fa
:040f7000fee7c04692
:020000040000fa
:040f740000207047a2
:020000040000fa
:040f7800002070479e
:020000040000fa
:040f7c00002070479a
:020000040000fa
:0200000400807a
:044000007f438fb0bb
:020000040000fa
:0200000400807a
:04400400bbfcffff03
:020000040000fa
:0200000400807a
:04c0040000ffffff3b
:020000040000fa
:0200000400807a
:04c04000ffffffff00
:020000040000fa
:0200000400807a
:04c04400fffffffffc
:020000040000fa
:0200000400807a
:04c04800fffffffff8
:020000040000fa
:0200000400807a
:04c04c00fffffffff4
:00000001FF
