:020000040000fa
:10000000f00f0020370e00000d1600001116000042
:1000100000000000000000000000000000000000e0
:10002000000000000000000000000000c30c000001
:100030000000000000000000c30c0000c30c000022
:10004000c30c0000c30c0000c30c0000c30c000074
:10005000c30c0000c30c0000c30c0000c30c000064
:10006000c30c0000c30c0000c30c0000c30c000054
:10007000c30c0000c30c0000c30c0000c30c000044
:10008000c30c0000c30c0000c30c0000c30c000034
:10009000c30c0000c30c000029040000c30c0000c6
:1000a000c30c0000c30c0000c30c0000ed070000ef
:1000b000bd060000c30c00000000000000000000ae
:1000c0000000000000000000e9150000f11500002c
:1000d000c30c0000c30c0000c30c0000c30c0000e4
:1000e000c30c0000c30c0000c30c0000c30c0000d4
:0400f000c30c00003d
:020000040000fa
:1000f400f8b5c046f8bc08bc9e467047c91000005d
:10010400f8b5c046f8bc08bc9e467047a510000070
:020000040000fa
:10011400840400201c00000000000000e204002011
:100124000100000000000000b40400200c000000e6
:1001340000000000640400201e0000000000000015
:10014400e3040020010000000000000082040020fd
:100154000200000000000000d4040020060000009b
:100164000000000000000020080000000000000063
:10017400da0400200200000000000000e404002073
:100184000200000000000000dc0400200200000067
:1001940000000000e0050020020000000100000053
:1001a40088130000d40500200800000001000000ae
:1001b400b405b405b4056c02e60400200200000096
:1001c40000000000c0040020040000000000000043
:1001d400de040020040000000000000008000020ed
:1001e4000400000000000000c4040020040000001b
:1001f4000000000014040020500000000000000073
:10020400e80400206c00000001000000f404002059
:10021400f0040020f4040020000000002500000089
:100224001400002000040000000000000000000092
:1002340000000000000000000000000000000000ba
:10024400000000000000000019160000000000007b
:10025400000000000000000000000000610c00002d
:10026400000000000000000000000000000000008a
:1002740000000000000000000c0000200804000042
:1002840000000000b4050020200000000100000070
:100294000100000003000000000000000000000056
:1002a400000000000000000000000000ac0400207a
:1002b400ac0400200800000000000000c804002076
:1002c400040000000000000054050020600000004d
:1002d4000100000001000000030000000000000015
:1002e400000000000000000000000000000000000a
:1002f400dd0d000000000000000000000000000010
:10030400bd150000ef130000000000000000000015
:1003140000000000000000000000000000000000d9
:1003240000000000000000000000000000000000c9
:1003340000000000dc0500200400000001000000b3
:1003440001000000cc0400200800000000000000b0
:10035400a00400200c0000000000000000000000c9
:1003640000000000666666666666666666666666c1
:020000040000fa
:1003740010b5052000f0d4fe002140f2001001f079
:1003840035f8012140f2001001f03ef80a2000f097
:10039400c7fe002140f2001001f036f80a2000f0f8
:1003a400bffe40f20010012101f02ef8142000f0ed
:1003b400b7fe0e2144f2000001f034f80028f8d111
:1003c400002148f2000001f01ff88020400200f0f4
:1003d400ddff122000f098ff48f20000012101f037
:1003e40013f88020400200f001fc0e2144f20000ca
:1003f40001f018f80028f8d18020400200f0c6ff70
:100404001a2000f0b3ff142000f07eff222000f039
:10041400adffd72000f078ff8020400200f0e6fb1b
:0404240010bdc04601
:020000040000fa
:1004280040f2004210b5c4f20022137edb070cd460
:1004380040f2e043c2f200031a8840f2de43c2f2ff
:1004480000031b889a4226d010bd40f2e643c2f250
:1004580000031978a1b940f2e741c2f20001097816
:1004680071b140f2e04340f20800c2f20003c2f268
:1004780000001c88016809190978c9b2916205e071
:100488001b78c3b140f2e043c2f200031a8801327c
:1004980092b21a80d0e740f200420121c4f2002251
:1004a800137e1942fcd040f2c043c2f20003186820
:1004b80000f09afbc8e740f2080340f20042c2f29b
:1004c80000031b68c4f200221b78dbb29362d9e7f1
:020000040000fa
:1004d80041f200030222c4f200031a7641f20043fb
:1004e8000022c4f200031a7441f6004240f20513d8
:1004f8000821c4f20002c0f204035362536819428f
:10050800fcd141218023d15041f600428020c4f221
:100518000002013913581942fcd041f2000220238d
:100528003c200421c4f2000253631f331363135c9d
:100538001942fcd12c230221d15441f200023c2063
:10054800c4f20002135c1942fcd141f200024020bf
:100558000321c4f20002135c0b40032bfbd141f6cc
:10056800004204210533ff33c4f20002c0f2020343
:0c057800136253681942fcd17047c04662
:020000040000fa
:1005840000b583b000f044fe00f0d2fc0028fbd19b
:1005940040f2644341f260010090c2f20003102271
:1005a400c0f200011d3000f065f900f0cffe002814
:1005b400fbd140f2644341f280010090c2f2000397
:1005c4000722c0f200010e3000f054f900f0befe24
:1005d4000028fbd1012341f29001009340f26443cf
:1005e4000122c2f20003c0f20001013000f042f91e
:1005f40000f0acfe0028fbd140f2644341f29401c8
:100604000090c2f200030722c0f200010d3000f096
:1006140031f900f09bfe0028fbd103b000bdc046b9
:020000040000fa
:1006240010b5002000f0d4fc41f6004342f205125c
:10063400c4f200031a62022000f060ff00f052fed0
:10064400012140f2004000f03bfb80200021c00269
:1006540000f0ccfe00f052fa00f046ff022000f059
:1006640089fa00f05fff00f03bfd00f0cbf900f0e9
:100674006dfe0028fbd140f2e244002100f02efc84
:10068400c2f2000400f052fe00f024ff00e030bf8c
:100694002378002bfbd180200121c00200f0b4fe9e
:1006a40023781bb930bf2378002bfbd08020002196
:0806b400c00200f0a9feebe713
:020000040000fa
:1006bc0040f2e34310b5c2f200031b780bbb40f6cb
:1006cc0000020121c4f20022137e1942fcd040f238
:1006dc00d64340f20401c2f20003c2f20001148db1
:1006ec00096818880c541988013189b2198040f2b4
:1006fc008241c2f20001098818880139884209d068
:10070c0010bd40f60003c4f20023188dc0b200f0f7
:10071c001bf8f5e7042111750021198006238021af
:10072c0013754ef200138022cef200030905995086
:10073c00bff34f8fbff36f8f49009950bff34f8fab
:08074c00bff36f8fdce7c0462c
:020000040000fa
:1007540040f2e54270b5c2f200021378002b2fd0ac
:1007640040f2004340f2e44540f2dc41c4f200238d
:10077400986240f2d450c2f20005c2f200012c7813
:100784000b88c2f2000066000133305a9bb20b8022
:1007940098420fd040f2da4440f2e052c2f2000430
:1007a4002388c2f20002013312889bb223809a424a
:1007b4000bd070bd002301342c700b801370e9e75b
:1007c4003a28f6d101331370f3e740f6000304220c
:1007d4008020c4f200231a75400200f007fa0023b7
:0807e4002b702380e5e7c046fd
:020000040000fa
:1007ec0040f60003c4f200231a7e92071bd50121a8
:1007fc001a7e1142fcd040f2d84240f20001c2f203
:10080c000002c2f2000110880968095c1985118880
:10081c00013189b2118040f2d441c2f2000110883a
:10082c000988814200d0704702211975002111807e
:10083c0040f28242c2f20002128812b104229a756e
:10084c00f1e7062280211a754ef200137a32cef2ad
:10085c00000309059950bff34f8fbff36f8f490009
:0c086c009950bff34f8fbff36f8fdce794
:020000040000fa
:1008780030b503ac257840f2e344c2f20004257099
:1008880040f20004c2f20004216040f20404c2f203
:100898000004236040f2d443c2f20003188040f2ff
:1008a8008243c2f200031a8040f60003c4f2002318
:1008b800fdb904221a75c8b10a781a8540f2d842df
:1008c800c2f20002138801339bb2138040f6000382
:1008d8000622c4f200239a754ef200138022cef24b
:1008e800000312051a6052001a6030bd02221a7500
:0c08f800e2e702221a750a781a85e7e789
:020000040000fa
:10090400f0b51600050002278369426987b0029397
:10091400d31a03939b1904910596019302ac3a00f0
:100924002100286800f0c9fc019b984208d1ab68fb
:10093400ea68ab619a18aa626b61300007b0f0bd37
:1009440000280cda102200236968ab620a43ab6109
:100954006b616a60022f12d06368f61aede7019b9f
:100964001b1a01936368984202d9c01a0834013fe4
:1009740023681b1823606368181a6060cfe71e00a1
:02098400dbe7af
:020000040000fa
:020986007047b8
:020000040000fa
:10098800f7b51e4c256801942b0065b1002229009b
:10099800160013000f68bc460f6984450ad132b1ae
:1009a80017610b0010331800febd3900f2e7019bf8
:1009b8001f60f6e7844503d9d3b11c68a44517d353
:1009c8000a00002ff1d1002bedd01f001a68196919
:1009d800121a1037102a05d9186038180161010059
:1009e800103a02609d4206d1019b19603b00dae78c
:1009f80016000b00e4e73161f8e7c046cc0400209c
:020000040000fa
:100a080010b5fff7b3fc8020400200f0bdfc2420a5
:100a180000f0aafcfff7b2fd8020400200f0e4f8e5
:100a28008020400200f0b0fc262000f09dfc41f23e
:100a38008834013c0020a4b200f064fc002cf8d1fa
:100a48008020400200f0d0f80e2144f2000000f0af
:100a5800e7fc0028f8d18020400200f095fc202017
:100a680000f082fc8020400200f0bef80e2144f223
:0c0a7800000000f0d5fc0028f8d110bdf3
:020000040000fa
:100a8400f8b5846a05000f00160054b1ab6a6a69b0
:100a94009b1ab3420cd2320039002800fff730ff12
:100aa40005e000f0f5fc03002000002beed0f8bdbb
:100ab400002ef0d02b0034331b785bb2002b1bdbf1
:100ac4003400dbb2621eb95c994212d122003900b3
:100ad4002800fff715ffa042e9d33f19341b220079
:100ae4003900686900f032fd6b6930001c196c61d3
:0c0af400dde71400002ae5d13400f0e733
:020000040000fa
:100b000041f6004310b5b0224024c4f200039c50cb
:100b10000121022000f06cfc0021012000f068fca3
:100b20000321002000f018fb0321012000f014fb3a
:100b300040f600030f4ac4f200239a818422c4f2d3
:100b400010021a60c02292025a604ef2001340f264
:100b500018308021cef200031a5809061202120a38
:100b60000a4340f21c311a50ff205a588243224354
:080b70005a5010bd2bf6ffffe7
:020000040000fa
:100b780010b500210400102000f036fc00211020e0
:100b880000f040fc0021202000f02efc0021202055
:100b980000f038fc0321042000f0dafa03210520d4
:100ba80000f0d6fa41f60043ac224021c4f200031b
:100bb800995040f200430022c4f200231c735a608b
:100bc8008c32c1f230021a604ef2001340f2143037
:100bd800cef200031a5803491140c02212040a43f6
:080be8001a5010bdffff00ffd1
:020000040000fa
:100bf00000b583b001900198012100f007fc40f29c
:100c000000430121c4f200231a7d0a431a75802192
:100c10004ef200138022cef20003c9039950bff3b5
:100c20004f8fbff36f8f40f2c0420023c2f2000229
:100c3000136040f2e642c2f20002137040f2e74253
:100c4000c2f20002137040f2e042c2f200021380ce
:100c500040f2de42c2f20002138003b000bdc04683
:020000040000fa
:100c60007fb51600c2680d0013000091591e8b411c
:100c7000f31a019383680400039269460222006814
:100c8000029300f008fb002808dc18220823024029
:100c9000534062681343636006000fe0019b834288
:100ca000fad2a268c01ae3681018e26320642bb17c
:100cb000531ce3631378ad19013d2b70300004b071
:020cc00070bd05
:020000040000fa
:020cc200fee74b
:020000040000fa
:100cc40010b582b06b460190d970d81c41f6004330
:100cd400b8214024c4f200035a5822435a5041f226
:100ce40000430122c4f200231a71019a19680a43cd
:100cf40004210a431a60027812b11a6814431c6072
:100d04004ef2001240f22030c021cef200021358fd
:100d140009061b021b0a0b43135002b010bdc04648
:020000040000fa
:100d240000230e4a10b513600d4a0e4c13600e4a90
:100d340013600e4a13600e4a13600e4a5362136125
:100d44000133936000f030fc00f09df80a4b9c42a4
:100d540000d310bd08cc9847f8e7c046c80400206b
:100d640020040020000100001c04002014040020c2
:0c0d7400180400202404002004010000ea
:020000040000fa
:100d800037b5144d04002b6873b100f011fb0190ce
:100d900001a800f08bfb0f230f309843019900f05e
:100da0005ffb58b100232b6004b901340f230f34cb
:100db0009c4324b90c222000074b1a603ebd042c32
:100dc00000d204242000fff7dffd0028f6d0031f27
:0c0dd0001c60f3e7dc050020d0040020cc
:020000040000fa
:100ddc0070b504000d0008b9002070bd43689b0677
:100dec0007d543698269934215d80023a362a36196
:100dfc006361e16b236c994204d2c91a0122206809
:100e0c0000f006fc00232364e363002de4d020688b
:100e1c0000f0f0fbe1e70022c36a11009847636918
:0a0e2c00002be2d101204042d7e77d
:020000040000fa
:100e360010b540f68713c0f20003984740f68713b3
:100e4600c0f20003984700f09cf940f20003c0f29c
:100e560000037f2293434ef60052cef200029360c7
:100e660040f62553c0f20003984740f68713c0f2b8
:100e76000003984740f68713c0f200039847fff730
:040e8600cefbfee7ba
:020000040000fa
:020e8a007047af
:020000040000fa
:100e8c0041f20003c4f200239b7adb0715d540f234
:100e9c00b443c2f200031a6801321a6040f6c4125d
:100eac00196891420ad041f2000300220121c4f2d8
:100ebc0000231a759a7a0a439a72704740f2e241fb
:100ecc00c2f200010a78d243d2b20a7000221a6030
:040edc00e9e7c0463c
:020000040000fa
:100ee00082b06b46d8716b46997141f60043b821c8
:100ef0004020c4f200035a5802435a5041f2000302
:100f00000122c4f200231a711a684c310a431a6094
:100f10004ef2001340f22030cef200031a5804497a
:100f20001140c02212040a431a5002b07047c04652
:040f3000ffff00ffc0
:020000040000fa
:100f3400002330b583b0009341f29c5140f26443e6
:100f44000722c2f20003c0f200010420fff792fc62
:100f540000f0fcf90028fbd140f2644400230d2288
:100f6400c2f20004e15c064d914206d1052b05d086
:100f7400ea5c0133e15c9142f8d0012003b030bd5a
:040f8400a5150000af
:020000040000fa
:100f880070b5040016001d00022a1ad043689b069b
:100f980017d439b90db940f2004528000830fff7d9
:100fa800ebfe010020236268a16013436360230005
:100fb800e5603433ff22012e00d10a221a70024b59
:0c0fc800e362002070bdc046850a0000f6
:020000040000fa
:100fd40044f200030422c4f2001310b55a6000f076
:100fe40001f940f2ec43c2f200031b6800211868c7
:100ff40000f0c0fa40f2d053c2f200031b68002193
:10100400186800f0b7fafff765fa00f059fa00f033
:08101400f9fa00f0d7fa10bd53
:020000040000fa
:10101c0040f2b843c2f200031a6810b501321a60ec
:10102c001a6840f2bc43c2f200031b689a4208d211
:10103c0041f200430622c4f200231a75053a9a7253
:10104c0010bd41f200430122c4f200231a7200f0d9
:04105c005bfaede767
:020000040000fa
:1010600041542b43495053544152543d2254435010
:10107000222c224950222c373737370d0a00000026
:1010800041542b43495053454e443d310d0a000015
:101090006100000041542b434950434c4f53450dd0
:0410a0000a00c0463c
:020000040000fa
:1010a40010b5054c227832b9044b13b1044800e062
:1010b40000bf0123237010bd840400200000000041
:1010c40000000000034b10b51bb10349034800e0c6
:1010d40000bf10bd000000008804002000000000d4
:020000040000fa
:1010e40010b58024002148f2000000f07ff964026a
:1010f400012140f2001000f079f92000002100f0f5
:1011040075f9012144f2000000f070f9200001217a
:1011140000f07af9012148f2000000f075f910bde1
:020000040000fa
:1011240010b540f2bc44c2f20004206000f088f91b
:1011340000f0a2f940f2b841c2f200010a68236843
:101144009a4204d230bf0a6823689a42fad3002331
:041154000b6010bd5f
:020000040000fa
:101158004308c20701d50901c9b243f24002c4f2eb
:101168000002944601226044027043f23002c4f245
:101178000002944663441a780a431a707047c046be
:020000040000fa
:1011880010b50948016811b9436803b910bd0400d6
:101198008368064a9bb20c349b009b584268200027
:1011a800984780002018ede7140100003c15000066
:020000040000fa
:1011b800064b1a680ab9064a1a60064a116809b93c
:1011c800054911601a68054b1a607047a804002089
:1011d800e8050020a4040020e8070020a00400205f
:020000040000fa
:1011e80040f2004300220121c4f200031a819a79d7
:1011f8000a439a71032299780a40022a05d00222ea
:0c12080001219a709a791142fcd07047c5
:020000040000fa
:10121400002300b583b0009341f2e05140f26443ef
:101224000722c2f20003c0f200010620fff722fbee
:0c12340000f08cf80028fbd103b000bdd6
:020000040000fa
:1012400070b5084c050023680bb9fff7b5ff064ad7
:10125000206812684519aa4201d3256070bd01209b
:0c1260004042fbe7a0040020a404002092
:020000040000fa
:10126c00020000234832d356591e0b43137004233b
:10127c00426813402bb110231343436001204042ba
:0a128c0070470364c3631800fae71b
:020000040000fa
:10129600f7b5002507000c002e000192019b9e4227
:1012a60001db2800febd62682168380000f08df978
:0812b60001362d180834f1e7a0
:020000040000fa
:1012be00f7b5002507000c002e000192019b9e42ff
:1012ce0001db2800febd62682168380000f07df960
:0812de0001362d180834f1e778
:020000040000fa
:0212e60070474f
:020000040000fa
:1012e80043f2000000230221c4f2000043f240024e
:1012f800c4f200029a1801331170202bf6d1213b59
:0413080003607047c7
:020000040000fa
:10130c0040f200420121c4f20022137e1942fcd0ab
:10131c00906240f200420121c4f20022137e194275
:04132c00fcd070473a
:020000040000fa
:1013300041f200030121c4f200235a7a0a435a728f
:101340004ef200130422cef200035a607047c046ea
:020000040000fa
:1013500040f60003c4f200239a7d520704d4022011
:101360009b7d184000b9704730bf0120fbe7c046a5
:020000040000fa
:1013700010b50400002148f2000000f047f82000fa
:10138000fff7c4ff012148f2000000f03ff810bd54
:020000040000fa
:1013900040f2c04300b583b00190019ac2f200034d
:1013a0001a600198002100f031f803b000bdc0467a
:020000040000fa
:1013b00010b5054c22680ab9fff7fefe034b18680a
:1013c0002368c01a10bdc046a0040020a404002059
:020000040000fa
:1013d000002310b5934206d103201840421e9041cd
:0e13e0009b08c01810bdc45ccc540133f2e76a
:020000040000fa
:0213ee00704746
:020000040000fa
:1013f00043f2000382b00190019ac4f2000311b1dc
:0c1400005a6002b070479a60fbe7c046db
:020000040000fa
:10140c0043f2000382b00190019ac4f2000311b1bf
:0c141c009a6102b070475a61fbe7c046bd
:020000040000fa
:1014280043f2000382b00190c4f200031b6a0198e2
:0c1438001840c840c0b202b07047c04667
:020000040000fa
:1014440041f200430122c4f200235a724ef2001307
:0c1454000732cef200035a607047c04619
:020000040000fa
:10146000054a10b5146800231cb9106003610160bf
:0c1470000133180010bdc046cc04002061
:020000040000fa
:10147c0041f2004306220221c4f200231a751a68b5
:08148c000a431a607047c046d4
:020000040000fa
:1014940010b50400fff7e8fe28b9a368e268a36169
:0814a40063619b18a36210bdf7
:020000040000fa
:1014ac00006810b5002801da002010bdfff7c2fe5d
:0614bc00431cfad1f8e721
:020000040000fa
:1014c40044f200030222c4f200135a60013a1a7271
:0414d4007047c04657
:020000040000fa
:1014d80041f200030221c4f200231a680a431a6089
:0414e8007047c04643
:020000040000fa
:1014ec0040f600030221c4f200231a680a431a6072
:0414fc007047c0462f
:020000040000fa
:1015000040f20042c4f20002507053788342fcd192
:041510007047c0461a
:020000040000fa
:1015140041f200430221c4f200231a688a431a608c
:041524007047c04606
:020000040000fa
:1015280040f200430221c4f200231a680a431a60f9
:041538007047c046f2
:020000040000fa
:10153c008b150000d11300001516000015160000c5
:04154c001516000070
:020000040000fa
:1015500010b52ab10023cc5cc45401339342fad1b4
:0415600010bdc046b4
:020000040000fa
:1015640010b500f047f8024b1860586010bdc04633
:04157400ac040020a3
:020000040000fa
:101578004a424a4110b5520040f20043fff700fdcd
:0215880010bd94
:020000040000fa
:10158a008a18914201d10020704700230b70013163
:02159a00f7e771
:020000040000fa
:10159c0041540d0a000000000d0a4f4b0d0a0000cb
:020000040000fa
:1015ac0010b5fff7d9fffff798fefff796fe10bdb9
:020000040000fa
:0a15bc0010b5006800f00af810bd39
:020000040000fa
:0815c800bff35f8f62b67047ac
:020000040000fa
:0815d000012040427047c046b3
:020000040000fa
:0815d800012040427047c046ab
:020000040000fa
:0815e000415445300d0a0000e2
:020000040000fa
:0815e80010b5fff74ffc10bd28
:020000040000fa
:0815f00010b5fff713fd10bd5b
:020000040000fa
:0815f800004870475405002073
:020000040000fa
:061600000120404270478a
:020000040000fa
:041608007047c04621
:020000040000fa
:04160c00fee7c046ef
:020000040000fa
:04161000fee7c046eb
:020000040000fa
:0416140000207047fb
:020000040000fa
:0416180000207047f7
:020000040000fa
:04161c0000207047f3
:020000040000fa
:0200000400807a
:044000007f438fb0bb
:020000040000fa
:0200000400807a
:04400400bbfcffff03
:020000040000fa
:0200000400807a
:04c0040000ffffff3b
:020000040000fa
:0200000400807a
:04c04000ffffffff00
:020000040000fa
:0200000400807a
:04c04400fffffffffc
:020000040000fa
:0200000400807a
:04c04800fffffffff8
:020000040000fa
:0200000400807a
:04c04c00fffffffff4
:00000001FF
