:020000040000fa
:10000000f00f00201f0f0000fd1700000118000076
:1000100000000000000000000000000000000000e0
:10002000000000000000000000000000ab0d000018
:100030000000000000000000ab0d0000ab0d000050
:10004000ab0d0000ab0d0000ab0d000075160000fd
:10005000891600007117000081170000ab0d000029
:10006000ab0d0000ab0d0000ab0d0000ab0d0000b0
:10007000ab0d0000ab0d0000ab0d0000ab0d0000a0
:10008000ab0d0000ab0d0000ab0d0000ab0d000090
:10009000ab0d0000ab0d000039040000ab0d0000fb
:1000a000ab0d0000ab0d0000ab0d000065070000bc
:1000b00035060000ab0d000000000000000000004d
:1000c0000000000000000000d9170000e117000048
:1000d000ab0d0000ab0d0000ab0d0000ab0d000040
:1000e000ab0d0000ab0d0000ab0d0000ab0d000030
:0400f000ab0d000054
:020000040000fa
:1000f400f8b5c046f8bc08bc9e467047b111000074
:10010400f8b5c046f8bc08bc9e4670478d11000087
:020000040000fa
:10011400840400201c00000000000000e204002011
:100124000100000000000000b404002004000000ee
:1001340000000000dc0500200400000001000000b5
:10014400a1170000b804002008000000000000000f
:10015400640400201e00000000000000e3040020ee
:1001640001000000000000008204002002000000e2
:1001740000000000d404002006000000000000007d
:10018400000000200800000000000000da04002045
:100194000200000000000000e4040020020000004f
:1001a40000000000dc040020020000000000000049
:1001b400e405002002000000010000008813000094
:1001c400d40500200800000001000000b405b405b7
:1001d400b4056c02e60400200200000000000000e8
:1001e400c00400200400000000000000de04002021
:1001f40004000000000000000800002004000000cb
:1002040000000000c40400200400000000000000fe
:10021400140400205000000000000000e804002046
:100224006c00000001000000f4040020f004002031
:10023400f404002000000000250000001400002049
:1002440000040000000000000000000000000000a6
:10025400000000000000000000000000000000009a
:100264000000000009180000000000000000000069
:100274000000000000000000490d00000000000024
:10028400000000000000000000000000000000006a
:10029400000000000c000020080400000000000022
:1002a400b40500202000000001000000010000004f
:1002b4000300000000000000000000000000000037
:1002c4000000000000000000ac040020ac0400208a
:1002d4000800000000000000c80400200400000022
:1002e4000000000054050020600000000100000030
:1002f40001000000030000000000000000000000f6
:10030400000000000000000000000000c50e000016
:10031400000000000000000000000000ad17000015
:100324008b15000000000000000000000000000029
:1003340000000000000000000000000000000000b9
:1003440000000000000000000000000000000000a9
:10035400e00500200400000001000000010000008e
:10036400cc0400200800000000000000a0040020cd
:100374000c0000000000000000000000000000006d
:020000040000fa
:1003840010b5052000f05cff002140f2001001f0e0
:10039400fbf8012140f2001001f004f90a2000f0fa
:1003a4004fff002140f2001001f0fcf80a2000f099
:1003b40047ff40f20010012101f0f4f8142000f08e
:1003c4003fff0e2144f2000001f0faf80028f8d1b2
:1003d400002148f2000001f0e5f88020400201f01d
:1003e400a3f8122001f05ef848f20000012101f0a8
:1003f400d9f88020400200f03bfc0e2144f20000ba
:1004040001f0def80028f8d18020400201f08cf8d9
:100414001a2001f079f8142001f044f8222001f0a8
:1004240073f8d72001f03ef88020400200f020fc51
:0404340010bdc046f1
:020000040000fa
:1004380040f2004210b5c4f20022137edb070cd450
:1004480040f2e043c2f200031a8840f2de43c2f2ef
:1004580000031b889a4226d010bd40f2e643c2f240
:1004680000031978a1b940f2e741c2f20001097806
:1004780071b140f2e04340f20800c2f20003c2f258
:1004880000001c88016809190978c9b2916205e061
:100498001b78c3b140f2e043c2f200031a8801326c
:1004a80092b21a80d0e740f200420121c4f2002241
:1004b800137e1942fcd040f2c043c2f20003186810
:1004c80000f0d4fbc8e740f2080340f20042c2f251
:1004d80000031b68c4f200221b78dbb29362d9e7e1
:020000040000fa
:1004e80041f200030222c4f200031a7641f20043eb
:1004f8000022c4f200031a7441f6004240f20513c8
:100508000821c4f20002c0f204035362536819427e
:10051800fcd141218023d15041f600428020c4f211
:100528000002013913581942fcd041f2000220237d
:100538003c200421c4f2000253631f331363135c8d
:100548001942fcd12c230221d15441f200023c2053
:10055800c4f20002135c1942fcd141f200024020af
:100568000321c4f20002135c0b40032bfbd141f6bc
:10057800004204210533ff33c4f20002c0f2020333
:0c058800136253681942fcd17047c04652
:020000040000fa
:1005940000b583b000f0e6fe00f03efd0028fbd17c
:1005a40040f2644341f248110090c2f20003102269
:1005b400c0f200011d3000f019f900f095ff002889
:1005c400fbd140f2644341f268110090c2f200038f
:1005d4000722c0f200010e3000f008f900f084ff99
:1005e4000028fbd1012341f27811009340f26443c7
:1005f4000122c2f20003c0f20001013000f0f6f85b
:1006040000f072ff0028fbd140f2644341f27c11f8
:100614000090c2f200030722c0f200010d3000f086
:10062400e5f800f061ff0028fbd103b000bdc0462f
:020000040000fa
:1006340040f2e34310b5c2f200031b780bbb40f653
:1006440000020121c4f20022137e1942fcd040f2c0
:10065400d64340f20401c2f20003c2f20001148d39
:10066400096818880c541988013189b2198040f23c
:100674008241c2f20001098818880139884209d0f0
:1006840010bd40f60003c4f20023188dc0b200f080
:100694001bf8f5e704211175002119800623802138
:1006a40013754ef200138022cef20003090599500f
:1006b400bff34f8fbff36f8f49009950bff34f8f34
:0806c400bff36f8fdce7c046b5
:020000040000fa
:1006cc0040f2e54270b5c2f200021378002b2fd035
:1006dc0040f2004340f2e44540f2dc41c4f2002316
:1006ec00986240f2d450c2f20005c2f200012c789c
:1006fc000b88c2f2000066000133305a9bb20b80ab
:10070c0098420fd040f2da4440f2e452c2f20004b4
:10071c002388c2f20002013312889bb223809a42d2
:10072c000bd070bd002301342c700b801370e9e7e3
:10073c003a28f6d101331370f3e740f60003042294
:10074c008020c4f200231a75400200f08dfa0023b9
:08075c002b702380e5e7c04685
:020000040000fa
:1007640040f60003c4f200231a7e92071bd5012130
:100774001a7e1142fcd040f2d84240f20001c2f28b
:100784000002c2f2000110880968095c1985118809
:10079400013189b2118040f2d441c2f200011088c3
:1007a4000988814200d07047022119750021118007
:1007b40040f28242c2f20002128812b104229a75f7
:1007c400f1e7062280211a754ef200137a32cef236
:1007d400000309059950bff34f8fbff36f8f490092
:0c07e4009950bff34f8fbff36f8fdce71d
:020000040000fa
:1007f00030b503ac257840f2e344c2f20004257022
:1008000040f20004c2f20004216040f20404c2f28b
:100810000004236040f2d443c2f20003188040f287
:100820008243c2f200031a8040f60003c4f20023a0
:10083000fdb904221a75c8b10a781a8540f2d84267
:10084000c2f20002138801339bb2138040f600030a
:100850000622c4f200239a754ef200138022cef2d3
:10086000000312051a6052001a6030bd02221a7588
:0c087000e2e702221a750a781a85e7e711
:020000040000fa
:10087c00802010b5400200f053fe242000f040fe12
:10088c0041f28834013c0020a4b200f007fe002c99
:10089c00f8d18020400200f0e7f98020400200f0ff
:1008ac003ffe262000f02cfe41f28834013c002053
:1008bc00a4b200f0f3fd002cf8d18020400200f02f
:1008cc00d3f90e2144f2000000f076fe0028f8d196
:1008dc008020400200f024fe202000f011fe802039
:1008ec00400200f0c1f90e2144f2000000f064fe59
:0808fc000028f8d110bdc04630
:020000040000fa
:1009040010b5002000f0d8fb41f6004342f2051276
:10091400c4f200031a62022000f0c8fe00f0b0fd29
:10092400012140f2004000f03ffa80200021c00283
:1009340000f02afe00f024f900f0aefe022000f0e0
:100944005bf900f0c7fe00f03ffc0021ff2000f03f
:10095400c7f9012000f08efc012000f055fc00f0e6
:10096400c3fe0021002000f02dfb40f2dc5400f017
:10097400abfd022000f09afec2f2000423689847ff
:0409840030bffbe79e
:020000040000fa
:10098800f0b51600050002278369426987b0029313
:10099800d31a03939b1904910596019302ac3a006c
:1009a8002100286800f031fd019b984208d1ab680e
:1009b800ea68ab619a18aa626b61300007b0f0bdb3
:1009c80000280cda102200236968ab620a43ab6185
:1009d8006b616a60022f12d06368f61aede7019b1b
:1009e8001b1a01936368984202d9c01a0834013f60
:1009f80023681b1823606368181a6060cfe71e001d
:020a0800dbe72a
:020000040000fa
:020a0a00704733
:020000040000fa
:100a0c00f7b51e4c256801942b0065b10022290016
:100a1c00160013000f68bc460f6984450ad132b129
:100a2c0017610b0010331800febd3900f2e7019b73
:100a3c001f60f6e7844503d9d3b11c68a44517d3ce
:100a4c000a00002ff1d1002bedd01f001a68196994
:100a5c00121a1037102a05d91860381801610100d4
:100a6c00103a02609d4206d1019b19603b00dae707
:100a7c0016000b00e4e73161f8e7c046cc04002017
:020000040000fa
:100a8c0010b5fff779fc8020400200f049fd2420ce
:100a9c0000f036fdfff778fd8020400200f0e4f80e
:100aac008020400200f03cfd262000f029fd41f2a0
:100abc008834013c0020a4b200f0f0fc002cf8d1ea
:100acc008020400200f0d0f80e2144f2000000f02b
:100adc0073fd0028f8d18020400200f021fd202079
:100aec0000f00efd8020400200f0bef80e2144f212
:0c0afc00000000f061fd0028f8d110bde2
:020000040000fa
:100b0800f8b5846a05000f00160054b1ab6a6a692b
:100b18009b1ab3420cd2320039002800fff730ff8d
:100b280005e000f081fd03002000002beed0f8bda9
:100b3800002ef0d02b0034331b785bb2002b1bdb6c
:100b48003400dbb2621eb95c994212d1220039002e
:100b58002800fff715ffa042e9d33f19341b2200f4
:100b68003900686900f0d2fd6b6930001c196c61ae
:0c0b7800dde71400002ae5d13400f0e7ae
:020000040000fa
:100b840041f6004310b5b0224024c4f200039c5047
:100b94000121022000f0f8fc0021012000f0f4fc07
:100ba4000321002000f080fb0321012000f07cfbe6
:100bb40040f600030f4ac4f200239a818422c4f24f
:100bc40010021a60c02292025a604ef2001340f2e0
:100bd40018308021cef200031a5809061202120ab4
:100be4000a4340f21c311a50ff205a5882432243d0
:080bf4005a5010bd2bf6ffff63
:020000040000fa
:100bfc0010b500210400102000f0c2fc00211020d0
:100c0c0000f0ccfc0021202000f0bafc00212020b8
:100c1c0000f0c4fc0321042000f042fb032105205a
:100c2c0000f03efb41f60043ac224021c4f200032d
:100c3c00995040f200430022c4f200231c735a6006
:100c4c008c32c1f230021a604ef2001340f21430b2
:100c5c00cef200031a5803491140c02212040a4371
:080c6c001a5010bdffff00ff4c
:020000040000fa
:100c740000b583b001900198012100f093fc40f28b
:100c840000430121c4f200231a7d0a431a7580210e
:100c94004ef200138022cef20003c9039950bff331
:100ca4004f8fbff36f8f40f2c0420023c2f20002a5
:100cb400136040f2e642c2f20002137040f2e742cf
:100cc400c2f20002137040f2e042c2f2000213804a
:100cd40040f2de42c2f20002138003b000bdc046ff
:020000040000fa
:100ce40041f600438c224021c4f20003995042f69d
:100cf40000030022c4f200031a700f321a63033295
:100d0400c0f210025a6318614ef2001340f200322e
:100d1400c020cef20003995800060902090a0143d3
:100d2400995099580902090a01439950995809029e
:100d3400090a0143995099580902090a084398502d
:040d44007047c046ee
:020000040000fa
:100d48007fb51600c2680d0013000091591e8b4133
:100d5800f31a01938368040003926946022200682b
:100d6800029300f03efb002808dc1822082302400a
:100d7800534062681343636006000fe0019b83429f
:100d8800fad2a268c01ae3681018e26320642bb193
:100d9800531ce3631378ad19013d2b70300004b088
:020da80070bd1c
:020000040000fa
:020daa00fee762
:020000040000fa
:100dac0010b582b06b460190d970d81c41f6004347
:100dbc00b8214024c4f200035a5822435a5041f23d
:100dcc0000430122c4f200231a71019a19680a43e4
:100ddc0004210a431a60027812b11a6814431c6089
:100dec004ef2001240f22030c021cef20002135815
:100dfc0009061b021b0a0b43135002b010bdc04660
:020000040000fa
:100e0c0000230e4a10b513600d4a0e4c13600e4aa7
:100e1c0013600e4a13600e4a13600e4a536213613c
:100e2c000133936000f0aefc00f09df80a4b9c423d
:100e3c0000d310bd08cc9847f8e7c046c804002082
:100e4c0020040020000100001c04002014040020d9
:0c0e5c0018040020240400200401000001
:020000040000fa
:100e680037b5144d04002b6873b100f06bfb01908b
:100e780001a800f0e5fb0f230f309843019900f01b
:100e8800b9fb58b100232b6004b901340f230f3488
:100e98009c4324b90c222000074b1a603ebd042c49
:100ea80000d204242000fff7adfd0028f6d0031f70
:0c0eb8001c60f3e7e0050020d0040020df
:020000040000fa
:100ec40070b504000d0008b9002070bd43689b068e
:100ed40007d543698269934215d80023a362a361ad
:100ee4006361e16b236c994204d2c91a0122206820
:100ef40000f08afc00232364e363002de4d020681f
:100f040000f074fce1e70022c36a110098476369aa
:0a0f1400002be2d101204042d7e794
:020000040000fa
:100f1e0010b540f60b23c0f20003984740f60b23a2
:100f2e00c0f20003984700f0d2f940f20003c0f27d
:100f3e0000037f2293434ef60052cef200029360de
:100f4e0040f60d63c0f20003984740f60b23c0f243
:100f5e000003984740f60b23c0f200039847fff7b3
:040f6e00cafcfee7d4
:020000040000fa
:020f72007047c6
:020000040000fa
:100f740041f20003c4f200239b7adb0715d540f24b
:100f8400b443c2f200031a6801321a6040f6c41274
:100f9400196891420ad041f2000300220121c4f2ef
:100fa40000231a759a7a0a439a72704740f2e24112
:100fb400c2f200010a78d243d2b20a7000221a6047
:040fc400e9e7c04653
:020000040000fa
:100fc80082b06b46d8716b46997141f60043b821df
:100fd8004020c4f200035a5802435a5041f2000319
:100fe8000122c4f200231a711a684c310a431a60ac
:100ff8004ef2001340f22030cef200031a58044992
:101008001140c02212040a431a5002b07047c04669
:04101800ffff00ffd7
:020000040000fa
:10101c00002330b583b0009341f2607140f2644319
:10102c000722c2f20003c0f200010420fff7dafb32
:10103c0000f056fa0028fbd140f2644400230d2244
:10104c00c2f20004e15c064d914206d1052b05d09d
:10105c00ea5c0133e15c9142f8d0012003b030bd71
:04106c006917000000
:020000040000fa
:1010700070b5040016001d00022a1ad043689b06b2
:1010800017d439b90db940f2004528000830fff7f0
:10109000ebfe010020236268a1601343636023001c
:1010a000e5603433ff22012e00d10a221a70024b70
:0c10b000e362002070bdc046090b000088
:020000040000fa
:1010bc0044f200030422c4f2001310b55a6000f08d
:1010cc0037f940f2ec43c2f200031b6800211868a8
:1010dc0000f02efb40f2d053c2f200031b6800213b
:1010ec00186800f025fbfff7f9f900f0b3fa00f0ef
:0810fc007dfb00f05bfb10bd61
:020000040000fa
:1011040040f2b843c2f200031a6810b501321a6003
:101114001a6840f2bc43c2f200031b689a4208d228
:1011240041f200430622c4f200231a75053a9a726a
:1011340010bd41f200430122c4f200231a7200f0f0
:04114400bffaede71a
:020000040000fa
:1011480041542b43495053544152543d2254435027
:10115800222c224950222c373737370d0a0000003d
:1011680041542b43495053454e443d310d0a00002c
:101178006100000041542b434950434c4f53450de7
:041188000a00c04653
:020000040000fa
:10118c0010b5054c227832b9044b13b1044800e079
:10119c0000bf0123237010bd840400200000000058
:1011ac0000000000034b10b51bb10349034800e0dd
:1011bc0000bf10bd000000008804002000000000eb
:020000040000fa
:1011cc0010b58024002148f2000000f0d9f9640227
:1011dc00012140f2001000f0d3f92000002100f0b2
:1011ec00cff9012144f2000000f0caf920000121de
:1011fc0000f0d4f9012148f2000000f0cff910bd45
:020000040000fa
:10120c0042f600030821c4f20003da690843000126
:10121c00104310b5d86180200121c00300f0b0f953
:10122c000021162000f03cf84ef200131022cef2f2
:08123c0000031a6010bdc0465a
:020000040000fa
:1012440010b540f2bc44c2f20004206000f0c6f9bc
:1012540000f0e0f940f2b841c2f200010a682368e4
:101264009a4204d230bf0a6823689a42fad3002310
:041274000b6010bd3e
:020000040000fa
:1012780042f600030821c4f20003da690843104368
:1012880010b5d86180200121000300f07bf900210e
:10129800132000f007f84ef200130822cef20003e4
:0412a8001a6010bdfb
:020000040000fa
:1012ac004308c20701d50901c9b243f24002c4f296
:1012bc000002944601226044027043f23002c4f2f0
:1012cc000002944663441a780a431a707047c04669
:020000040000fa
:1012dc0010b50948016811b9436803b910bd040081
:1012ec008368064a9bb20c349b009b5842682000d2
:1012fc00984780002018ede714010000001700004b
:020000040000fa
:10130c00064b1a680ab9064a1a60064a116809b9e6
:10131c00054911601a68054b1a607047a804002033
:10132c00e8050020a4040020e8070020a004002009
:020000040000fa
:10133c0040f2004300220121c4f200031a819a7981
:10134c000a439a71032299780a40022a05d0022294
:0c135c0001219a709a791142fcd0704770
:020000040000fa
:10136800002300b583b0009341f2d07140f264438a
:101378000722c2f20003c0f200010620fff734fa88
:0c13880000f0b0f80028fbd103b000bd5d
:020000040000fa
:1013940070b5084c050023680bb9fff7b5ff064a82
:1013a400206812684519aa4201d3256070bd012046
:0c13b4004042fbe7a0040020a40400203d
:020000040000fa
:1013c000020000234832d356591e0b4313700423e6
:1013d000426813402bb11023134343600120404265
:0a13e00070470364c3631800fae7c6
:020000040000fa
:1013ea00f7b5002507000c002e000192019b9e42d2
:1013fa0001db2800febd62682168380000f0dbf9d5
:08140a0001362d180834f1e74a
:020000040000fa
:10141200f7b5002507000c002e000192019b9e42a9
:1014220001db2800febd62682168380000f0cbf9bc
:0814320001362d180834f1e722
:020000040000fa
:02143a007047f9
:020000040000fa
:10143c0040f2e242c2f200021378db43dbb21370db
:10144c0040f2dc5340f68d22c2f20003c0f20002df
:04145c001a6070475b
:020000040000fa
:1014600040f2e242c2f200021378db43dbb21370b7
:1014700040f2dc5341f2a172c2f20003c0f200025a
:041480001a60704737
:020000040000fa
:1014840043f2000000230221c4f2000043f24002b0
:10149400c4f200029a1801331170202bf6d1213bbb
:0414a400036070472a
:020000040000fa
:1014a80040f200420121c4f20022137e1942fcd00e
:1014b800906240f200420121c4f20022137e1942d8
:0414c800fcd070479d
:020000040000fa
:1014cc0041f200030121c4f200235a7a0a435a72f2
:1014dc004ef200130422cef200035a607047c0464d
:020000040000fa
:1014ec0040f60003c4f200239a7d520704d4022074
:1014fc009b7d184000b9704730bf0120fbe7c04608
:020000040000fa
:10150c0010b50400002148f2000000f047f820005c
:10151c00fff7c4ff012148f2000000f03ff810bdb6
:020000040000fa
:10152c0040f2c04300b583b00190019ac2f20003af
:10153c001a600198002100f031f803b000bdc046dc
:020000040000fa
:10154c0010b5054c22680ab9fff7dafe034b186890
:10155c002368c01a10bdc046a0040020a4040020bb
:020000040000fa
:10156c00002310b5934206d103201840421e90412f
:0e157c009b08c01810bdc45ccc540133f2e7cc
:020000040000fa
:02158a007047a8
:020000040000fa
:10158c0043f2000382b00190019ac4f2000311b13e
:0c159c005a6002b070479a60fbe7c0463e
:020000040000fa
:1015a80043f2000382b00190019ac4f2000311b122
:0c15b8009a6102b070475a61fbe7c04620
:020000040000fa
:1015c40043f2000382b00190c4f200031b6a019845
:0c15d4001840c840c0b202b07047c046ca
:020000040000fa
:1015e00041f200430122c4f200235a724ef200136a
:0c15f0000732cef200035a607047c0467c
:020000040000fa
:1015fc00054a10b5146800231cb910600361016022
:0c160c000133180010bdc046cc040020c3
:020000040000fa
:1016180041f2004306220221c4f200231a751a6817
:081628000a431a607047c04636
:020000040000fa
:1016300010b50400fff7c4fe28b9a368e268a361ef
:0816400063619b18a36210bd59
:020000040000fa
:10164800006810b5002801da002010bdfff79efee3
:06165800431cfad1f8e783
:020000040000fa
:1016600044f200030222c4f200135a60013a1a72d3
:041670007047c046b9
:020000040000fa
:1016740010b5fff7e1fe42f600030122c4f20003b5
:041684005a6110bdda
:020000040000fa
:1016880010b5fff7e9fe42f600030222c4f2000398
:041698005a6110bdc6
:020000040000fa
:10169c0040f600030221c4f200231a680a431a60c0
:0416ac007047c0467d
:020000040000fa
:1016b00040f20042c4f20002507053788342fcd1e1
:0416c0007047c04669
:020000040000fa
:1016c40041f200430221c4f200231a688a431a60db
:0416d4007047c04655
:020000040000fa
:1016d80040f200430221c4f200231a680a431a6048
:0416e8007047c04641
:020000040000fa
:1016ec0042f600030221c4f200031a780a431a706e
:0416fc007047c0462d
:020000040000fa
:101700004f1700006d1500000518000005180000b7
:0417100005180000b8
:020000040000fa
:1017140010b52ab10023cc5cc45401339342fad1ee
:0417240010bdc046ee
:020000040000fa
:1017280010b500f05df8024b1860586010bdc04657
:04173800ac040020dd
:020000040000fa
:10173c004a424a4110b5520040f20043fff792fc76
:02174c0010bdce
:020000040000fa
:10174e008a18914201d10020704700230b7001319d
:02175e00f7e7ab
:020000040000fa
:1017600041540d0a000000000d0a4f4b0d0a000005
:020000040000fa
:1017700042f600030422c4f200035a617047c046d7
:020000040000fa
:1017800042f600030822c4f200035a617047c046c3
:020000040000fa
:1017900010b5fff7c9fffff750fefff74efe10bd73
:020000040000fa
:0c17a00010b5fef7effdfff769f810bd73
:020000040000fa
:0a17ac0010b5006800f00af810bd47
:020000040000fa
:0817b800bff35f8f62b67047ba
:020000040000fa
:0817c000012040427047c046c1
:020000040000fa
:0817c800012040427047c046b9
:020000040000fa
:0817d000415445300d0a0000f0
:020000040000fa
:0817d80010b5fff7cbfb10bdbb
:020000040000fa
:0817e00010b5fff78ffc10bdee
:020000040000fa
:0817e800004870475405002081
:020000040000fa
:0617f00001204042704799
:020000040000fa
:0417f8007047c04630
:020000040000fa
:0417fc00fee7c046fe
:020000040000fa
:04180000fee7c046f9
:020000040000fa
:041804000020704709
:020000040000fa
:041808000020704705
:020000040000fa
:04180c000020704701
:020000040000fa
:0200000400807a
:044000007f438fb0bb
:020000040000fa
:0200000400807a
:04400400bbfcffff03
:020000040000fa
:0200000400807a
:04c0040000ffffff3b
:020000040000fa
:0200000400807a
:04c04000ffffffff00
:020000040000fa
:0200000400807a
:04c04400fffffffffc
:020000040000fa
:0200000400807a
:04c04800fffffffff8
:020000040000fa
:0200000400807a
:04c04c00fffffffff4
:00000001FF
